{
  "contractName": "Gateway",
  "abi": [
    {
      "constant": true,
      "inputs": [],
      "name": "numValidators",
      "outputs": [
        {
          "name": "",
          "type": "uint256"
        }
      ],
      "payable": false,
      "stateMutability": "view",
      "type": "function"
    },
    {
      "constant": false,
      "inputs": [],
      "name": "renounceOwnership",
      "outputs": [],
      "payable": false,
      "stateMutability": "nonpayable",
      "type": "function"
    },
    {
      "constant": true,
      "inputs": [
        {
          "name": "_address",
          "type": "address"
        }
      ],
      "name": "checkValidator",
      "outputs": [
        {
          "name": "",
          "type": "bool"
        }
      ],
      "payable": false,
      "stateMutability": "view",
      "type": "function"
    },
    {
      "constant": true,
      "inputs": [
        {
          "name": "",
          "type": "address"
        }
      ],
      "name": "nonces",
      "outputs": [
        {
          "name": "",
          "type": "uint256"
        }
      ],
      "payable": false,
      "stateMutability": "view",
      "type": "function"
    },
    {
      "constant": true,
      "inputs": [],
      "name": "owner",
      "outputs": [
        {
          "name": "",
          "type": "address"
        }
      ],
      "payable": false,
      "stateMutability": "view",
      "type": "function"
    },
    {
      "constant": true,
      "inputs": [],
      "name": "isOwner",
      "outputs": [
        {
          "name": "",
          "type": "bool"
        }
      ],
      "payable": false,
      "stateMutability": "view",
      "type": "function"
    },
    {
      "constant": false,
      "inputs": [
        {
          "name": "validator",
          "type": "address"
        },
        {
          "name": "v",
          "type": "uint8[]"
        },
        {
          "name": "r",
          "type": "bytes32[]"
        },
        {
          "name": "s",
          "type": "bytes32[]"
        }
      ],
      "name": "addValidator",
      "outputs": [],
      "payable": false,
      "stateMutability": "nonpayable",
      "type": "function"
    },
    {
      "constant": true,
      "inputs": [],
      "name": "nonce",
      "outputs": [
        {
          "name": "",
          "type": "uint256"
        }
      ],
      "payable": false,
      "stateMutability": "view",
      "type": "function"
    },
    {
      "constant": false,
      "inputs": [
        {
          "name": "validator",
          "type": "address"
        },
        {
          "name": "v",
          "type": "uint8[]"
        },
        {
          "name": "r",
          "type": "bytes32[]"
        },
        {
          "name": "s",
          "type": "bytes32[]"
        }
      ],
      "name": "removeValidator",
      "outputs": [],
      "payable": false,
      "stateMutability": "nonpayable",
      "type": "function"
    },
    {
      "constant": false,
      "inputs": [
        {
          "name": "newOwner",
          "type": "address"
        }
      ],
      "name": "transferOwnership",
      "outputs": [],
      "payable": false,
      "stateMutability": "nonpayable",
      "type": "function"
    },
    {
      "inputs": [
        {
          "name": "_tokenAddress",
          "type": "address"
        },
        {
          "name": "_validators",
          "type": "address[]"
        },
        {
          "name": "_threshold_num",
          "type": "uint8"
        },
        {
          "name": "_threshold_denom",
          "type": "uint8"
        }
      ],
      "payable": false,
      "stateMutability": "nonpayable",
      "type": "constructor"
    },
    {
      "anonymous": false,
      "inputs": [
        {
          "indexed": true,
          "name": "owner",
          "type": "address"
        },
        {
          "indexed": false,
          "name": "value",
          "type": "uint256"
        }
      ],
      "name": "ERC20Withdrawn",
      "type": "event"
    },
    {
      "anonymous": false,
      "inputs": [
        {
          "indexed": false,
          "name": "from",
          "type": "address"
        },
        {
          "indexed": false,
          "name": "amount",
          "type": "uint256"
        }
      ],
      "name": "ERC20Received",
      "type": "event"
    },
    {
      "anonymous": false,
      "inputs": [
        {
          "indexed": false,
          "name": "validator",
          "type": "address"
        }
      ],
      "name": "AddedValidator",
      "type": "event"
    },
    {
      "anonymous": false,
      "inputs": [
        {
          "indexed": false,
          "name": "validator",
          "type": "address"
        }
      ],
      "name": "RemovedValidator",
      "type": "event"
    },
    {
      "anonymous": false,
      "inputs": [
        {
          "indexed": true,
          "name": "previousOwner",
          "type": "address"
        },
        {
          "indexed": true,
          "name": "newOwner",
          "type": "address"
        }
      ],
      "name": "OwnershipTransferred",
      "type": "event"
    },
    {
      "constant": false,
      "inputs": [
        {
          "name": "amount",
          "type": "uint256"
        },
        {
          "name": "signature",
          "type": "bytes"
        }
      ],
      "name": "withdrawERC20",
      "outputs": [],
      "payable": false,
      "stateMutability": "nonpayable",
      "type": "function"
    },
    {
      "constant": false,
      "inputs": [
        {
          "name": "_from",
          "type": "address"
        },
        {
          "name": "amount",
          "type": "uint256"
        }
      ],
      "name": "onERC20Received",
      "outputs": [
        {
          "name": "",
          "type": "bytes4"
        }
      ],
      "payable": false,
      "stateMutability": "nonpayable",
      "type": "function"
    }
  ],
  "bytecode": "0x608060405234801561001057600080fd5b5060405162001f8338038062001f838339810180604052810190808051906020019092919080518201929190602001805190602001909291908051906020019092919050505083838383600080336000806101000a81548173ffffffffffffffffffffffffffffffffffffffff021916908373ffffffffffffffffffffffffffffffffffffffff1602179055506000809054906101000a900473ffffffffffffffffffffffffffffffffffffffff1673ffffffffffffffffffffffffffffffffffffffff16600073ffffffffffffffffffffffffffffffffffffffff167f8be0079c531659141344cd1fd0a4f28419497f9722a3daafe3b4186f6b6457e060405160405180910390a385600160006101000a81548173ffffffffffffffffffffffffffffffffffffffff021916908373ffffffffffffffffffffffffffffffffffffffff160217905550845191506000821115156101fc576040517f08c379a00000000000000000000000000000000000000000000000000000000081526004018080602001828103825260248152602001807f4e756d626572206f662076616c696461746f7273206d7573742062652061626f81526020017f766520300000000000000000000000000000000000000000000000000000000081525060400191505060405180910390fd5b83600460006101000a81548160ff021916908360ff16021790555082600460016101000a81548160ff021916908360ff160217905550600090505b8181101561041757600073ffffffffffffffffffffffffffffffffffffffff16858281518110151561026557fe5b9060200190602002015173ffffffffffffffffffffffffffffffffffffffff1614151515610321576040517f08c379a00000000000000000000000000000000000000000000000000000000081526004018080602001828103825260218152602001807f56616c696461746f72732063616e6e6f74206265207a65726f2061646472657381526020017f730000000000000000000000000000000000000000000000000000000000000081525060400191505060405180910390fd5b600160036000878481518110151561033557fe5b9060200190602002015173ffffffffffffffffffffffffffffffffffffffff1673ffffffffffffffffffffffffffffffffffffffff16815260200190815260200160002060006101000a81548160ff0219169083151502179055507f8e15bf46bd11add443414ada75aa9592a4af68f3f2ec02ae3d49572f9843c2a885828151811015156103bf57fe5b90602001906020020151604051808273ffffffffffffffffffffffffffffffffffffffff1673ffffffffffffffffffffffffffffffffffffffff16815260200191505060405180910390a18080600101915050610237565b845160058190555050505050505083600860006101000a81548173ffffffffffffffffffffffffffffffffffffffff021916908373ffffffffffffffffffffffffffffffffffffffff16021790555050505050611b09806200047a6000396000f3006080604052600436106100ba576000357c0100000000000000000000000000000000000000000000000000000000900463ffffffff1680635d593f8d146100bf5780635df22139146100ea578063715018a61461012f578063797327ae146101465780637ecebe00146101a15780638da5cb5b146101f85780638f32d59b1461024f57806390b616c81461027e578063affed0e014610309578063bc04f0af14610334578063c7e7f6f6146103d3578063f2fde38b1461045e575b600080fd5b3480156100cb57600080fd5b506100d46104a1565b6040518082815260200191505060405180910390f35b3480156100f657600080fd5b5061012d600480360381019080803590602001909291908035906020019082018035906020019190919293919293905050506104a7565b005b34801561013b57600080fd5b506101446108f8565b005b34801561015257600080fd5b50610187600480360381019080803573ffffffffffffffffffffffffffffffffffffffff1690602001909291905050506109ca565b604051808215151515815260200191505060405180910390f35b3480156101ad57600080fd5b506101e2600480360381019080803573ffffffffffffffffffffffffffffffffffffffff169060200190929190505050610a65565b6040518082815260200191505060405180910390f35b34801561020457600080fd5b5061020d610a7d565b604051808273ffffffffffffffffffffffffffffffffffffffff1673ffffffffffffffffffffffffffffffffffffffff16815260200191505060405180910390f35b34801561025b57600080fd5b50610264610aa6565b604051808215151515815260200191505060405180910390f35b34801561028a57600080fd5b50610307600480360381019080803573ffffffffffffffffffffffffffffffffffffffff169060200190929190803590602001908201803590602001919091929391929390803590602001908201803590602001919091929391929390803590602001908201803590602001919091929391929390505050610afd565b005b34801561031557600080fd5b5061031e610e34565b6040518082815260200191505060405180910390f35b34801561034057600080fd5b5061037f600480360381019080803573ffffffffffffffffffffffffffffffffffffffff16906020019092919080359060200190929190505050610e3a565b60405180827bffffffffffffffffffffffffffffffffffffffffffffffffffffffff19167bffffffffffffffffffffffffffffffffffffffffffffffffffffffff1916815260200191505060405180910390f35b3480156103df57600080fd5b5061045c600480360381019080803573ffffffffffffffffffffffffffffffffffffffff169060200190929190803590602001908201803590602001919091929391929390803590602001908201803590602001919091929391929390803590602001908201803590602001919091929391929390505050610ed3565b005b34801561046a57600080fd5b5061049f600480360381019080803573ffffffffffffffffffffffffffffffffffffffff16906020019092919050505061127b565b005b60055481565b8282828080601f01602080910402602001604051908101604052809392919081815260200183838082843782019150505050505060008033600160009054906101000a900473ffffffffffffffffffffffffffffffffffffffff16600260003373ffffffffffffffffffffffffffffffffffffffff1673ffffffffffffffffffffffffffffffffffffffff1681526020019081526020016000205486604051602001808573ffffffffffffffffffffffffffffffffffffffff1673ffffffffffffffffffffffffffffffffffffffff166c010000000000000000000000000281526014018473ffffffffffffffffffffffffffffffffffffffff1673ffffffffffffffffffffffffffffffffffffffff166c010000000000000000000000000281526014018381526020018281526020019450505050506040516020818303038152906040526040518082805190602001908083835b60208310151561062257805182526020820191506020810190506020830392506105fd565b6001836020036101000a0380198251168184511680821785525050505050509050019150506040518091039020915061066883836000191661129a90919063ffffffff16565b9050600360008273ffffffffffffffffffffffffffffffffffffffff1673ffffffffffffffffffffffffffffffffffffffff16815260200190815260200160002060009054906101000a900460ff161515610751576040517f08c379a00000000000000000000000000000000000000000000000000000000081526004018080602001828103825260218152602001807f4d657373616765206e6f74207369676e656420627920612076616c696461746f81526020017f720000000000000000000000000000000000000000000000000000000000000081525060400191505060405180910390fd5b600860009054906101000a900473ffffffffffffffffffffffffffffffffffffffff1673ffffffffffffffffffffffffffffffffffffffff1663a9059cbb33896040518363ffffffff167c0100000000000000000000000000000000000000000000000000000000028152600401808373ffffffffffffffffffffffffffffffffffffffff1673ffffffffffffffffffffffffffffffffffffffff16815260200182815260200192505050602060405180830381600087803b15801561081657600080fd5b505af115801561082a573d6000803e3d6000fd5b505050506040513d602081101561084057600080fd5b8101908080519060200190929190505050503373ffffffffffffffffffffffffffffffffffffffff167f7e2c99819371db0a6fc6f4269fe872496e44f502df19ba3eae594b7a15987460886040518082815260200191505060405180910390a2600260003373ffffffffffffffffffffffffffffffffffffffff1673ffffffffffffffffffffffffffffffffffffffff1681526020019081526020016000206000815480929190600101919050555050505050505050565b610900610aa6565b151561090b57600080fd5b600073ffffffffffffffffffffffffffffffffffffffff166000809054906101000a900473ffffffffffffffffffffffffffffffffffffffff1673ffffffffffffffffffffffffffffffffffffffff167f8be0079c531659141344cd1fd0a4f28419497f9722a3daafe3b4186f6b6457e060405160405180910390a360008060006101000a81548173ffffffffffffffffffffffffffffffffffffffff021916908373ffffffffffffffffffffffffffffffffffffffff160217905550565b60006109d4610a7d565b73ffffffffffffffffffffffffffffffffffffffff168273ffffffffffffffffffffffffffffffffffffffff161415610a105760019050610a60565b600360008373ffffffffffffffffffffffffffffffffffffffff1673ffffffffffffffffffffffffffffffffffffffff16815260200190815260200160002060009054906101000a900460ff1690505b919050565b60026020528060005260406000206000915090505481565b60008060009054906101000a900473ffffffffffffffffffffffffffffffffffffffff16905090565b60008060009054906101000a900473ffffffffffffffffffffffffffffffffffffffff1673ffffffffffffffffffffffffffffffffffffffff163373ffffffffffffffffffffffffffffffffffffffff1614905090565b6000600360008973ffffffffffffffffffffffffffffffffffffffff1673ffffffffffffffffffffffffffffffffffffffff16815260200190815260200160002060009054906101000a900460ff16151515610bc1576040517f08c379a00000000000000000000000000000000000000000000000000000000081526004018080602001828103825260138152602001807f416c726561647920612076616c696461746f720000000000000000000000000081525060200191505060405180910390fd5b8760065460405160200180807f61646400000000000000000000000000000000000000000000000000000000008152506003018373ffffffffffffffffffffffffffffffffffffffff1673ffffffffffffffffffffffffffffffffffffffff166c01000000000000000000000000028152601401828152602001925050506040516020818303038152906040526040518082805190602001908083835b602083101515610c835780518252602082019150602081019050602083039250610c5e565b6001836020036101000a03801982511681845116808217855250505050505090500191505060405180910390209050610d4b818888808060200260200160405190810160405280939291908181526020018383602002808284378201915050505050508787808060200260200160405190810160405280939291908181526020018383602002808284378201915050505050508686808060200260200160405190810160405280939291908181526020018383602002808284378201915050505050506115f9565b6001600360008a73ffffffffffffffffffffffffffffffffffffffff1673ffffffffffffffffffffffffffffffffffffffff16815260200190815260200160002060006101000a81548160ff0219169083151502179055506005600081548092919060010191905055506006600081548092919060010191905055507f8e15bf46bd11add443414ada75aa9592a4af68f3f2ec02ae3d49572f9843c2a888604051808273ffffffffffffffffffffffffffffffffffffffff1673ffffffffffffffffffffffffffffffffffffffff16815260200191505060405180910390a15050505050505050565b60065481565b60007f7fd6e121e69ec2842a4a29502be0a852f8de98e1b672cadf23dc1786ee3945e68383604051808373ffffffffffffffffffffffffffffffffffffffff1673ffffffffffffffffffffffffffffffffffffffff1681526020018281526020019250505060405180910390a163bc04f0af7c010000000000000000000000000000000000000000000000000000000002905092915050565b6000600360008973ffffffffffffffffffffffffffffffffffffffff1673ffffffffffffffffffffffffffffffffffffffff16815260200190815260200160002060009054906101000a900460ff161515610f96576040517f08c379a000000000000000000000000000000000000000000000000000000000815260040180806020018281038252600f8152602001807f4e6f7420612076616c696461746f72000000000000000000000000000000000081525060200191505060405180910390fd5b6001600554111515611010576040517f08c379a00000000000000000000000000000000000000000000000000000000081526004018080602001828103825260198152602001807f4e656564206174206c6561737420312076616c696461746f720000000000000081525060200191505060405180910390fd5b8760065460405160200180807f72656d6f766500000000000000000000000000000000000000000000000000008152506006018373ffffffffffffffffffffffffffffffffffffffff1673ffffffffffffffffffffffffffffffffffffffff166c01000000000000000000000000028152601401828152602001925050506040516020818303038152906040526040518082805190602001908083835b6020831015156110d257805182526020820191506020810190506020830392506110ad565b6001836020036101000a0380198251168184511680821785525050505050509050019150506040518091039020905061119a818888808060200260200160405190810160405280939291908181526020018383602002808284378201915050505050508787808060200260200160405190810160405280939291908181526020018383602002808284378201915050505050508686808060200260200160405190810160405280939291908181526020018383602002808284378201915050505050506115f9565b600360008973ffffffffffffffffffffffffffffffffffffffff1673ffffffffffffffffffffffffffffffffffffffff16815260200190815260200160002060006101000a81549060ff0219169055600560008154809291906001900391905055506006600081548092919060010191905055507fb625c55cf7e37b54fcd18bc4edafdf3f4f9acd59a5ec824c77c795dcb2d6507088604051808273ffffffffffffffffffffffffffffffffffffffff1673ffffffffffffffffffffffffffffffffffffffff16815260200191505060405180910390a15050505050505050565b611283610aa6565b151561128e57600080fd5b611297816119e3565b50565b60008060008060006042865114151561131b576040517f08c379a000000000000000000000000000000000000000000000000000000000815260040180806020018281038252601f8152602001807f5369676e6174757265206d75737420636f6e7461696e2036362062797465730081525060200191505060405180910390fd5b85600081518110151561132a57fe5b9060200101517f010000000000000000000000000000000000000000000000000000000000000090047f0100000000000000000000000000000000000000000000000000000000000000027f0100000000000000000000000000000000000000000000000000000000000000900460ff1660028111156113a657fe5b9350602186015191506041860151905060ff6042870151169250600160028111156113cd57fe5b8460028111156113d957fe5b1415611498578660405160200180807f19457468657265756d205369676e6564204d6573736167653a0a333200000000815250601c0182600019166000191681526020019150506040516020818303038152906040526040518082805190602001908083835b602083101515611464578051825260208201915060208101905060208303925061143f565b6001836020036101000a0380198251168184511680821785525050505050509050019150506040518091039020965061156c565b6002808111156114a457fe5b8460028111156114b057fe5b141561156b578660405160200180807f19457468657265756d205369676e6564204d6573736167653a0a200000000000815250601b0182600019166000191681526020019150506040516020818303038152906040526040518082805190602001908083835b60208310151561153b5780518252602082019150602081019050602083039250611516565b6001836020036101000a038019825116818451168082178552505050505050905001915050604051809103902096505b5b600187848484604051600081526020016040526040518085600019166000191681526020018460ff1660ff1681526020018360001916600019168152602001826000191660001916815260200194505050505060206040516020810390808403906000865af11580156115e3573d6000803e3d6000fd5b5050506020604051035194505050505092915050565b6000806000806000808851118015611612575086518851145b801561161f575085518751145b1515611693576040517f08c379a000000000000000000000000000000000000000000000000000000000815260040180806020018281038252601a8152602001807f496e636f7272656374206e756d626572206f6620706172616d7300000000000081525060200191505060405180910390fd5b600460019054906101000a900460ff1660ff16600554600460009054906101000a900460ff1660ff16028115156116c657fe5b0488511015151561173f576040517f08c379a00000000000000000000000000000000000000000000000000000000081526004018080602001828103825260108152602001807f4e6f7420656e6f75676820766f7465730000000000000000000000000000000081525060200191505060405180910390fd5b8860405160200180807f19457468657265756d205369676e6564204d6573736167653a0a333200000000815250601c0182600019166000191681526020019150506040516020818303038152906040526040518082805190602001908083835b6020831015156117c4578051825260208201915060208101905060208303925061179f565b6001836020036101000a038019825116818451168082178552505050505050905001915050604051809103902094508751935060009250600091505b838210156119d857600185898481518110151561181957fe5b90602001906020020151898581518110151561183157fe5b90602001906020020151898681518110151561184957fe5b90602001906020020151604051600081526020016040526040518085600019166000191681526020018460ff1660ff1681526020018360001916600019168152602001826000191660001916815260200194505050505060206040516020810390808403906000865af11580156118c4573d6000803e3d6000fd5b5050506020604051035190508273ffffffffffffffffffffffffffffffffffffffff168173ffffffffffffffffffffffffffffffffffffffff161180156119545750600360008273ffffffffffffffffffffffffffffffffffffffff1673ffffffffffffffffffffffffffffffffffffffff16815260200190815260200160002060009054906101000a900460ff165b15156119c8576040517f08c379a00000000000000000000000000000000000000000000000000000000081526004018080602001828103825260198152602001807f4e6f74207369676e656420627920612076616c696461746f720000000000000081525060200191505060405180910390fd5b8092508180600101925050611800565b505050505050505050565b600073ffffffffffffffffffffffffffffffffffffffff168173ffffffffffffffffffffffffffffffffffffffff1614151515611a1f57600080fd5b8073ffffffffffffffffffffffffffffffffffffffff166000809054906101000a900473ffffffffffffffffffffffffffffffffffffffff1673ffffffffffffffffffffffffffffffffffffffff167f8be0079c531659141344cd1fd0a4f28419497f9722a3daafe3b4186f6b6457e060405160405180910390a3806000806101000a81548173ffffffffffffffffffffffffffffffffffffffff021916908373ffffffffffffffffffffffffffffffffffffffff160217905550505600a165627a7a723058207279d743a117ba556405087e2f123c8a1e9f21c54e2ae12a81c4a05a1b7cb48d0029",
  "source": "pragma solidity ^0.4.24;\n\nimport \"openzeppelin-solidity/contracts/math/SafeMath.sol\";\nimport \"./gateway/ValidatorsManagerContract.sol\";\nimport \"./gateway/ERC20Receiver.sol\";\n\ncontract ERC20Token {\n    function transfer(address to, uint256 value) public returns (bool);\n}\n\ncontract Gateway is ERC20Receiver, ValidatorsManagerContract {\n\n    using SafeMath for uint256;\n\n    // From user to ERC20 balance\n    mapping (address => uint256) balances;\n    // ERC20 contract address (HEY token)\n    address tokenAddress;\n\n    event ERC20Withdrawn(address indexed owner, uint256 value);\n    event ERC20Received(address from, uint256 amount);\n\n    constructor (\n        address _tokenAddress,\n        address[] _validators,\n        uint8 _threshold_num,\n        uint8 _threshold_denom\n    )\n        public\n        ValidatorsManagerContract(_tokenAddress, _validators, _threshold_num, _threshold_denom)\n    {\n        tokenAddress = _tokenAddress;\n    }\n\n    function withdrawERC20(\n        uint256 amount,\n        bytes signature\n    )\n        external\n        isVerifiedByValidator(amount, signature)\n    {\n        // This transfer transaction depletes the ERC20 balance of the Gateway\n        // contract itself - using the balance provisioned by the admin.\n        ERC20Token(tokenAddress).transfer(msg.sender, amount);\n        emit ERC20Withdrawn(msg.sender, amount);\n    }\n\n    function onERC20Received(\n        address _from,\n        uint256 amount\n    )\n        public\n        returns (bytes4)\n    {\n        emit ERC20Received(_from, amount);\n        return ERC20_RECEIVED;\n    }\n}\n",
  "sourcePath": "/Users/thomasvanderstraeten/code/hey/mainchain/contracts/Gateway.sol",
  "compiler": {
    "name": "solc",
    "version": "0.4.24+commit.e67f0147.Emscripten.clang"
  },
  "schemaVersion": "2.0.1",
  "updatedAt": "2018-11-01T13:42:22.781Z"
}