{
  "contractName": "HeyCrowdsale",
  "abi": [
    {
      "constant": true,
      "inputs": [],
      "name": "hasClosed",
      "outputs": [
        {
          "name": "",
          "type": "bool"
        }
      ],
      "payable": false,
      "stateMutability": "view",
      "type": "function"
    },
    {
      "constant": true,
      "inputs": [],
      "name": "rate",
      "outputs": [
        {
          "name": "",
          "type": "uint256"
        }
      ],
      "payable": false,
      "stateMutability": "view",
      "type": "function"
    },
    {
      "constant": false,
      "inputs": [],
      "name": "unpause",
      "outputs": [],
      "payable": false,
      "stateMutability": "nonpayable",
      "type": "function"
    },
    {
      "constant": true,
      "inputs": [],
      "name": "weiRaised",
      "outputs": [
        {
          "name": "",
          "type": "uint256"
        }
      ],
      "payable": false,
      "stateMutability": "view",
      "type": "function"
    },
    {
      "constant": true,
      "inputs": [],
      "name": "isOpen",
      "outputs": [
        {
          "name": "",
          "type": "bool"
        }
      ],
      "payable": false,
      "stateMutability": "view",
      "type": "function"
    },
    {
      "constant": true,
      "inputs": [],
      "name": "closingTime",
      "outputs": [
        {
          "name": "",
          "type": "uint256"
        }
      ],
      "payable": false,
      "stateMutability": "view",
      "type": "function"
    },
    {
      "constant": false,
      "inputs": [],
      "name": "finalize",
      "outputs": [],
      "payable": false,
      "stateMutability": "nonpayable",
      "type": "function"
    },
    {
      "constant": true,
      "inputs": [],
      "name": "wallet",
      "outputs": [
        {
          "name": "",
          "type": "address"
        }
      ],
      "payable": false,
      "stateMutability": "view",
      "type": "function"
    },
    {
      "constant": true,
      "inputs": [],
      "name": "paused",
      "outputs": [
        {
          "name": "",
          "type": "bool"
        }
      ],
      "payable": false,
      "stateMutability": "view",
      "type": "function"
    },
    {
      "constant": false,
      "inputs": [],
      "name": "renounceOwnership",
      "outputs": [],
      "payable": false,
      "stateMutability": "nonpayable",
      "type": "function"
    },
    {
      "constant": false,
      "inputs": [],
      "name": "pause",
      "outputs": [],
      "payable": false,
      "stateMutability": "nonpayable",
      "type": "function"
    },
    {
      "constant": true,
      "inputs": [],
      "name": "owner",
      "outputs": [
        {
          "name": "",
          "type": "address"
        }
      ],
      "payable": false,
      "stateMutability": "view",
      "type": "function"
    },
    {
      "constant": true,
      "inputs": [],
      "name": "finalized",
      "outputs": [
        {
          "name": "",
          "type": "bool"
        }
      ],
      "payable": false,
      "stateMutability": "view",
      "type": "function"
    },
    {
      "constant": true,
      "inputs": [],
      "name": "openingTime",
      "outputs": [
        {
          "name": "",
          "type": "uint256"
        }
      ],
      "payable": false,
      "stateMutability": "view",
      "type": "function"
    },
    {
      "constant": false,
      "inputs": [
        {
          "name": "beneficiary",
          "type": "address"
        }
      ],
      "name": "buyTokens",
      "outputs": [],
      "payable": true,
      "stateMutability": "payable",
      "type": "function"
    },
    {
      "constant": false,
      "inputs": [
        {
          "name": "newOwner",
          "type": "address"
        }
      ],
      "name": "transferOwnership",
      "outputs": [],
      "payable": false,
      "stateMutability": "nonpayable",
      "type": "function"
    },
    {
      "constant": true,
      "inputs": [],
      "name": "token",
      "outputs": [
        {
          "name": "",
          "type": "address"
        }
      ],
      "payable": false,
      "stateMutability": "view",
      "type": "function"
    },
    {
      "inputs": [
        {
          "name": "openingTime",
          "type": "uint256"
        },
        {
          "name": "closingTime",
          "type": "uint256"
        },
        {
          "name": "firstDayRate",
          "type": "uint256"
        },
        {
          "name": "rate",
          "type": "uint256"
        },
        {
          "name": "wallet",
          "type": "address"
        },
        {
          "name": "pool",
          "type": "address"
        },
        {
          "name": "token",
          "type": "address"
        }
      ],
      "payable": false,
      "stateMutability": "nonpayable",
      "type": "constructor"
    },
    {
      "payable": true,
      "stateMutability": "payable",
      "type": "fallback"
    },
    {
      "anonymous": false,
      "inputs": [],
      "name": "Paused",
      "type": "event"
    },
    {
      "anonymous": false,
      "inputs": [],
      "name": "Unpaused",
      "type": "event"
    },
    {
      "anonymous": false,
      "inputs": [
        {
          "indexed": true,
          "name": "previousOwner",
          "type": "address"
        }
      ],
      "name": "OwnershipRenounced",
      "type": "event"
    },
    {
      "anonymous": false,
      "inputs": [
        {
          "indexed": true,
          "name": "previousOwner",
          "type": "address"
        },
        {
          "indexed": true,
          "name": "newOwner",
          "type": "address"
        }
      ],
      "name": "OwnershipTransferred",
      "type": "event"
    },
    {
      "anonymous": false,
      "inputs": [],
      "name": "CrowdsaleFinalized",
      "type": "event"
    },
    {
      "anonymous": false,
      "inputs": [
        {
          "indexed": true,
          "name": "purchaser",
          "type": "address"
        },
        {
          "indexed": true,
          "name": "beneficiary",
          "type": "address"
        },
        {
          "indexed": false,
          "name": "value",
          "type": "uint256"
        },
        {
          "indexed": false,
          "name": "amount",
          "type": "uint256"
        }
      ],
      "name": "TokensPurchased",
      "type": "event"
    },
    {
      "constant": true,
      "inputs": [],
      "name": "getCurrentRate",
      "outputs": [
        {
          "name": "",
          "type": "uint256"
        }
      ],
      "payable": false,
      "stateMutability": "view",
      "type": "function"
    }
  ],
  "bytecode": "0x60806040526000600760156101000a81548160ff02191690831515021790555034801561002b57600080fd5b5060405160e08061120983398101806040528101908080519060200190929190805190602001909291908051906020019092919080519060200190929190805190602001909291908051906020019092919080519060200190929190505050868685858460016000819055506000831115156100a657600080fd5b600073ffffffffffffffffffffffffffffffffffffffff168273ffffffffffffffffffffffffffffffffffffffff16141515156100e257600080fd5b600073ffffffffffffffffffffffffffffffffffffffff168173ffffffffffffffffffffffffffffffffffffffff161415151561011e57600080fd5b8260038190555081600260006101000a81548173ffffffffffffffffffffffffffffffffffffffff021916908373ffffffffffffffffffffffffffffffffffffffff16021790555080600160006101000a81548173ffffffffffffffffffffffffffffffffffffffff021916908373ffffffffffffffffffffffffffffffffffffffff1602179055505050504282101515156101b957600080fd5b81811115156101c757600080fd5b816005819055508060068190555050506000600760006101000a81548160ff02191690831515021790555033600760016101000a81548173ffffffffffffffffffffffffffffffffffffffff021916908373ffffffffffffffffffffffffffffffffffffffff1602179055508660098190555080600860006101000a81548173ffffffffffffffffffffffffffffffffffffffff021916908373ffffffffffffffffffffffffffffffffffffffff16021790555084600a8190555083600b8190555081600d60006101000a81548173ffffffffffffffffffffffffffffffffffffffff021916908373ffffffffffffffffffffffffffffffffffffffff16021790555050505050505050610f29806102e06000396000f3006080604052600436106100fc576000357c0100000000000000000000000000000000000000000000000000000000900463ffffffff1680631515bc2b146101075780632c4e722e146101365780633f4ba83a146101615780634042b66f1461017857806347535d7b146101a35780634b6753bc146101d25780634bb278f3146101fd578063521eb273146102145780635c975abb1461026b578063715018a61461029a5780638456cb59146102b15780638da5cb5b146102c8578063b3f05b971461031f578063b7a8807c1461034e578063ec8ac4d814610379578063f2fde38b146103af578063f7fb07b0146103f2578063fc0c546a1461041d575b61010533610474565b005b34801561011357600080fd5b5061011c61056a565b604051808215151515815260200191505060405180910390f35b34801561014257600080fd5b5061014b610576565b6040518082815260200191505060405180910390f35b34801561016d57600080fd5b50610176610580565b005b34801561018457600080fd5b5061018d610640565b6040518082815260200191505060405180910390f35b3480156101af57600080fd5b506101b861064a565b604051808215151515815260200191505060405180910390f35b3480156101de57600080fd5b506101e7610665565b6040518082815260200191505060405180910390f35b34801561020957600080fd5b5061021261066f565b005b34801561022057600080fd5b506102296106ef565b604051808273ffffffffffffffffffffffffffffffffffffffff1673ffffffffffffffffffffffffffffffffffffffff16815260200191505060405180910390f35b34801561027757600080fd5b50610280610719565b604051808215151515815260200191505060405180910390f35b3480156102a657600080fd5b506102af610730565b005b3480156102bd57600080fd5b506102c6610835565b005b3480156102d457600080fd5b506102dd6108f6565b604051808273ffffffffffffffffffffffffffffffffffffffff1673ffffffffffffffffffffffffffffffffffffffff16815260200191505060405180910390f35b34801561032b57600080fd5b5061033461091c565b604051808215151515815260200191505060405180910390f35b34801561035a57600080fd5b50610363610933565b6040518082815260200191505060405180910390f35b6103ad600480360381019080803573ffffffffffffffffffffffffffffffffffffffff169060200190929190505050610474565b005b3480156103bb57600080fd5b506103f0600480360381019080803573ffffffffffffffffffffffffffffffffffffffff16906020019092919050505061093d565b005b3480156103fe57600080fd5b50610407610a95565b6040518082815260200191505060405180910390f35b34801561042957600080fd5b50610432610ac9565b604051808273ffffffffffffffffffffffffffffffffffffffff1673ffffffffffffffffffffffffffffffffffffffff16815260200191505060405180910390f35b600080600060016000808282540192505081905550600054905034925061049b8484610af3565b6104a483610b15565b91506104bb83600454610b3890919063ffffffff16565b6004819055506104cb8483610b59565b8373ffffffffffffffffffffffffffffffffffffffff163373ffffffffffffffffffffffffffffffffffffffff167f6faf93231a456e552dbc9961f58d9713ee4f2e69d15f1975b050ef0911053a7b8585604051808381526020018281526020019250505060405180910390a36105428484610b67565b61054a610b6b565b6105548484610bd6565b6000548114151561056457600080fd5b50505050565b60006006544211905090565b6000600354905090565b600760019054906101000a900473ffffffffffffffffffffffffffffffffffffffff1673ffffffffffffffffffffffffffffffffffffffff163373ffffffffffffffffffffffffffffffffffffffff161415156105dc57600080fd5b600760159054906101000a900460ff1615156105f757600080fd5b6000600760156101000a81548160ff0219169083151502179055507fa45f47fdea8a1efdd9029a5691c7f759c32b7c698632b563573e155625d1693360405160405180910390a1565b6000600454905090565b6000600554421015801561066057506006544211155b905090565b6000600654905090565b600760009054906101000a900460ff1615151561068b57600080fd5b61069361056a565b151561069e57600080fd5b6001600760006101000a81548160ff0219169083151502179055506106c1610bda565b7f9270cc390c096600a1c17c44345a1ba689fafd99d97487b10cfccf86cf73183660405160405180910390a1565b6000600260009054906101000a900473ffffffffffffffffffffffffffffffffffffffff16905090565b6000600760159054906101000a900460ff16905090565b600760019054906101000a900473ffffffffffffffffffffffffffffffffffffffff1673ffffffffffffffffffffffffffffffffffffffff163373ffffffffffffffffffffffffffffffffffffffff1614151561078c57600080fd5b600760019054906101000a900473ffffffffffffffffffffffffffffffffffffffff1673ffffffffffffffffffffffffffffffffffffffff167ff8df31144d9c2f0f6b59d69b8b98abd5459d07f2742c4df920b25aae33c6482060405160405180910390a26000600760016101000a81548173ffffffffffffffffffffffffffffffffffffffff021916908373ffffffffffffffffffffffffffffffffffffffff160217905550565b600760019054906101000a900473ffffffffffffffffffffffffffffffffffffffff1673ffffffffffffffffffffffffffffffffffffffff163373ffffffffffffffffffffffffffffffffffffffff1614151561089157600080fd5b600760159054906101000a900460ff161515156108ad57600080fd5b6001600760156101000a81548160ff0219169083151502179055507f9e87fac88ff661f02d44f95383c817fece4bce600a3dab7a54406878b965e75260405160405180910390a1565b600760019054906101000a900473ffffffffffffffffffffffffffffffffffffffff1681565b6000600760009054906101000a900460ff16905090565b6000600554905090565b600760019054906101000a900473ffffffffffffffffffffffffffffffffffffffff1673ffffffffffffffffffffffffffffffffffffffff163373ffffffffffffffffffffffffffffffffffffffff1614151561099957600080fd5b600073ffffffffffffffffffffffffffffffffffffffff168173ffffffffffffffffffffffffffffffffffffffff16141515156109d557600080fd5b8073ffffffffffffffffffffffffffffffffffffffff16600760019054906101000a900473ffffffffffffffffffffffffffffffffffffffff1673ffffffffffffffffffffffffffffffffffffffff167f8be0079c531659141344cd1fd0a4f28419497f9722a3daafe3b4186f6b6457e060405160405180910390a380600760016101000a81548173ffffffffffffffffffffffffffffffffffffffff021916908373ffffffffffffffffffffffffffffffffffffffff16021790555050565b6000610aaf62015180600954610b3890919063ffffffff16565b421015610ac057600a549050610ac6565b600b5490505b90565b6000600160009054906101000a900473ffffffffffffffffffffffffffffffffffffffff16905090565b610afd8282610d0d565b610b05610719565b151515610b1157600080fd5b5050565b6000610b31610b22610a95565b83610d2e90919063ffffffff16565b9050919050565b6000808284019050838110151515610b4f57600080fd5b8091505092915050565b610b638282610d6c565b5050565b5050565b600260009054906101000a900473ffffffffffffffffffffffffffffffffffffffff1673ffffffffffffffffffffffffffffffffffffffff166108fc349081150290604051600060405180830381858888f19350505050158015610bd3573d6000803e3d6000fd5b50565b5050565b6000610be4610dbd565b600860009054906101000a900473ffffffffffffffffffffffffffffffffffffffff1673ffffffffffffffffffffffffffffffffffffffff166370a08231306040518263ffffffff167c0100000000000000000000000000000000000000000000000000000000028152600401808273ffffffffffffffffffffffffffffffffffffffff1673ffffffffffffffffffffffffffffffffffffffff168152602001915050602060405180830381600087803b158015610ca157600080fd5b505af1158015610cb5573d6000803e3d6000fd5b505050506040513d6020811015610ccb57600080fd5b81019080805190602001909291905050509050610d0a600d60009054906101000a900473ffffffffffffffffffffffffffffffffffffffff1682610d6c565b50565b610d1561064a565b1515610d2057600080fd5b610d2a8282610dbf565b5050565b6000806000841415610d435760009150610d65565b8284029050828482811515610d5457fe5b04141515610d6157600080fd5b8091505b5092915050565b610db98282600160009054906101000a900473ffffffffffffffffffffffffffffffffffffffff1673ffffffffffffffffffffffffffffffffffffffff16610e0f9092919063ffffffff16565b5050565b565b600073ffffffffffffffffffffffffffffffffffffffff168273ffffffffffffffffffffffffffffffffffffffff1614151515610dfb57600080fd5b60008114151515610e0b57600080fd5b5050565b8273ffffffffffffffffffffffffffffffffffffffff1663a9059cbb83836040518363ffffffff167c0100000000000000000000000000000000000000000000000000000000028152600401808373ffffffffffffffffffffffffffffffffffffffff1673ffffffffffffffffffffffffffffffffffffffff16815260200182815260200192505050602060405180830381600087803b158015610eb257600080fd5b505af1158015610ec6573d6000803e3d6000fd5b505050506040513d6020811015610edc57600080fd5b81019080805190602001909291905050501515610ef857600080fd5b5050505600a165627a7a72305820a835b369f559d8f8392406b648d9b536c4565667d3a916387624cd7b4f58304a0029",
  "source": "pragma solidity ^0.4.24;\n\nimport \"./crowdsale/validation/TimedCrowdsale.sol\";\nimport \"./crowdsale/distribution/FinalizableCrowdsale.sol\";\nimport \"./lifecycle/Pausable.sol\";\nimport \"./token/IERC20.sol\";\nimport \"./math/SafeMath.sol\";\n\n/**\n * @title HeyCrowdsale\n * @dev The only deviation from OpenZeppelin's standard Crowdsale example\n * is a Pausable behaviour to freeze buying of tokens, and a funneling of\n * unsold tokens to a Pool address when the sale closes.\n */\ncontract HeyCrowdsale is TimedCrowdsale, FinalizableCrowdsale, Pausable {\n\n  // Needed to compute current rate\n  using SafeMath for uint256;\n\n  // The token being sold\n  IERC20 private _token;\n\n  // Needed to compute current rate\n  uint256 private _openingTime;\n\n  // Evolving rates\n  uint256 private _firstDayRate;\n  uint256 private _rate;\n\n  uint256 private _closingTime;\n\n  // Address where potentially unsold funds are sent at finalization\n  address private _pool;\n\n  constructor(\n    uint256 openingTime,\n    uint256 closingTime,\n    uint256 firstDayRate,\n    uint256 rate,\n    address wallet,\n    address pool,\n    IERC20 token\n  )\n    public\n    Crowdsale(rate, wallet, token)\n    TimedCrowdsale(openingTime, closingTime)\n  {\n    _openingTime = openingTime;\n    _token = token;\n    _firstDayRate = firstDayRate;\n    _rate = rate;\n    _pool = pool;\n  }\n\n  // Override of parent function to add Pausable behaviour.\n  function _preValidatePurchase(\n    address beneficiary,\n    uint256 weiAmount\n  )\n    internal\n    view\n  {\n    super._preValidatePurchase(beneficiary, weiAmount);\n    require(!paused());\n  }\n\n  // Override of parent function to reflect non-constant rate.\n  function _getTokenAmount(\n    uint256 weiAmount\n  )\n    internal\n    view\n    returns (uint256)\n  {\n    return weiAmount.mul(getCurrentRate());\n  }\n\n  // Note that the default rate() function remains available as it is inherited\n  // from the Crowdsale contract.\n  function getCurrentRate()\n    public\n    view\n    returns (uint256)\n  {\n    if (now < (_openingTime.add(24 hours))) {\n      return _firstDayRate;\n    } else {\n      return _rate;\n    }\n  }\n\n  // Override of parent function. We extend it to have all remaining tokens\n  // transferred to the Pool where they will be made redeemable.\n  // This function is called by the public finalize() function. Note interestingly\n  // that the finalize() public function is callable by anyone to avoid having\n  // the admin prevent finalization maliciously.\n  function _finalization()\n    internal\n  {\n    super._finalization();\n    uint256 remainingBalance = _token.balanceOf(address(this));\n    _deliverTokens(_pool, remainingBalance);\n  }\n}\n",
  "sourcePath": "/Users/thomasvanderstraeten/code/hey/mainchain/contracts/HeyCrowdsale.sol",
  "compiler": {
    "name": "solc",
    "version": "0.4.24+commit.e67f0147.Emscripten.clang"
  },
  "schemaVersion": "2.0.1",
  "updatedAt": "2018-10-31T22:07:58.243Z"
}