{
  "contractName": "HeyCrowdsale",
  "abi": [
    {
      "constant": true,
      "inputs": [],
      "name": "hasClosed",
      "outputs": [
        {
          "name": "",
          "type": "bool"
        }
      ],
      "payable": false,
      "stateMutability": "view",
      "type": "function"
    },
    {
      "constant": true,
      "inputs": [],
      "name": "rate",
      "outputs": [
        {
          "name": "",
          "type": "uint256"
        }
      ],
      "payable": false,
      "stateMutability": "view",
      "type": "function"
    },
    {
      "constant": true,
      "inputs": [],
      "name": "weiRaised",
      "outputs": [
        {
          "name": "",
          "type": "uint256"
        }
      ],
      "payable": false,
      "stateMutability": "view",
      "type": "function"
    },
    {
      "constant": true,
      "inputs": [],
      "name": "isOpen",
      "outputs": [
        {
          "name": "",
          "type": "bool"
        }
      ],
      "payable": false,
      "stateMutability": "view",
      "type": "function"
    },
    {
      "constant": true,
      "inputs": [],
      "name": "closingTime",
      "outputs": [
        {
          "name": "",
          "type": "uint256"
        }
      ],
      "payable": false,
      "stateMutability": "view",
      "type": "function"
    },
    {
      "constant": false,
      "inputs": [],
      "name": "finalize",
      "outputs": [],
      "payable": false,
      "stateMutability": "nonpayable",
      "type": "function"
    },
    {
      "constant": true,
      "inputs": [],
      "name": "wallet",
      "outputs": [
        {
          "name": "",
          "type": "address"
        }
      ],
      "payable": false,
      "stateMutability": "view",
      "type": "function"
    },
    {
      "constant": true,
      "inputs": [],
      "name": "finalized",
      "outputs": [
        {
          "name": "",
          "type": "bool"
        }
      ],
      "payable": false,
      "stateMutability": "view",
      "type": "function"
    },
    {
      "constant": true,
      "inputs": [],
      "name": "openingTime",
      "outputs": [
        {
          "name": "",
          "type": "uint256"
        }
      ],
      "payable": false,
      "stateMutability": "view",
      "type": "function"
    },
    {
      "constant": false,
      "inputs": [
        {
          "name": "beneficiary",
          "type": "address"
        }
      ],
      "name": "buyTokens",
      "outputs": [],
      "payable": true,
      "stateMutability": "payable",
      "type": "function"
    },
    {
      "constant": true,
      "inputs": [],
      "name": "token",
      "outputs": [
        {
          "name": "",
          "type": "address"
        }
      ],
      "payable": false,
      "stateMutability": "view",
      "type": "function"
    },
    {
      "inputs": [
        {
          "name": "openingTime",
          "type": "uint256"
        },
        {
          "name": "closingTime",
          "type": "uint256"
        },
        {
          "name": "firstDayRate",
          "type": "uint256"
        },
        {
          "name": "rate",
          "type": "uint256"
        },
        {
          "name": "wallet",
          "type": "address"
        },
        {
          "name": "pool",
          "type": "address"
        },
        {
          "name": "token",
          "type": "address"
        }
      ],
      "payable": false,
      "stateMutability": "nonpayable",
      "type": "constructor"
    },
    {
      "payable": true,
      "stateMutability": "payable",
      "type": "fallback"
    },
    {
      "anonymous": false,
      "inputs": [],
      "name": "CrowdsaleFinalized",
      "type": "event"
    },
    {
      "anonymous": false,
      "inputs": [
        {
          "indexed": true,
          "name": "purchaser",
          "type": "address"
        },
        {
          "indexed": true,
          "name": "beneficiary",
          "type": "address"
        },
        {
          "indexed": false,
          "name": "value",
          "type": "uint256"
        },
        {
          "indexed": false,
          "name": "amount",
          "type": "uint256"
        }
      ],
      "name": "TokensPurchased",
      "type": "event"
    },
    {
      "constant": true,
      "inputs": [],
      "name": "getCurrentRate",
      "outputs": [
        {
          "name": "",
          "type": "uint256"
        }
      ],
      "payable": false,
      "stateMutability": "view",
      "type": "function"
    }
  ],
  "bytecode": "0x608060405234801561001057600080fd5b5060405160e080610c20833981018060405281019080805190602001909291908051906020019092919080519060200190929190805190602001909291908051906020019092919080519060200190929190805190602001909291905050508686858584600160008190555060008311151561008b57600080fd5b600073ffffffffffffffffffffffffffffffffffffffff168273ffffffffffffffffffffffffffffffffffffffff16141515156100c757600080fd5b600073ffffffffffffffffffffffffffffffffffffffff168173ffffffffffffffffffffffffffffffffffffffff161415151561010357600080fd5b8260038190555081600260006101000a81548173ffffffffffffffffffffffffffffffffffffffff021916908373ffffffffffffffffffffffffffffffffffffffff16021790555080600160006101000a81548173ffffffffffffffffffffffffffffffffffffffff021916908373ffffffffffffffffffffffffffffffffffffffff16021790555050505042821015151561019e57600080fd5b81811115156101ac57600080fd5b816005819055508060068190555050506000600760006101000a81548160ff0219169083151502179055508660088190555080600760016101000a81548173ffffffffffffffffffffffffffffffffffffffff021916908373ffffffffffffffffffffffffffffffffffffffff1602179055508460098190555083600a8190555081600c60006101000a81548173ffffffffffffffffffffffffffffffffffffffff021916908373ffffffffffffffffffffffffffffffffffffffff1602179055505050505050505061099c806102846000396000f3006080604052600436106100ba576000357c0100000000000000000000000000000000000000000000000000000000900463ffffffff1680631515bc2b146100c55780632c4e722e146100f45780634042b66f1461011f57806347535d7b1461014a5780634b6753bc146101795780634bb278f3146101a4578063521eb273146101bb578063b3f05b9714610212578063b7a8807c14610241578063ec8ac4d81461026c578063f7fb07b0146102a2578063fc0c546a146102cd575b6100c333610324565b005b3480156100d157600080fd5b506100da61041a565b604051808215151515815260200191505060405180910390f35b34801561010057600080fd5b50610109610426565b6040518082815260200191505060405180910390f35b34801561012b57600080fd5b50610134610430565b6040518082815260200191505060405180910390f35b34801561015657600080fd5b5061015f61043a565b604051808215151515815260200191505060405180910390f35b34801561018557600080fd5b5061018e610455565b6040518082815260200191505060405180910390f35b3480156101b057600080fd5b506101b961045f565b005b3480156101c757600080fd5b506101d06104df565b604051808273ffffffffffffffffffffffffffffffffffffffff1673ffffffffffffffffffffffffffffffffffffffff16815260200191505060405180910390f35b34801561021e57600080fd5b50610227610509565b604051808215151515815260200191505060405180910390f35b34801561024d57600080fd5b50610256610520565b6040518082815260200191505060405180910390f35b6102a0600480360381019080803573ffffffffffffffffffffffffffffffffffffffff169060200190929190505050610324565b005b3480156102ae57600080fd5b506102b761052a565b6040518082815260200191505060405180910390f35b3480156102d957600080fd5b506102e261055e565b604051808273ffffffffffffffffffffffffffffffffffffffff1673ffffffffffffffffffffffffffffffffffffffff16815260200191505060405180910390f35b600080600060016000808282540192505081905550600054905034925061034b8484610588565b610354836105a9565b915061036b836004546105cc90919063ffffffff16565b60048190555061037b84836105ed565b8373ffffffffffffffffffffffffffffffffffffffff163373ffffffffffffffffffffffffffffffffffffffff167f6faf93231a456e552dbc9961f58d9713ee4f2e69d15f1975b050ef0911053a7b8585604051808381526020018281526020019250505060405180910390a36103f284846105fb565b6103fa6105ff565b610404848461066a565b6000548114151561041457600080fd5b50505050565b60006006544211905090565b6000600354905090565b6000600454905090565b6000600554421015801561045057506006544211155b905090565b6000600654905090565b600760009054906101000a900460ff1615151561047b57600080fd5b61048361041a565b151561048e57600080fd5b6001600760006101000a81548160ff0219169083151502179055506104b161066e565b7f9270cc390c096600a1c17c44345a1ba689fafd99d97487b10cfccf86cf73183660405160405180910390a1565b6000600260009054906101000a900473ffffffffffffffffffffffffffffffffffffffff16905090565b6000600760009054906101000a900460ff16905090565b6000600554905090565b6000610544620151806008546105cc90919063ffffffff16565b42101561055557600954905061055b565b600a5490505b90565b6000600160009054906101000a900473ffffffffffffffffffffffffffffffffffffffff16905090565b61059061043a565b151561059b57600080fd5b6105a582826107a1565b5050565b60006105c56105b661052a565b836107f190919063ffffffff16565b9050919050565b60008082840190508381101515156105e357600080fd5b8091505092915050565b6105f7828261082f565b5050565b5050565b600260009054906101000a900473ffffffffffffffffffffffffffffffffffffffff1673ffffffffffffffffffffffffffffffffffffffff166108fc349081150290604051600060405180830381858888f19350505050158015610667573d6000803e3d6000fd5b50565b5050565b6000610678610880565b600760019054906101000a900473ffffffffffffffffffffffffffffffffffffffff1673ffffffffffffffffffffffffffffffffffffffff166370a08231306040518263ffffffff167c0100000000000000000000000000000000000000000000000000000000028152600401808273ffffffffffffffffffffffffffffffffffffffff1673ffffffffffffffffffffffffffffffffffffffff168152602001915050602060405180830381600087803b15801561073557600080fd5b505af1158015610749573d6000803e3d6000fd5b505050506040513d602081101561075f57600080fd5b8101908080519060200190929190505050905061079e600c60009054906101000a900473ffffffffffffffffffffffffffffffffffffffff168261082f565b50565b600073ffffffffffffffffffffffffffffffffffffffff168273ffffffffffffffffffffffffffffffffffffffff16141515156107dd57600080fd5b600081141515156107ed57600080fd5b5050565b60008060008414156108065760009150610828565b828402905082848281151561081757fe5b0414151561082457600080fd5b8091505b5092915050565b61087c8282600160009054906101000a900473ffffffffffffffffffffffffffffffffffffffff1673ffffffffffffffffffffffffffffffffffffffff166108829092919063ffffffff16565b5050565b565b8273ffffffffffffffffffffffffffffffffffffffff1663a9059cbb83836040518363ffffffff167c0100000000000000000000000000000000000000000000000000000000028152600401808373ffffffffffffffffffffffffffffffffffffffff1673ffffffffffffffffffffffffffffffffffffffff16815260200182815260200192505050602060405180830381600087803b15801561092557600080fd5b505af1158015610939573d6000803e3d6000fd5b505050506040513d602081101561094f57600080fd5b8101908080519060200190929190505050151561096b57600080fd5b5050505600a165627a7a723058200998612bcb25c4a3d48121fbaf00f4e3d07d455d395dfb2bd1be8ad3657490d90029",
  "source": "pragma solidity ^0.4.24;\n\nimport \"./crowdsale/validation/TimedCrowdsale.sol\";\nimport \"./crowdsale/distribution/FinalizableCrowdsale.sol\";\nimport \"./token/IERC20.sol\";\nimport \"./math/SafeMath.sol\";\n\n/**\n * @title SampleCrowdsale\n * @dev This is an example of a fully fledged crowdsale.\n * The way to add new features to a base crowdsale is by multiple inheritance.\n * In this example we are providing following extensions:\n * CappedCrowdsale - sets a max boundary for raised funds\n *\n * After adding multiple features it's good practice to run integration tests\n * to ensure that subcontracts works together as intended.\n *\n * This code is primarily a copy-paste of OpenZeppelin's Sample Crowdsale:\n * https://github.com/OpenZeppelin/openzeppelin-solidity/blob/master/contracts/examples/SampleCrowdsale.sol\n */\n// XXX There doesn't seem to be a way to split this line that keeps solium\n// happy. See:\n// https://github.com/duaraghav8/Solium/issues/205\n// --elopio - 2018-05-10\n// solium-disable-next-line max-len\ncontract HeyCrowdsale is TimedCrowdsale, FinalizableCrowdsale {\n\n  // Needed to compute current rate\n  using SafeMath for uint256;\n\n  // The token being sold\n  IERC20 private _token;\n\n  // Needed to compute current rate\n  uint256 private _openingTime;\n\n  // Evolving rates\n  uint256 private _firstDayRate;\n  uint256 private _rate;\n\n  uint256 private _closingTime;\n\n  // Address where unsold funds are sent at finalization\n  address private _pool;\n\n  constructor(\n    uint256 openingTime,\n    uint256 closingTime,\n    uint256 firstDayRate,\n    uint256 rate,\n    address wallet,\n    address pool,\n    IERC20 token\n  )\n    public\n    Crowdsale(rate, wallet, token)\n    TimedCrowdsale(openingTime, closingTime)\n  {\n    _openingTime = openingTime;\n    _token = token;\n    _firstDayRate = firstDayRate;\n    _rate = rate;\n    _pool = pool;\n  }\n\n  // Inspired by SirinLab's crowdsale contract:\n  // https://github.com/sirin-labs/crowdsale-smart-contract/blob/master/contracts/SirinVestingTrustee.sol\n  // Note that the rate() function remains available as it is inherited from the\n  // Crowdsale contract.\n  function getCurrentRate() public view returns (uint256) {\n    if (now < (_openingTime.add(24 hours))) {\n      return _firstDayRate;\n    } else {\n      return _rate;\n    }\n  }\n\n  // Override of Crowdsale's default function to reflect changing rate.\n  function _getTokenAmount(uint256 weiAmount)\n    internal view returns (uint256)\n  {\n    return weiAmount.mul(getCurrentRate());\n  }\n\n  // Inheritance of Crowdsale's default internal function for finalization. We extend\n  // it to have all remaining tokens transferred to the Pool where they will be\n  // made redeemable by users after Gateway Validator validation.\n  // This function is called by the public finalize() function. Note interestingly\n  // that this finalize() public function is callable by anyone to avoid having\n  // the admin prevent finalization maliciously.\n  function _finalization() internal {\n    super._finalization();\n    uint256 remainingBalance = _token.balanceOf(address(this));\n    _deliverTokens(_pool, remainingBalance);\n  }\n}\n",
  "sourcePath": "/Users/thomasvanderstraeten/code/hey/mainchain/contracts/HeyCrowdsale.sol",
  "compiler": {
    "name": "solc",
    "version": "0.4.24+commit.e67f0147.Emscripten.clang"
  },
  "schemaVersion": "2.0.1",
  "updatedAt": "2018-10-30T18:32:49.133Z"
}