{
  "contractName": "KYC",
  "abi": [
    {
      "constant": false,
      "inputs": [],
      "name": "renounceKYCVerifier",
      "outputs": [],
      "payable": false,
      "stateMutability": "nonpayable",
      "type": "function"
    },
    {
      "constant": false,
      "inputs": [
        {
          "name": "account",
          "type": "address"
        }
      ],
      "name": "addKYCVerifier",
      "outputs": [],
      "payable": false,
      "stateMutability": "nonpayable",
      "type": "function"
    },
    {
      "constant": true,
      "inputs": [
        {
          "name": "account",
          "type": "address"
        }
      ],
      "name": "isKYCVerifier",
      "outputs": [
        {
          "name": "",
          "type": "bool"
        }
      ],
      "payable": false,
      "stateMutability": "view",
      "type": "function"
    },
    {
      "anonymous": false,
      "inputs": [
        {
          "indexed": true,
          "name": "by",
          "type": "address"
        },
        {
          "indexed": true,
          "name": "account",
          "type": "address"
        }
      ],
      "name": "KYCAuthorizationGranted",
      "type": "event"
    },
    {
      "anonymous": false,
      "inputs": [
        {
          "indexed": true,
          "name": "by",
          "type": "address"
        },
        {
          "indexed": true,
          "name": "account",
          "type": "address"
        }
      ],
      "name": "KYCAuthorizationReverted",
      "type": "event"
    },
    {
      "anonymous": false,
      "inputs": [
        {
          "indexed": true,
          "name": "account",
          "type": "address"
        }
      ],
      "name": "KYCVerifierAdded",
      "type": "event"
    },
    {
      "anonymous": false,
      "inputs": [
        {
          "indexed": true,
          "name": "account",
          "type": "address"
        }
      ],
      "name": "KYCVerifierRemoved",
      "type": "event"
    },
    {
      "constant": true,
      "inputs": [
        {
          "name": "account",
          "type": "address"
        }
      ],
      "name": "kycAuthorized",
      "outputs": [
        {
          "name": "",
          "type": "bool"
        }
      ],
      "payable": false,
      "stateMutability": "view",
      "type": "function"
    },
    {
      "constant": false,
      "inputs": [
        {
          "name": "accounts",
          "type": "address[]"
        }
      ],
      "name": "grantKYCAuthorizations",
      "outputs": [],
      "payable": false,
      "stateMutability": "nonpayable",
      "type": "function"
    },
    {
      "constant": false,
      "inputs": [
        {
          "name": "accounts",
          "type": "address[]"
        }
      ],
      "name": "revertKYCAuthorizations",
      "outputs": [],
      "payable": false,
      "stateMutability": "nonpayable",
      "type": "function"
    }
  ],
  "bytecode": "0x608060405261001c33610021640100000000026401000000009004565b6101db565b61004281600061008864010000000002610852179091906401000000009004565b8073ffffffffffffffffffffffffffffffffffffffff167f5565480284cbd6151ab5813b9bd9e9b3f9e0e7d2a3a8110e0ca9b24ca819dc0160405160405180910390a250565b600073ffffffffffffffffffffffffffffffffffffffff168173ffffffffffffffffffffffffffffffffffffffff16141515156100c457600080fd5b6100dd8282610147640100000000026401000000009004565b1515156100e957600080fd5b60018260000160008373ffffffffffffffffffffffffffffffffffffffff1673ffffffffffffffffffffffffffffffffffffffff16815260200190815260200160002060006101000a81548160ff0219169083151502179055505050565b60008073ffffffffffffffffffffffffffffffffffffffff168273ffffffffffffffffffffffffffffffffffffffff161415151561018457600080fd5b8260000160008373ffffffffffffffffffffffffffffffffffffffff1673ffffffffffffffffffffffffffffffffffffffff16815260200190815260200160002060009054906101000a900460ff16905092915050565b61092e806101ea6000396000f300608060405260043610610078576000357c0100000000000000000000000000000000000000000000000000000000900463ffffffff16806318e6010f1461007d57806334ce5d2d1461009457806342a14d1f146100d7578063696eee5114610132578063b3449bbc1461018d578063b3b5e6ea146101f3575b600080fd5b34801561008957600080fd5b50610092610259565b005b3480156100a057600080fd5b506100d5600480360381019080803573ffffffffffffffffffffffffffffffffffffffff169060200190929190505050610264565b005b3480156100e357600080fd5b50610118600480360381019080803573ffffffffffffffffffffffffffffffffffffffff1690602001909291905050506102ed565b604051808215151515815260200191505060405180910390f35b34801561013e57600080fd5b50610173600480360381019080803573ffffffffffffffffffffffffffffffffffffffff169060200190929190505050610343565b604051808215151515815260200191505060405180910390f35b34801561019957600080fd5b506101f160048036038101908080359060200190820180359060200190808060200260200160405190810160405280939291908181526020018383602002808284378201915050505050509192919290505050610360565b005b3480156101ff57600080fd5b50610257600480360381019080803590602001908201803590602001908080602002602001604051908101604052809392919081815260200183836020028082843782019150505050505091929192905050506104dd565b005b6102623361065b565b565b61026d33610343565b15156102e1576040517f08c379a00000000000000000000000000000000000000000000000000000000081526004018080602001828103825260148152602001807f6d757374206265204b594320766572696669657200000000000000000000000081525060200191505060405180910390fd5b6102ea816106b5565b50565b6000600160008373ffffffffffffffffffffffffffffffffffffffff1673ffffffffffffffffffffffffffffffffffffffff16815260200190815260200160002060009054906101000a900460ff169050919050565b600061035982600061070f90919063ffffffff16565b9050919050565b600061036b33610343565b15156103df576040517f08c379a00000000000000000000000000000000000000000000000000000000081526004018080602001828103825260148152602001807f6d757374206265204b594320766572696669657200000000000000000000000081525060200191505060405180910390fd5b600090505b81518110156104d9576001806000848481518110151561040057fe5b9060200190602002015173ffffffffffffffffffffffffffffffffffffffff1673ffffffffffffffffffffffffffffffffffffffff16815260200190815260200160002060006101000a81548160ff021916908315150217905550818181518110151561046957fe5b9060200190602002015173ffffffffffffffffffffffffffffffffffffffff163373ffffffffffffffffffffffffffffffffffffffff167f8c185685ceb03e9a8983900153554b9ec01ee854b55b319ee0563515a01bbdc760405160405180910390a380806001019150506103e4565b5050565b60006104e833610343565b151561055c576040517f08c379a00000000000000000000000000000000000000000000000000000000081526004018080602001828103825260148152602001807f6d757374206265204b594320766572696669657200000000000000000000000081525060200191505060405180910390fd5b600090505b815181101561065757600060016000848481518110151561057e57fe5b9060200190602002015173ffffffffffffffffffffffffffffffffffffffff1673ffffffffffffffffffffffffffffffffffffffff16815260200190815260200160002060006101000a81548160ff02191690831515021790555081818151811015156105e757fe5b9060200190602002015173ffffffffffffffffffffffffffffffffffffffff163373ffffffffffffffffffffffffffffffffffffffff167f020398f502fe64d86a50ec8fc67611cfe4a6a14aeeec2f6bc0962aba5a03af5160405160405180910390a38080600101915050610561565b5050565b61066f8160006107a390919063ffffffff16565b8073ffffffffffffffffffffffffffffffffffffffff167f84fda749cd5d78392088aeddee30341ef789376b68e94319eff31cb54d561ef060405160405180910390a250565b6106c981600061085290919063ffffffff16565b8073ffffffffffffffffffffffffffffffffffffffff167f5565480284cbd6151ab5813b9bd9e9b3f9e0e7d2a3a8110e0ca9b24ca819dc0160405160405180910390a250565b60008073ffffffffffffffffffffffffffffffffffffffff168273ffffffffffffffffffffffffffffffffffffffff161415151561074c57600080fd5b8260000160008373ffffffffffffffffffffffffffffffffffffffff1673ffffffffffffffffffffffffffffffffffffffff16815260200190815260200160002060009054906101000a900460ff16905092915050565b600073ffffffffffffffffffffffffffffffffffffffff168173ffffffffffffffffffffffffffffffffffffffff16141515156107df57600080fd5b6107e9828261070f565b15156107f457600080fd5b60008260000160008373ffffffffffffffffffffffffffffffffffffffff1673ffffffffffffffffffffffffffffffffffffffff16815260200190815260200160002060006101000a81548160ff0219169083151502179055505050565b600073ffffffffffffffffffffffffffffffffffffffff168173ffffffffffffffffffffffffffffffffffffffff161415151561088e57600080fd5b610898828261070f565b1515156108a457600080fd5b60018260000160008373ffffffffffffffffffffffffffffffffffffffff1673ffffffffffffffffffffffffffffffffffffffff16815260200190815260200160002060006101000a81548160ff02191690831515021790555050505600a165627a7a72305820244993bfd53374ac8d561ff3c8649e6d308659cbc6e17470bb545ed7e86629940029",
  "source": "pragma solidity ^0.4.24;\n\nimport \"./KYCVerifierRole.sol\";\n\n/**\n * @title KYC\n * @dev Implements a list of accounts that have been reviewed and authorized\n * after a KYC process.. Since it is less critical than owning the contract,\n * the role of KYC can be accomplished by several addresses, which is\n * implemented using a custom KYCVerifierRole.\n */\ncontract KYC is KYCVerifierRole {\n\n    event KYCAuthorizationGranted(address indexed by, address indexed account);\n    event KYCAuthorizationReverted(address indexed by, address indexed account);\n\n    mapping(address => bool) private _authorizedAccounts;\n\n    /**\n     * @return true if `account` has been KYC authorized.\n     */\n    function kycAuthorized(address account) public view returns (bool) {\n        return _authorizedAccounts[account];\n    }\n\n    /**\n     * @dev Allows a KYC verifier to grant KYC authorization to accounts.\n     * @param accounts Array of addresses that have been KYC authorized.\n     */\n    function grantKYCAuthorizations(\n        address[] accounts\n    )\n        public\n        onlyKYCVerifier\n    {\n        for (uint256 i = 0; i < accounts.length ; i++) {\n            _authorizedAccounts[accounts[i]] = true;\n            emit KYCAuthorizationGranted(msg.sender, accounts[i]);\n        }\n    }\n\n    /**\n     * @dev Allows a KYC verifier to revert previous KYC authorization to accounts.\n     * @param accounts The addresses that have been KYC reverted.\n     */\n    function revertKYCAuthorizations(\n        address[] accounts\n    )\n        public\n        onlyKYCVerifier\n    {\n        for (uint256 i = 0; i < accounts.length ; i++) {\n            _authorizedAccounts[accounts[i]] = false;\n            emit KYCAuthorizationReverted(msg.sender, accounts[i]);\n        }\n    }\n}\n",
  "sourcePath": "/Users/thomasvanderstraeten/code/hey/mainchain/contracts/utils/KYC.sol",
  "compiler": {
    "name": "solc",
    "version": "0.4.24+commit.e67f0147.Emscripten.clang"
  },
  "schemaVersion": "2.0.1",
  "updatedAt": "2018-11-22T14:44:07.221Z"
}