{
  "contractName": "KYC",
  "abi": [
    {
      "constant": false,
      "inputs": [],
      "name": "renounceKYCVerifier",
      "outputs": [],
      "payable": false,
      "stateMutability": "nonpayable",
      "type": "function"
    },
    {
      "constant": false,
      "inputs": [
        {
          "name": "account",
          "type": "address"
        }
      ],
      "name": "addKYCVerifier",
      "outputs": [],
      "payable": false,
      "stateMutability": "nonpayable",
      "type": "function"
    },
    {
      "constant": true,
      "inputs": [
        {
          "name": "account",
          "type": "address"
        }
      ],
      "name": "isKYCVerifier",
      "outputs": [
        {
          "name": "",
          "type": "bool"
        }
      ],
      "payable": false,
      "stateMutability": "view",
      "type": "function"
    },
    {
      "anonymous": false,
      "inputs": [
        {
          "indexed": true,
          "name": "by",
          "type": "address"
        },
        {
          "indexed": true,
          "name": "account",
          "type": "address"
        }
      ],
      "name": "KYCAuthorizationGranted",
      "type": "event"
    },
    {
      "anonymous": false,
      "inputs": [
        {
          "indexed": true,
          "name": "by",
          "type": "address"
        },
        {
          "indexed": true,
          "name": "account",
          "type": "address"
        }
      ],
      "name": "KYCAuthorizationReverted",
      "type": "event"
    },
    {
      "anonymous": false,
      "inputs": [
        {
          "indexed": true,
          "name": "account",
          "type": "address"
        }
      ],
      "name": "KYCVerifierAdded",
      "type": "event"
    },
    {
      "anonymous": false,
      "inputs": [
        {
          "indexed": true,
          "name": "account",
          "type": "address"
        }
      ],
      "name": "KYCVerifierRemoved",
      "type": "event"
    },
    {
      "constant": true,
      "inputs": [
        {
          "name": "account",
          "type": "address"
        }
      ],
      "name": "kycAuthorized",
      "outputs": [
        {
          "name": "",
          "type": "bool"
        }
      ],
      "payable": false,
      "stateMutability": "view",
      "type": "function"
    },
    {
      "constant": false,
      "inputs": [
        {
          "name": "accounts",
          "type": "address[]"
        }
      ],
      "name": "grantKYCAuthorizations",
      "outputs": [],
      "payable": false,
      "stateMutability": "nonpayable",
      "type": "function"
    },
    {
      "constant": false,
      "inputs": [
        {
          "name": "accounts",
          "type": "address[]"
        }
      ],
      "name": "revertKYCAuthorizations",
      "outputs": [],
      "payable": false,
      "stateMutability": "nonpayable",
      "type": "function"
    }
  ],
  "bytecode": "0x608060405261001c33610021640100000000026401000000009004565b6101db565b61004281600061008864010000000002610938179091906401000000009004565b8073ffffffffffffffffffffffffffffffffffffffff167f5565480284cbd6151ab5813b9bd9e9b3f9e0e7d2a3a8110e0ca9b24ca819dc0160405160405180910390a250565b600073ffffffffffffffffffffffffffffffffffffffff168173ffffffffffffffffffffffffffffffffffffffff16141515156100c457600080fd5b6100dd8282610147640100000000026401000000009004565b1515156100e957600080fd5b60018260000160008373ffffffffffffffffffffffffffffffffffffffff1673ffffffffffffffffffffffffffffffffffffffff16815260200190815260200160002060006101000a81548160ff0219169083151502179055505050565b60008073ffffffffffffffffffffffffffffffffffffffff168273ffffffffffffffffffffffffffffffffffffffff161415151561018457600080fd5b8260000160008373ffffffffffffffffffffffffffffffffffffffff1673ffffffffffffffffffffffffffffffffffffffff16815260200190815260200160002060009054906101000a900460ff16905092915050565b610a14806101ea6000396000f3fe608060405260043610610078576000357c0100000000000000000000000000000000000000000000000000000000900463ffffffff16806318e6010f1461007d57806334ce5d2d1461009457806342a14d1f146100e5578063696eee511461014e578063b3449bbc146101b7578063b3b5e6ea1461027c575b600080fd5b34801561008957600080fd5b50610092610341565b005b3480156100a057600080fd5b506100e3600480360360208110156100b757600080fd5b81019080803573ffffffffffffffffffffffffffffffffffffffff16906020019092919050505061034c565b005b3480156100f157600080fd5b506101346004803603602081101561010857600080fd5b81019080803573ffffffffffffffffffffffffffffffffffffffff1690602001909291905050506103d5565b604051808215151515815260200191505060405180910390f35b34801561015a57600080fd5b5061019d6004803603602081101561017157600080fd5b81019080803573ffffffffffffffffffffffffffffffffffffffff16906020019092919050505061042b565b604051808215151515815260200191505060405180910390f35b3480156101c357600080fd5b5061027a600480360360208110156101da57600080fd5b81019080803590602001906401000000008111156101f757600080fd5b82018360208201111561020957600080fd5b8035906020019184602083028401116401000000008311171561022b57600080fd5b919080806020026020016040519081016040528093929190818152602001838360200280828437600081840152601f19601f820116905080830192505050505050509192919290505050610448565b005b34801561028857600080fd5b5061033f6004803603602081101561029f57600080fd5b81019080803590602001906401000000008111156102bc57600080fd5b8201836020820111156102ce57600080fd5b803590602001918460208302840111640100000000831117156102f057600080fd5b919080806020026020016040519081016040528093929190818152602001838360200280828437600081840152601f19601f8201169050808301925050505050505091929192905050506105c4565b005b61034a33610741565b565b6103553361042b565b15156103c9576040517f08c379a00000000000000000000000000000000000000000000000000000000081526004018080602001828103825260148152602001807f6d757374206265204b594320766572696669657200000000000000000000000081525060200191505060405180910390fd5b6103d28161079b565b50565b6000600160008373ffffffffffffffffffffffffffffffffffffffff1673ffffffffffffffffffffffffffffffffffffffff16815260200190815260200160002060009054906101000a900460ff169050919050565b60006104418260006107f590919063ffffffff16565b9050919050565b6104513361042b565b15156104c5576040517f08c379a00000000000000000000000000000000000000000000000000000000081526004018080602001828103825260148152602001807f6d757374206265204b594320766572696669657200000000000000000000000081525060200191505060405180910390fd5b60008090505b81518110156105c057600180600084848151811015156104e757fe5b9060200190602002015173ffffffffffffffffffffffffffffffffffffffff1673ffffffffffffffffffffffffffffffffffffffff16815260200190815260200160002060006101000a81548160ff021916908315150217905550818181518110151561055057fe5b9060200190602002015173ffffffffffffffffffffffffffffffffffffffff163373ffffffffffffffffffffffffffffffffffffffff167f8c185685ceb03e9a8983900153554b9ec01ee854b55b319ee0563515a01bbdc760405160405180910390a380806001019150506104cb565b5050565b6105cd3361042b565b1515610641576040517f08c379a00000000000000000000000000000000000000000000000000000000081526004018080602001828103825260148152602001807f6d757374206265204b594320766572696669657200000000000000000000000081525060200191505060405180910390fd5b60008090505b815181101561073d57600060016000848481518110151561066457fe5b9060200190602002015173ffffffffffffffffffffffffffffffffffffffff1673ffffffffffffffffffffffffffffffffffffffff16815260200190815260200160002060006101000a81548160ff02191690831515021790555081818151811015156106cd57fe5b9060200190602002015173ffffffffffffffffffffffffffffffffffffffff163373ffffffffffffffffffffffffffffffffffffffff167f020398f502fe64d86a50ec8fc67611cfe4a6a14aeeec2f6bc0962aba5a03af5160405160405180910390a38080600101915050610647565b5050565b61075581600061088990919063ffffffff16565b8073ffffffffffffffffffffffffffffffffffffffff167f84fda749cd5d78392088aeddee30341ef789376b68e94319eff31cb54d561ef060405160405180910390a250565b6107af81600061093890919063ffffffff16565b8073ffffffffffffffffffffffffffffffffffffffff167f5565480284cbd6151ab5813b9bd9e9b3f9e0e7d2a3a8110e0ca9b24ca819dc0160405160405180910390a250565b60008073ffffffffffffffffffffffffffffffffffffffff168273ffffffffffffffffffffffffffffffffffffffff161415151561083257600080fd5b8260000160008373ffffffffffffffffffffffffffffffffffffffff1673ffffffffffffffffffffffffffffffffffffffff16815260200190815260200160002060009054906101000a900460ff16905092915050565b600073ffffffffffffffffffffffffffffffffffffffff168173ffffffffffffffffffffffffffffffffffffffff16141515156108c557600080fd5b6108cf82826107f5565b15156108da57600080fd5b60008260000160008373ffffffffffffffffffffffffffffffffffffffff1673ffffffffffffffffffffffffffffffffffffffff16815260200190815260200160002060006101000a81548160ff0219169083151502179055505050565b600073ffffffffffffffffffffffffffffffffffffffff168173ffffffffffffffffffffffffffffffffffffffff161415151561097457600080fd5b61097e82826107f5565b15151561098a57600080fd5b60018260000160008373ffffffffffffffffffffffffffffffffffffffff1673ffffffffffffffffffffffffffffffffffffffff16815260200190815260200160002060006101000a81548160ff021916908315150217905550505056fea165627a7a72305820680a709bb116e6a6e8d5e3e66189ce8efa89b0024c9d0f009100ffa6155585ef0029",
  "source": "pragma solidity ^0.5.0;\n\nimport \"./KYCVerifierRole.sol\";\n\n/**\n * @title KYC\n * @dev Implements a list of accounts that have been reviewed and authorized\n * after a KYC process.. Since it is less critical than owning the contract,\n * the role of KYC can be accomplished by several addresses, which is\n * implemented using a custom KYCVerifierRole.\n */\ncontract KYC is KYCVerifierRole {\n\n    event KYCAuthorizationGranted(address indexed by, address indexed account);\n    event KYCAuthorizationReverted(address indexed by, address indexed account);\n\n    mapping(address => bool) private _authorizedAccounts;\n\n    /**\n     * @return true if `account` has been KYC authorized.\n     */\n    function kycAuthorized(address account) public view returns (bool) {\n        return _authorizedAccounts[account];\n    }\n\n    /**\n     * @dev Allows a KYC verifier to grant KYC authorization to accounts.\n     * @param accounts Array of addresses that have been KYC authorized.\n     */\n    function grantKYCAuthorizations(\n        address[] memory accounts\n    )\n        public\n        onlyKYCVerifier\n    {\n        for (uint256 i = 0; i < accounts.length ; i++) {\n            _authorizedAccounts[accounts[i]] = true;\n            emit KYCAuthorizationGranted(msg.sender, accounts[i]);\n        }\n    }\n\n    /**\n     * @dev Allows a KYC verifier to revert previous KYC authorization to accounts.\n     * @param accounts The addresses that have been KYC reverted.\n     */\n    function revertKYCAuthorizations(\n        address[] memory accounts\n    )\n        public\n        onlyKYCVerifier\n    {\n        for (uint256 i = 0; i < accounts.length ; i++) {\n            _authorizedAccounts[accounts[i]] = false;\n            emit KYCAuthorizationReverted(msg.sender, accounts[i]);\n        }\n    }\n}\n",
  "sourcePath": "/Users/thomasvanderstraeten/code/hey/mainchain/contracts/utils/KYC.sol",
  "compiler": {
    "name": "solc",
    "version": "0.5.0+commit.1d4f565a.Emscripten.clang"
  },
  "schemaVersion": "3.0.2",
  "updatedAt": "2019-02-28T09:44:08.688Z",
  "devdoc": {
    "details": "Implements a list of accounts that have been reviewed and authorized after a KYC process.. Since it is less critical than owning the contract, the role of KYC can be accomplished by several addresses, which is implemented using a custom KYCVerifierRole.",
    "methods": {
      "grantKYCAuthorizations(address[])": {
        "details": "Allows a KYC verifier to grant KYC authorization to accounts.",
        "params": {
          "accounts": "Array of addresses that have been KYC authorized."
        }
      },
      "kycAuthorized(address)": {
        "return": "true if `account` has been KYC authorized."
      },
      "revertKYCAuthorizations(address[])": {
        "details": "Allows a KYC verifier to revert previous KYC authorization to accounts.",
        "params": {
          "accounts": "The addresses that have been KYC reverted."
        }
      }
    },
    "title": "KYC"
  },
  "userdoc": {
    "methods": {}
  }
}