{
  "contractName": "KYCVerifierRoleMock",
  "abi": [
    {
      "constant": false,
      "inputs": [],
      "name": "renounceKYCVerifier",
      "outputs": [],
      "payable": false,
      "stateMutability": "nonpayable",
      "type": "function"
    },
    {
      "constant": false,
      "inputs": [
        {
          "name": "account",
          "type": "address"
        }
      ],
      "name": "addKYCVerifier",
      "outputs": [],
      "payable": false,
      "stateMutability": "nonpayable",
      "type": "function"
    },
    {
      "constant": true,
      "inputs": [
        {
          "name": "account",
          "type": "address"
        }
      ],
      "name": "isKYCVerifier",
      "outputs": [
        {
          "name": "",
          "type": "bool"
        }
      ],
      "payable": false,
      "stateMutability": "view",
      "type": "function"
    },
    {
      "anonymous": false,
      "inputs": [
        {
          "indexed": true,
          "name": "account",
          "type": "address"
        }
      ],
      "name": "KYCVerifierAdded",
      "type": "event"
    },
    {
      "anonymous": false,
      "inputs": [
        {
          "indexed": true,
          "name": "account",
          "type": "address"
        }
      ],
      "name": "KYCVerifierRemoved",
      "type": "event"
    },
    {
      "constant": false,
      "inputs": [
        {
          "name": "account",
          "type": "address"
        }
      ],
      "name": "removeKYCVerifier",
      "outputs": [],
      "payable": false,
      "stateMutability": "nonpayable",
      "type": "function"
    },
    {
      "constant": true,
      "inputs": [],
      "name": "onlyKYCVerifierMock",
      "outputs": [],
      "payable": false,
      "stateMutability": "view",
      "type": "function"
    }
  ],
  "bytecode": "0x608060405261001c33610021640100000000026401000000009004565b6101db565b6100428160006100886401000000000261043b179091906401000000009004565b8073ffffffffffffffffffffffffffffffffffffffff167f5565480284cbd6151ab5813b9bd9e9b3f9e0e7d2a3a8110e0ca9b24ca819dc0160405160405180910390a250565b600073ffffffffffffffffffffffffffffffffffffffff168173ffffffffffffffffffffffffffffffffffffffff16141515156100c457600080fd5b6100dd8282610147640100000000026401000000009004565b1515156100e957600080fd5b60018260000160008373ffffffffffffffffffffffffffffffffffffffff1673ffffffffffffffffffffffffffffffffffffffff16815260200190815260200160002060006101000a81548160ff0219169083151502179055505050565b60008073ffffffffffffffffffffffffffffffffffffffff168273ffffffffffffffffffffffffffffffffffffffff161415151561018457600080fd5b8260000160008373ffffffffffffffffffffffffffffffffffffffff1673ffffffffffffffffffffffffffffffffffffffff16815260200190815260200160002060009054906101000a900460ff16905092915050565b6105c6806101ea6000396000f3fe60806040526004361061006d576000357c0100000000000000000000000000000000000000000000000000000000900463ffffffff16806318e6010f1461007257806334ce5d2d1461008957806341e97358146100da57806365673a871461012b578063696eee5114610142575b600080fd5b34801561007e57600080fd5b506100876101ab565b005b34801561009557600080fd5b506100d8600480360360208110156100ac57600080fd5b81019080803573ffffffffffffffffffffffffffffffffffffffff1690602001909291905050506101b6565b005b3480156100e657600080fd5b50610129600480360360208110156100fd57600080fd5b81019080803573ffffffffffffffffffffffffffffffffffffffff16906020019092919050505061023f565b005b34801561013757600080fd5b5061014061024b565b005b34801561014e57600080fd5b506101916004803603602081101561016557600080fd5b81019080803573ffffffffffffffffffffffffffffffffffffffff1690602001909291905050506102ca565b604051808215151515815260200191505060405180910390f35b6101b4336102e7565b565b6101bf336102ca565b1515610233576040517f08c379a00000000000000000000000000000000000000000000000000000000081526004018080602001828103825260148152602001807f6d757374206265204b594320766572696669657200000000000000000000000081525060200191505060405180910390fd5b61023c816102f3565b50565b610248816102e7565b50565b610254336102ca565b15156102c8576040517f08c379a00000000000000000000000000000000000000000000000000000000081526004018080602001828103825260148152602001807f6d757374206265204b594320766572696669657200000000000000000000000081525060200191505060405180910390fd5b565b60006102e082600061034d90919063ffffffff16565b9050919050565b6102f0816103e1565b50565b61030781600061043b90919063ffffffff16565b8073ffffffffffffffffffffffffffffffffffffffff167f5565480284cbd6151ab5813b9bd9e9b3f9e0e7d2a3a8110e0ca9b24ca819dc0160405160405180910390a250565b60008073ffffffffffffffffffffffffffffffffffffffff168273ffffffffffffffffffffffffffffffffffffffff161415151561038a57600080fd5b8260000160008373ffffffffffffffffffffffffffffffffffffffff1673ffffffffffffffffffffffffffffffffffffffff16815260200190815260200160002060009054906101000a900460ff16905092915050565b6103f58160006104eb90919063ffffffff16565b8073ffffffffffffffffffffffffffffffffffffffff167f84fda749cd5d78392088aeddee30341ef789376b68e94319eff31cb54d561ef060405160405180910390a250565b600073ffffffffffffffffffffffffffffffffffffffff168173ffffffffffffffffffffffffffffffffffffffff161415151561047757600080fd5b610481828261034d565b15151561048d57600080fd5b60018260000160008373ffffffffffffffffffffffffffffffffffffffff1673ffffffffffffffffffffffffffffffffffffffff16815260200190815260200160002060006101000a81548160ff0219169083151502179055505050565b600073ffffffffffffffffffffffffffffffffffffffff168173ffffffffffffffffffffffffffffffffffffffff161415151561052757600080fd5b610531828261034d565b151561053c57600080fd5b60008260000160008373ffffffffffffffffffffffffffffffffffffffff1673ffffffffffffffffffffffffffffffffffffffff16815260200190815260200160002060006101000a81548160ff021916908315150217905550505056fea165627a7a72305820b410a90fa62082e3059dcdbc1540e7da487787034cd0f0920a9bfcf04a7e028c0029",
  "source": "pragma solidity ^0.5.0;\n\nimport \"../utils/KYCVerifierRole.sol\";\n\ncontract KYCVerifierRoleMock is KYCVerifierRole {\n    function removeKYCVerifier(address account) public {\n        _removeKYCVerifier(account);\n    }\n\n    // solium-disable-next-line no-empty-blocks\n    function onlyKYCVerifierMock() public view onlyKYCVerifier {\n    }\n\n    // Causes a compilation error if super._removeKYCVerifier is not internal\n    function _removeKYCVerifier(address account) internal {\n        super._removeKYCVerifier(account);\n    }\n}\n",
  "sourcePath": "/Users/thomasvanderstraeten/code/hey/mainchain/contracts/mocks/KYCVerifierRoleMock.sol",
  "compiler": {
    "name": "solc",
    "version": "0.5.0+commit.1d4f565a.Emscripten.clang"
  },
  "schemaVersion": "3.0.2",
  "updatedAt": "2019-02-28T09:44:08.668Z",
  "devdoc": {
    "methods": {}
  },
  "userdoc": {
    "methods": {}
  }
}