{
  "contractName": "TokenSale",
  "abi": [
    {
      "constant": true,
      "inputs": [],
      "name": "hasClosed",
      "outputs": [
        {
          "name": "",
          "type": "bool"
        }
      ],
      "payable": false,
      "stateMutability": "view",
      "type": "function"
    },
    {
      "constant": false,
      "inputs": [],
      "name": "renounceKYCVerifier",
      "outputs": [],
      "payable": false,
      "stateMutability": "nonpayable",
      "type": "function"
    },
    {
      "constant": true,
      "inputs": [],
      "name": "rate",
      "outputs": [
        {
          "name": "",
          "type": "uint256"
        }
      ],
      "payable": false,
      "stateMutability": "view",
      "type": "function"
    },
    {
      "constant": false,
      "inputs": [
        {
          "name": "account",
          "type": "address"
        }
      ],
      "name": "addKYCVerifier",
      "outputs": [],
      "payable": false,
      "stateMutability": "nonpayable",
      "type": "function"
    },
    {
      "constant": false,
      "inputs": [],
      "name": "unpause",
      "outputs": [],
      "payable": false,
      "stateMutability": "nonpayable",
      "type": "function"
    },
    {
      "constant": true,
      "inputs": [],
      "name": "weiRaised",
      "outputs": [
        {
          "name": "",
          "type": "uint256"
        }
      ],
      "payable": false,
      "stateMutability": "view",
      "type": "function"
    },
    {
      "constant": true,
      "inputs": [
        {
          "name": "account",
          "type": "address"
        }
      ],
      "name": "kycAuthorized",
      "outputs": [
        {
          "name": "",
          "type": "bool"
        }
      ],
      "payable": false,
      "stateMutability": "view",
      "type": "function"
    },
    {
      "constant": true,
      "inputs": [
        {
          "name": "account",
          "type": "address"
        }
      ],
      "name": "isPauser",
      "outputs": [
        {
          "name": "",
          "type": "bool"
        }
      ],
      "payable": false,
      "stateMutability": "view",
      "type": "function"
    },
    {
      "constant": true,
      "inputs": [],
      "name": "isOpen",
      "outputs": [
        {
          "name": "",
          "type": "bool"
        }
      ],
      "payable": false,
      "stateMutability": "view",
      "type": "function"
    },
    {
      "constant": true,
      "inputs": [],
      "name": "closingTime",
      "outputs": [
        {
          "name": "",
          "type": "uint256"
        }
      ],
      "payable": false,
      "stateMutability": "view",
      "type": "function"
    },
    {
      "constant": false,
      "inputs": [],
      "name": "finalize",
      "outputs": [],
      "payable": false,
      "stateMutability": "nonpayable",
      "type": "function"
    },
    {
      "constant": true,
      "inputs": [],
      "name": "wallet",
      "outputs": [
        {
          "name": "",
          "type": "address"
        }
      ],
      "payable": false,
      "stateMutability": "view",
      "type": "function"
    },
    {
      "constant": true,
      "inputs": [],
      "name": "paused",
      "outputs": [
        {
          "name": "",
          "type": "bool"
        }
      ],
      "payable": false,
      "stateMutability": "view",
      "type": "function"
    },
    {
      "constant": true,
      "inputs": [
        {
          "name": "account",
          "type": "address"
        }
      ],
      "name": "isKYCVerifier",
      "outputs": [
        {
          "name": "",
          "type": "bool"
        }
      ],
      "payable": false,
      "stateMutability": "view",
      "type": "function"
    },
    {
      "constant": false,
      "inputs": [],
      "name": "renouncePauser",
      "outputs": [],
      "payable": false,
      "stateMutability": "nonpayable",
      "type": "function"
    },
    {
      "constant": false,
      "inputs": [
        {
          "name": "account",
          "type": "address"
        }
      ],
      "name": "addPauser",
      "outputs": [],
      "payable": false,
      "stateMutability": "nonpayable",
      "type": "function"
    },
    {
      "constant": false,
      "inputs": [],
      "name": "pause",
      "outputs": [],
      "payable": false,
      "stateMutability": "nonpayable",
      "type": "function"
    },
    {
      "constant": true,
      "inputs": [],
      "name": "MINIMUM_CONTRIBUTION",
      "outputs": [
        {
          "name": "",
          "type": "uint256"
        }
      ],
      "payable": false,
      "stateMutability": "view",
      "type": "function"
    },
    {
      "constant": true,
      "inputs": [],
      "name": "FIRST_DAY_DURATION",
      "outputs": [
        {
          "name": "",
          "type": "uint256"
        }
      ],
      "payable": false,
      "stateMutability": "view",
      "type": "function"
    },
    {
      "constant": false,
      "inputs": [
        {
          "name": "accounts",
          "type": "address[]"
        }
      ],
      "name": "grantKYCAuthorizations",
      "outputs": [],
      "payable": false,
      "stateMutability": "nonpayable",
      "type": "function"
    },
    {
      "constant": false,
      "inputs": [
        {
          "name": "accounts",
          "type": "address[]"
        }
      ],
      "name": "revertKYCAuthorizations",
      "outputs": [],
      "payable": false,
      "stateMutability": "nonpayable",
      "type": "function"
    },
    {
      "constant": true,
      "inputs": [],
      "name": "finalized",
      "outputs": [
        {
          "name": "",
          "type": "bool"
        }
      ],
      "payable": false,
      "stateMutability": "view",
      "type": "function"
    },
    {
      "constant": true,
      "inputs": [],
      "name": "openingTime",
      "outputs": [
        {
          "name": "",
          "type": "uint256"
        }
      ],
      "payable": false,
      "stateMutability": "view",
      "type": "function"
    },
    {
      "constant": false,
      "inputs": [
        {
          "name": "beneficiary",
          "type": "address"
        }
      ],
      "name": "buyTokens",
      "outputs": [],
      "payable": true,
      "stateMutability": "payable",
      "type": "function"
    },
    {
      "constant": true,
      "inputs": [],
      "name": "FIRST_DAY_MINIMUM_CONTRIBUTION",
      "outputs": [
        {
          "name": "",
          "type": "uint256"
        }
      ],
      "payable": false,
      "stateMutability": "view",
      "type": "function"
    },
    {
      "constant": true,
      "inputs": [],
      "name": "token",
      "outputs": [
        {
          "name": "",
          "type": "address"
        }
      ],
      "payable": false,
      "stateMutability": "view",
      "type": "function"
    },
    {
      "inputs": [
        {
          "name": "openingTime",
          "type": "uint256"
        },
        {
          "name": "closingTime",
          "type": "uint256"
        },
        {
          "name": "firstDayRate",
          "type": "uint256"
        },
        {
          "name": "rate",
          "type": "uint256"
        },
        {
          "name": "wallet",
          "type": "address"
        },
        {
          "name": "pool",
          "type": "address"
        },
        {
          "name": "token",
          "type": "address"
        }
      ],
      "payable": false,
      "stateMutability": "nonpayable",
      "type": "constructor"
    },
    {
      "payable": true,
      "stateMutability": "payable",
      "type": "fallback"
    },
    {
      "anonymous": false,
      "inputs": [
        {
          "indexed": true,
          "name": "by",
          "type": "address"
        },
        {
          "indexed": true,
          "name": "account",
          "type": "address"
        }
      ],
      "name": "KYCAuthorizationGranted",
      "type": "event"
    },
    {
      "anonymous": false,
      "inputs": [
        {
          "indexed": true,
          "name": "by",
          "type": "address"
        },
        {
          "indexed": true,
          "name": "account",
          "type": "address"
        }
      ],
      "name": "KYCAuthorizationReverted",
      "type": "event"
    },
    {
      "anonymous": false,
      "inputs": [
        {
          "indexed": true,
          "name": "account",
          "type": "address"
        }
      ],
      "name": "KYCVerifierAdded",
      "type": "event"
    },
    {
      "anonymous": false,
      "inputs": [
        {
          "indexed": true,
          "name": "account",
          "type": "address"
        }
      ],
      "name": "KYCVerifierRemoved",
      "type": "event"
    },
    {
      "anonymous": false,
      "inputs": [
        {
          "indexed": false,
          "name": "account",
          "type": "address"
        }
      ],
      "name": "Paused",
      "type": "event"
    },
    {
      "anonymous": false,
      "inputs": [
        {
          "indexed": false,
          "name": "account",
          "type": "address"
        }
      ],
      "name": "Unpaused",
      "type": "event"
    },
    {
      "anonymous": false,
      "inputs": [
        {
          "indexed": true,
          "name": "account",
          "type": "address"
        }
      ],
      "name": "PauserAdded",
      "type": "event"
    },
    {
      "anonymous": false,
      "inputs": [
        {
          "indexed": true,
          "name": "account",
          "type": "address"
        }
      ],
      "name": "PauserRemoved",
      "type": "event"
    },
    {
      "anonymous": false,
      "inputs": [],
      "name": "CrowdsaleFinalized",
      "type": "event"
    },
    {
      "anonymous": false,
      "inputs": [
        {
          "indexed": true,
          "name": "purchaser",
          "type": "address"
        },
        {
          "indexed": true,
          "name": "beneficiary",
          "type": "address"
        },
        {
          "indexed": false,
          "name": "value",
          "type": "uint256"
        },
        {
          "indexed": false,
          "name": "amount",
          "type": "uint256"
        }
      ],
      "name": "TokensPurchased",
      "type": "event"
    },
    {
      "constant": true,
      "inputs": [],
      "name": "getCurrentRate",
      "outputs": [
        {
          "name": "",
          "type": "uint256"
        }
      ],
      "payable": false,
      "stateMutability": "view",
      "type": "function"
    }
  ],
  "bytecode": "0x60806040523480156200001157600080fd5b5060405160e080620020f9833981018060405260e08110156200003357600080fd5b8101908080519060200190929190805190602001909291908051906020019092919080519060200190929190805190602001909291908051906020019092919080519060200190929190505050868685858460016000819055506000831115156200009d57600080fd5b600073ffffffffffffffffffffffffffffffffffffffff168273ffffffffffffffffffffffffffffffffffffffff1614151515620000da57600080fd5b600073ffffffffffffffffffffffffffffffffffffffff168173ffffffffffffffffffffffffffffffffffffffff16141515156200011757600080fd5b8260038190555081600260006101000a81548173ffffffffffffffffffffffffffffffffffffffff021916908373ffffffffffffffffffffffffffffffffffffffff16021790555080600160006101000a81548173ffffffffffffffffffffffffffffffffffffffff021916908373ffffffffffffffffffffffffffffffffffffffff160217905550505050428210151515620001b357600080fd5b8181111515620001c257600080fd5b816005819055508060068190555050506000600760006101000a81548160ff0219169083151502179055506200020733620003ff640100000000026401000000009004565b6000600960006101000a81548160ff0219169083151502179055506200023c3362000469640100000000026401000000009004565b600085111515620002b5576040517f08c379a000000000000000000000000000000000000000000000000000000000815260040180806020018281038252601e8152602001807f6669727374206461792072617465206d7573742062652061626f76652030000081525060200191505060405180910390fd5b600073ffffffffffffffffffffffffffffffffffffffff168273ffffffffffffffffffffffffffffffffffffffff16141515156200035b576040517f08c379a000000000000000000000000000000000000000000000000000000000815260040180806020018281038252601f8152602001807f706f6f6c2063616e6e6f7420626520746865207a65726f20616464726573730081525060200191505060405180910390fd5b86600c8190555084600d8190555083600e8190555081600f60006101000a81548173ffffffffffffffffffffffffffffffffffffffff021916908373ffffffffffffffffffffffffffffffffffffffff16021790555080601060006101000a81548173ffffffffffffffffffffffffffffffffffffffff021916908373ffffffffffffffffffffffffffffffffffffffff160217905550505050505050506200062b565b62000423816008620004d364010000000002620018a2179091906401000000009004565b8073ffffffffffffffffffffffffffffffffffffffff167f6719d08c1888103bea251a4ed56406bd0c3e69723c8a1686e017e7bbe159b6f860405160405180910390a250565b6200048d81600a620004d364010000000002620018a2179091906401000000009004565b8073ffffffffffffffffffffffffffffffffffffffff167f5565480284cbd6151ab5813b9bd9e9b3f9e0e7d2a3a8110e0ca9b24ca819dc0160405160405180910390a250565b600073ffffffffffffffffffffffffffffffffffffffff168173ffffffffffffffffffffffffffffffffffffffff16141515156200051057600080fd5b6200052b828262000596640100000000026401000000009004565b1515156200053857600080fd5b60018260000160008373ffffffffffffffffffffffffffffffffffffffff1673ffffffffffffffffffffffffffffffffffffffff16815260200190815260200160002060006101000a81548160ff0219169083151502179055505050565b60008073ffffffffffffffffffffffffffffffffffffffff168273ffffffffffffffffffffffffffffffffffffffff1614151515620005d457600080fd5b8260000160008373ffffffffffffffffffffffffffffffffffffffff1673ffffffffffffffffffffffffffffffffffffffff16815260200190815260200160002060009054906101000a900460ff16905092915050565b611abe806200063b6000396000f3fe60806040526004361061015f576000357c0100000000000000000000000000000000000000000000000000000000900463ffffffff1680631515bc2b1461016a57806318e6010f146101995780632c4e722e146101b057806334ce5d2d146101db5780633f4ba83a1461022c5780634042b66f1461024357806342a14d1f1461026e57806346fbf68e146102d757806347535d7b146103405780634b6753bc1461036f5780634bb278f31461039a578063521eb273146103b15780635c975abb14610408578063696eee51146104375780636ef8d66d146104a057806382dc1ec4146104b75780638456cb59146105085780638d0bba031461051f578063923f7ce21461054a578063b3449bbc14610575578063b3b5e6ea1461063a578063b3f05b97146106ff578063b7a8807c1461072e578063ec8ac4d814610759578063ee5543971461079d578063f7fb07b0146107c8578063fc0c546a146107f3575b6101683361084a565b005b34801561017657600080fd5b5061017f610940565b604051808215151515815260200191505060405180910390f35b3480156101a557600080fd5b506101ae61094c565b005b3480156101bc57600080fd5b506101c5610957565b6040518082815260200191505060405180910390f35b3480156101e757600080fd5b5061022a600480360360208110156101fe57600080fd5b81019080803573ffffffffffffffffffffffffffffffffffffffff169060200190929190505050610961565b005b34801561023857600080fd5b506102416109ea565b005b34801561024f57600080fd5b50610258610a99565b6040518082815260200191505060405180910390f35b34801561027a57600080fd5b506102bd6004803603602081101561029157600080fd5b81019080803573ffffffffffffffffffffffffffffffffffffffff169060200190929190505050610aa3565b604051808215151515815260200191505060405180910390f35b3480156102e357600080fd5b50610326600480360360208110156102fa57600080fd5b81019080803573ffffffffffffffffffffffffffffffffffffffff169060200190929190505050610af9565b604051808215151515815260200191505060405180910390f35b34801561034c57600080fd5b50610355610b16565b604051808215151515815260200191505060405180910390f35b34801561037b57600080fd5b50610384610b31565b6040518082815260200191505060405180910390f35b3480156103a657600080fd5b506103af610b3b565b005b3480156103bd57600080fd5b506103c6610bbb565b604051808273ffffffffffffffffffffffffffffffffffffffff1673ffffffffffffffffffffffffffffffffffffffff16815260200191505060405180910390f35b34801561041457600080fd5b5061041d610be5565b604051808215151515815260200191505060405180910390f35b34801561044357600080fd5b506104866004803603602081101561045a57600080fd5b81019080803573ffffffffffffffffffffffffffffffffffffffff169060200190929190505050610bfc565b604051808215151515815260200191505060405180910390f35b3480156104ac57600080fd5b506104b5610c19565b005b3480156104c357600080fd5b50610506600480360360208110156104da57600080fd5b81019080803573ffffffffffffffffffffffffffffffffffffffff169060200190929190505050610c24565b005b34801561051457600080fd5b5061051d610c44565b005b34801561052b57600080fd5b50610534610cf4565b6040518082815260200191505060405180910390f35b34801561055657600080fd5b5061055f610d00565b6040518082815260200191505060405180910390f35b34801561058157600080fd5b506106386004803603602081101561059857600080fd5b81019080803590602001906401000000008111156105b557600080fd5b8201836020820111156105c757600080fd5b803590602001918460208302840111640100000000831117156105e957600080fd5b919080806020026020016040519081016040528093929190818152602001838360200280828437600081840152601f19601f820116905080830192505050505050509192919290505050610d07565b005b34801561064657600080fd5b506106fd6004803603602081101561065d57600080fd5b810190808035906020019064010000000081111561067a57600080fd5b82018360208201111561068c57600080fd5b803590602001918460208302840111640100000000831117156106ae57600080fd5b919080806020026020016040519081016040528093929190818152602001838360200280828437600081840152601f19601f820116905080830192505050505050509192919290505050610e84565b005b34801561070b57600080fd5b50610714611001565b604051808215151515815260200191505060405180910390f35b34801561073a57600080fd5b50610743611018565b6040518082815260200191505060405180910390f35b61079b6004803603602081101561076f57600080fd5b81019080803573ffffffffffffffffffffffffffffffffffffffff16906020019092919050505061084a565b005b3480156107a957600080fd5b506107b2611022565b6040518082815260200191505060405180910390f35b3480156107d457600080fd5b506107dd61102e565b6040518082815260200191505060405180910390f35b3480156107ff57600080fd5b50610808611062565b604051808273ffffffffffffffffffffffffffffffffffffffff1673ffffffffffffffffffffffffffffffffffffffff16815260200191505060405180910390f35b60016000808282540192505081905550600080549050600034905061086f838261108c565b600061087a82611351565b90506108918260045461137490919063ffffffff16565b6004819055506108a18482611395565b8373ffffffffffffffffffffffffffffffffffffffff163373ffffffffffffffffffffffffffffffffffffffff167f6faf93231a456e552dbc9961f58d9713ee4f2e69d15f1975b050ef0911053a7b8484604051808381526020018281526020019250505060405180910390a361091884836113a3565b6109206113a7565b61092a8483611412565b50506000548114151561093c57600080fd5b5050565b60006006544211905090565b61095533611416565b565b6000600354905090565b61096a33610bfc565b15156109de576040517f08c379a00000000000000000000000000000000000000000000000000000000081526004018080602001828103825260148152602001807f6d757374206265204b594320766572696669657200000000000000000000000081525060200191505060405180910390fd5b6109e781611470565b50565b6109f333610af9565b15156109fe57600080fd5b600960009054906101000a900460ff161515610a1957600080fd5b6000600960006101000a81548160ff0219169083151502179055507f5db9ee0a495bf2e6ff9c91a7834c1ba4fdd244a5e8aa4e537bd38aeae4b073aa33604051808273ffffffffffffffffffffffffffffffffffffffff1673ffffffffffffffffffffffffffffffffffffffff16815260200191505060405180910390a1565b6000600454905090565b6000600b60008373ffffffffffffffffffffffffffffffffffffffff1673ffffffffffffffffffffffffffffffffffffffff16815260200190815260200160002060009054906101000a900460ff169050919050565b6000610b0f8260086114ca90919063ffffffff16565b9050919050565b60006005544210158015610b2c57506006544211155b905090565b6000600654905090565b600760009054906101000a900460ff16151515610b5757600080fd5b610b5f610940565b1515610b6a57600080fd5b6001600760006101000a81548160ff021916908315150217905550610b8d61155e565b7f9270cc390c096600a1c17c44345a1ba689fafd99d97487b10cfccf86cf73183660405160405180910390a1565b6000600260009054906101000a900473ffffffffffffffffffffffffffffffffffffffff16905090565b6000600960009054906101000a900460ff16905090565b6000610c1282600a6114ca90919063ffffffff16565b9050919050565b610c223361168f565b565b610c2d33610af9565b1515610c3857600080fd5b610c41816116e9565b50565b610c4d33610af9565b1515610c5857600080fd5b600960009054906101000a900460ff16151515610c7457600080fd5b6001600960006101000a81548160ff0219169083151502179055507f62e78cea01bee320cd4e420270b5ea74000d11b0c9f74754ebdbfc544b05a25833604051808273ffffffffffffffffffffffffffffffffffffffff1673ffffffffffffffffffffffffffffffffffffffff16815260200191505060405180910390a1565b67016345785d8a000081565b6201518081565b610d1033610bfc565b1515610d84576040517f08c379a00000000000000000000000000000000000000000000000000000000081526004018080602001828103825260148152602001807f6d757374206265204b594320766572696669657200000000000000000000000081525060200191505060405180910390fd5b60008090505b8151811015610e80576001600b60008484815181101515610da757fe5b9060200190602002015173ffffffffffffffffffffffffffffffffffffffff1673ffffffffffffffffffffffffffffffffffffffff16815260200190815260200160002060006101000a81548160ff0219169083151502179055508181815181101515610e1057fe5b9060200190602002015173ffffffffffffffffffffffffffffffffffffffff163373ffffffffffffffffffffffffffffffffffffffff167f8c185685ceb03e9a8983900153554b9ec01ee854b55b319ee0563515a01bbdc760405160405180910390a38080600101915050610d8a565b5050565b610e8d33610bfc565b1515610f01576040517f08c379a00000000000000000000000000000000000000000000000000000000081526004018080602001828103825260148152602001807f6d757374206265204b594320766572696669657200000000000000000000000081525060200191505060405180910390fd5b60008090505b8151811015610ffd576000600b60008484815181101515610f2457fe5b9060200190602002015173ffffffffffffffffffffffffffffffffffffffff1673ffffffffffffffffffffffffffffffffffffffff16815260200190815260200160002060006101000a81548160ff0219169083151502179055508181815181101515610f8d57fe5b9060200190602002015173ffffffffffffffffffffffffffffffffffffffff163373ffffffffffffffffffffffffffffffffffffffff167f020398f502fe64d86a50ec8fc67611cfe4a6a14aeeec2f6bc0962aba5a03af5160405160405180910390a38080600101915050610f07565b5050565b6000600760009054906101000a900460ff16905090565b6000600554905090565b678ac7230489e8000081565b600061104862015180600c5461137490919063ffffffff16565b42101561105957600d54905061105f565b600e5490505b90565b6000600160009054906101000a900473ffffffffffffffffffffffffffffffffffffffff16905090565b6110968282611743565b61109e610be5565b151515611139576040517f08c379a00000000000000000000000000000000000000000000000000000000081526004018080602001828103825260278152602001807f63616e6e6f74207075726368617365207768656e20636f6e747261637420697381526020017f207061757365640000000000000000000000000000000000000000000000000081525060400191505060405180910390fd5b61114282610aa3565b15156111dc576040517f08c379a00000000000000000000000000000000000000000000000000000000081526004018080602001828103825260228152602001807f62656e6566696369617279206d757374206265204b594320617574686f72697a81526020017f656400000000000000000000000000000000000000000000000000000000000081525060400191505060405180910390fd5b6111f462015180600c5461137490919063ffffffff16565b4210156112a657678ac7230489e8000034101515156112a1576040517f08c379a000000000000000000000000000000000000000000000000000000000815260040180806020018281038252602d8152602001807f636f6e747269627574696f6e206d7573742062652061626f7665206d696e696d81526020017f756d20617574686f72697a65640000000000000000000000000000000000000081525060400191505060405180910390fd5b61134d565b67016345785d8a0000341015151561134c576040517f08c379a000000000000000000000000000000000000000000000000000000000815260040180806020018281038252602d8152602001807f636f6e747269627574696f6e206d7573742062652061626f7665206d696e696d81526020017f756d20617574686f72697a65640000000000000000000000000000000000000081525060400191505060405180910390fd5b5b5050565b600061136d61135e61102e565b8361176490919063ffffffff16565b9050919050565b600080828401905083811015151561138b57600080fd5b8091505092915050565b61139f82826117a2565b5050565b5050565b600260009054906101000a900473ffffffffffffffffffffffffffffffffffffffff1673ffffffffffffffffffffffffffffffffffffffff166108fc349081150290604051600060405180830381858888f1935050505015801561140f573d6000803e3d6000fd5b50565b5050565b61142a81600a6117f390919063ffffffff16565b8073ffffffffffffffffffffffffffffffffffffffff167f84fda749cd5d78392088aeddee30341ef789376b68e94319eff31cb54d561ef060405160405180910390a250565b61148481600a6118a290919063ffffffff16565b8073ffffffffffffffffffffffffffffffffffffffff167f5565480284cbd6151ab5813b9bd9e9b3f9e0e7d2a3a8110e0ca9b24ca819dc0160405160405180910390a250565b60008073ffffffffffffffffffffffffffffffffffffffff168273ffffffffffffffffffffffffffffffffffffffff161415151561150757600080fd5b8260000160008373ffffffffffffffffffffffffffffffffffffffff1673ffffffffffffffffffffffffffffffffffffffff16815260200190815260200160002060009054906101000a900460ff16905092915050565b611566611952565b6000601060009054906101000a900473ffffffffffffffffffffffffffffffffffffffff1673ffffffffffffffffffffffffffffffffffffffff166370a08231306040518263ffffffff167c0100000000000000000000000000000000000000000000000000000000028152600401808273ffffffffffffffffffffffffffffffffffffffff1673ffffffffffffffffffffffffffffffffffffffff16815260200191505060206040518083038186803b15801561162357600080fd5b505afa158015611637573d6000803e3d6000fd5b505050506040513d602081101561164d57600080fd5b8101908080519060200190929190505050905061168c600f60009054906101000a900473ffffffffffffffffffffffffffffffffffffffff16826117a2565b50565b6116a38160086117f390919063ffffffff16565b8073ffffffffffffffffffffffffffffffffffffffff167fcd265ebaf09df2871cc7bd4133404a235ba12eff2041bb89d9c714a2621c7c7e60405160405180910390a250565b6116fd8160086118a290919063ffffffff16565b8073ffffffffffffffffffffffffffffffffffffffff167f6719d08c1888103bea251a4ed56406bd0c3e69723c8a1686e017e7bbe159b6f860405160405180910390a250565b61174b610b16565b151561175657600080fd5b6117608282611954565b5050565b600080831415611777576000905061179c565b6000828402905082848281151561178a57fe5b0414151561179757600080fd5b809150505b92915050565b6117ef8282600160009054906101000a900473ffffffffffffffffffffffffffffffffffffffff1673ffffffffffffffffffffffffffffffffffffffff166119a49092919063ffffffff16565b5050565b600073ffffffffffffffffffffffffffffffffffffffff168173ffffffffffffffffffffffffffffffffffffffff161415151561182f57600080fd5b61183982826114ca565b151561184457600080fd5b60008260000160008373ffffffffffffffffffffffffffffffffffffffff1673ffffffffffffffffffffffffffffffffffffffff16815260200190815260200160002060006101000a81548160ff0219169083151502179055505050565b600073ffffffffffffffffffffffffffffffffffffffff168173ffffffffffffffffffffffffffffffffffffffff16141515156118de57600080fd5b6118e882826114ca565b1515156118f457600080fd5b60018260000160008373ffffffffffffffffffffffffffffffffffffffff1673ffffffffffffffffffffffffffffffffffffffff16815260200190815260200160002060006101000a81548160ff0219169083151502179055505050565b565b600073ffffffffffffffffffffffffffffffffffffffff168273ffffffffffffffffffffffffffffffffffffffff161415151561199057600080fd5b600081141515156119a057600080fd5b5050565b8273ffffffffffffffffffffffffffffffffffffffff1663a9059cbb83836040518363ffffffff167c0100000000000000000000000000000000000000000000000000000000028152600401808373ffffffffffffffffffffffffffffffffffffffff1673ffffffffffffffffffffffffffffffffffffffff16815260200182815260200192505050602060405180830381600087803b158015611a4757600080fd5b505af1158015611a5b573d6000803e3d6000fd5b505050506040513d6020811015611a7157600080fd5b81019080805190602001909291905050501515611a8d57600080fd5b50505056fea165627a7a72305820b9948c92e4317a7f17144ed8e8788369b28dd2c4a1888ac14ed33718dac16ebe0029",
  "source": "/** @title Hey Token Sale\n *  @author Thomas Vanderstraeten - <thomas@get-hey.com>\n *  This smart contract has undertaken X audit and X bounty program.\n *  However, keep in mind that smart contracts still rely on experimental technology.\n */\n\npragma solidity ^0.5.0;\n\nimport \"openzeppelin-solidity/contracts/crowdsale/validation/TimedCrowdsale.sol\";\nimport \"openzeppelin-solidity/contracts/crowdsale/distribution/FinalizableCrowdsale.sol\";\nimport \"openzeppelin-solidity/contracts/lifecycle/Pausable.sol\";\nimport \"openzeppelin-solidity/contracts/token/ERC20/IERC20.sol\";\nimport \"openzeppelin-solidity/contracts/math/SafeMath.sol\";\nimport \"./utils/KYC.sol\";\n\n/**\n *  @title Hey Token Sale\n *  @dev The only deviations from OpenZeppelin's standard Crowdsale example\n *  is a Pausable behaviour to freeze buying of tokens, and a funneling of\n *  unsold tokens to a Pool address when the sale closes.\n *  Note that we are naming this contract 'TokenSale' to not redeclare the parent\n *  Crowdsale contract, from which Sale indirectly inherits.\n */\ncontract TokenSale is TimedCrowdsale, FinalizableCrowdsale, Pausable, KYC {\n\n    /* *** Libraries *** */\n    using SafeMath for uint256;\n\n\n    /* *** Sale Parameters *** */\n    // Constants\n    uint256 public constant FIRST_DAY_DURATION = 24 hours;             // Duration of the first sale day\n    uint256 public constant FIRST_DAY_MINIMUM_CONTRIBUTION = 10 ether; // Minimum ETH contribution for the first day\n    uint256 public constant MINIMUM_CONTRIBUTION = 0.1 ether;          // Minimum ETH contribution after the first day\n    // Initialized at contract deployment\n    uint256 private _openingTime;   // When the sale starts\n    uint256 private _firstDayRate;  // The ETH-to-Token rate for the first day\n    uint256 private _rate;          // The ETH-to-Token rate after the first day\n    address private _pool;          // The address where unsold tokens are sent at finalization\n    IERC20 private _token;          // The token which is sold\n\n\n    /* *** Public Functions *** */\n\n    /** @dev Constructor. First contract set up (tokens will also need to be transferred to the contract afterwards)\n     *  @param openingTime Time the sale will start in seconds since the Unix Epoch\n     *  @param closingTime Time the sale will close in seconds since the Unix Epoch\n     *  @param firstDayRate ETH-to-Token rate for the first day of the sale\n     *  @param rate ETH-to-Token rate after the first day of the sale\n     *  @param wallet The party which will get the funds of the token sale\n     *  @param pool The party which will get the unsold tokens at closing of the sale\n     *  @param token The ERC20 token being sold\n     */\n    constructor(\n        uint256 openingTime,\n        uint256 closingTime,\n        uint256 firstDayRate,\n        uint256 rate,\n        address payable wallet,\n        address payable pool,\n        IERC20 token\n    )\n        public\n        Crowdsale(rate, wallet, token)\n        TimedCrowdsale(openingTime, closingTime)\n    {\n        require(firstDayRate > 0, \"first day rate must be above 0\");\n        require(pool != address(0), \"pool cannot be the zero address\");\n\n        _openingTime = openingTime;\n        _firstDayRate = firstDayRate;\n        _rate = rate;\n        _pool = pool;\n        _token = token;\n    }\n\n    /** @dev Called when the sale is finalized - extension of OpenZeppelin's\n     *  standard function. We extend it to have all potentially unsold tokens\n     *  transferred to the Pool (where they will be made redeemable).\n     *  This function is called by the public finalize() function.\n     *  Note interestingly that the caller finalize() public function is callable\n     *  by anyone to avoid having the admin prevent finalization maliciously.\n     */\n    function _finalization()\n        internal\n    {\n        super._finalization();\n        uint256 remainingBalance = _token.balanceOf(address(this));\n        _deliverTokens(_pool, remainingBalance);\n    }\n\n    /** @dev Override of OpenZeppelin's standard function to reflect the\n     *  evolving ETH-to-Token rate.\n     *  @return uint256 The current number of tokens purchasable for the Wei amount\n     */\n    function getCurrentRate()\n        public\n        view\n        returns (uint256)\n    {\n        // solium-disable-next-line security/no-block-members\n        if (block.timestamp < (_openingTime.add(FIRST_DAY_DURATION))) {\n            return _firstDayRate;\n        } else {\n            return _rate;\n        }\n    }\n\n\n    /* *** Internal Functions *** */\n\n    /** @dev Called before any purchase is confirmed - extension of OpenZeppelin's\n     *  standard function to implement the Pausable, MinimumContribution and KYC\n     *  behaviours as requirements.\n     *  Note that OpenZeppelin's implementation choice has been to have this\n     *  function as a view function, although it does not have a return value.\n     *  @param beneficiary The party that wishes to receive tokens\n     *  @param weiAmount The amount sent in exchange for tokens, in Wei\n     */\n    function _preValidatePurchase(\n        address beneficiary,\n        uint256 weiAmount\n    )\n        internal\n        view\n    {\n        super._preValidatePurchase(beneficiary, weiAmount);\n        require(!paused(), \"cannot purchase when contract is paused\");\n        require(kycAuthorized(beneficiary), \"beneficiary must be KYC authorized\");\n\n        // solium-disable-next-line security/no-block-members\n        if (block.timestamp < (_openingTime.add(FIRST_DAY_DURATION))) {\n            require(msg.value >= FIRST_DAY_MINIMUM_CONTRIBUTION, \"contribution must be above minimum authorized\");\n        } else {\n            require(msg.value >= MINIMUM_CONTRIBUTION, \"contribution must be above minimum authorized\");\n        }\n    }\n\n    /** @dev Override of OpenZeppelin's standard function to reflect the\n     *  evolving ETH-to-Token rate.\n     *  @param weiAmount The amount sent in exchange for tokens, in Wei\n     *  @return uint256 The number of tokens purchasable for the Wei amount\n     */\n    function _getTokenAmount(\n        uint256 weiAmount\n    )\n        internal\n        view\n        returns (uint256)\n    {\n        // Note that the decimals of ETH and Token (both 18) cancel each other\n        return weiAmount.mul(getCurrentRate());\n    }\n}\n",
  "sourcePath": "/Users/thomasvanderstraeten/code/hey/mainchain/contracts/TokenSale.sol",
  "compiler": {
    "name": "solc",
    "version": "0.5.0+commit.1d4f565a.Emscripten.clang"
  },
  "schemaVersion": "3.0.2",
  "updatedAt": "2019-02-28T09:44:08.710Z",
  "devdoc": {
    "details": "The only deviations from OpenZeppelin's standard Crowdsale example is a Pausable behaviour to freeze buying of tokens, and a funneling of unsold tokens to a Pool address when the sale closes. Note that we are naming this contract 'TokenSale' to not redeclare the parent Crowdsale contract, from which Sale indirectly inherits.",
    "methods": {
      "buyTokens(address)": {
        "details": "low level token purchase ***DO NOT OVERRIDE*** This function has a non-reentrancy guard, so it shouldn't be called by another `nonReentrant` function.",
        "params": {
          "beneficiary": "Recipient of the token purchase"
        }
      },
      "closingTime()": {
        "return": "the crowdsale closing time."
      },
      "constructor": {
        "details": "Constructor. First contract set up (tokens will also need to be transferred to the contract afterwards)",
        "params": {
          "closingTime": "Time the sale will close in seconds since the Unix Epoch",
          "firstDayRate": "ETH-to-Token rate for the first day of the sale",
          "openingTime": "Time the sale will start in seconds since the Unix Epoch",
          "pool": "The party which will get the unsold tokens at closing of the sale",
          "rate": "ETH-to-Token rate after the first day of the sale",
          "token": "The ERC20 token being sold",
          "wallet": "The party which will get the funds of the token sale"
        }
      },
      "finalize()": {
        "details": "Must be called after crowdsale ends, to do some extra finalization work. Calls the contract's finalization function."
      },
      "finalized()": {
        "return": "true if the crowdsale is finalized, false otherwise."
      },
      "getCurrentRate()": {
        "details": "Override of OpenZeppelin's standard function to reflect the evolving ETH-to-Token rate.",
        "return": "uint256 The current number of tokens purchasable for the Wei amount"
      },
      "grantKYCAuthorizations(address[])": {
        "details": "Allows a KYC verifier to grant KYC authorization to accounts.",
        "params": {
          "accounts": "Array of addresses that have been KYC authorized."
        }
      },
      "hasClosed()": {
        "details": "Checks whether the period in which the crowdsale is open has already elapsed.",
        "return": "Whether crowdsale period has elapsed"
      },
      "isOpen()": {
        "return": "true if the crowdsale is open, false otherwise."
      },
      "kycAuthorized(address)": {
        "return": "true if `account` has been KYC authorized."
      },
      "openingTime()": {
        "return": "the crowdsale opening time."
      },
      "pause()": {
        "details": "called by the owner to pause, triggers stopped state"
      },
      "paused()": {
        "return": "true if the contract is paused, false otherwise."
      },
      "rate()": {
        "return": "the number of token units a buyer gets per wei."
      },
      "revertKYCAuthorizations(address[])": {
        "details": "Allows a KYC verifier to revert previous KYC authorization to accounts.",
        "params": {
          "accounts": "The addresses that have been KYC reverted."
        }
      },
      "token()": {
        "return": "the token being sold."
      },
      "unpause()": {
        "details": "called by the owner to unpause, returns to normal state"
      },
      "wallet()": {
        "return": "the address where funds are collected."
      },
      "weiRaised()": {
        "return": "the amount of wei raised."
      }
    },
    "title": "Hey Token Sale"
  },
  "userdoc": {
    "methods": {}
  }
}