{
  "contractName": "TokenSale",
  "abi": [
    {
      "constant": true,
      "inputs": [],
      "name": "hasClosed",
      "outputs": [
        {
          "name": "",
          "type": "bool"
        }
      ],
      "payable": false,
      "stateMutability": "view",
      "type": "function"
    },
    {
      "constant": false,
      "inputs": [],
      "name": "renounceKYCVerifier",
      "outputs": [],
      "payable": false,
      "stateMutability": "nonpayable",
      "type": "function"
    },
    {
      "constant": true,
      "inputs": [],
      "name": "rate",
      "outputs": [
        {
          "name": "",
          "type": "uint256"
        }
      ],
      "payable": false,
      "stateMutability": "view",
      "type": "function"
    },
    {
      "constant": false,
      "inputs": [
        {
          "name": "account",
          "type": "address"
        }
      ],
      "name": "addKYCVerifier",
      "outputs": [],
      "payable": false,
      "stateMutability": "nonpayable",
      "type": "function"
    },
    {
      "constant": false,
      "inputs": [],
      "name": "unpause",
      "outputs": [],
      "payable": false,
      "stateMutability": "nonpayable",
      "type": "function"
    },
    {
      "constant": true,
      "inputs": [],
      "name": "weiRaised",
      "outputs": [
        {
          "name": "",
          "type": "uint256"
        }
      ],
      "payable": false,
      "stateMutability": "view",
      "type": "function"
    },
    {
      "constant": true,
      "inputs": [
        {
          "name": "account",
          "type": "address"
        }
      ],
      "name": "kycAuthorized",
      "outputs": [
        {
          "name": "",
          "type": "bool"
        }
      ],
      "payable": false,
      "stateMutability": "view",
      "type": "function"
    },
    {
      "constant": true,
      "inputs": [
        {
          "name": "account",
          "type": "address"
        }
      ],
      "name": "isPauser",
      "outputs": [
        {
          "name": "",
          "type": "bool"
        }
      ],
      "payable": false,
      "stateMutability": "view",
      "type": "function"
    },
    {
      "constant": true,
      "inputs": [],
      "name": "isOpen",
      "outputs": [
        {
          "name": "",
          "type": "bool"
        }
      ],
      "payable": false,
      "stateMutability": "view",
      "type": "function"
    },
    {
      "constant": true,
      "inputs": [],
      "name": "closingTime",
      "outputs": [
        {
          "name": "",
          "type": "uint256"
        }
      ],
      "payable": false,
      "stateMutability": "view",
      "type": "function"
    },
    {
      "constant": false,
      "inputs": [],
      "name": "finalize",
      "outputs": [],
      "payable": false,
      "stateMutability": "nonpayable",
      "type": "function"
    },
    {
      "constant": true,
      "inputs": [],
      "name": "wallet",
      "outputs": [
        {
          "name": "",
          "type": "address"
        }
      ],
      "payable": false,
      "stateMutability": "view",
      "type": "function"
    },
    {
      "constant": true,
      "inputs": [],
      "name": "paused",
      "outputs": [
        {
          "name": "",
          "type": "bool"
        }
      ],
      "payable": false,
      "stateMutability": "view",
      "type": "function"
    },
    {
      "constant": true,
      "inputs": [
        {
          "name": "account",
          "type": "address"
        }
      ],
      "name": "isKYCVerifier",
      "outputs": [
        {
          "name": "",
          "type": "bool"
        }
      ],
      "payable": false,
      "stateMutability": "view",
      "type": "function"
    },
    {
      "constant": false,
      "inputs": [],
      "name": "renouncePauser",
      "outputs": [],
      "payable": false,
      "stateMutability": "nonpayable",
      "type": "function"
    },
    {
      "constant": false,
      "inputs": [
        {
          "name": "account",
          "type": "address"
        }
      ],
      "name": "addPauser",
      "outputs": [],
      "payable": false,
      "stateMutability": "nonpayable",
      "type": "function"
    },
    {
      "constant": false,
      "inputs": [],
      "name": "pause",
      "outputs": [],
      "payable": false,
      "stateMutability": "nonpayable",
      "type": "function"
    },
    {
      "constant": true,
      "inputs": [],
      "name": "MINIMUM_CONTRIBUTION",
      "outputs": [
        {
          "name": "",
          "type": "uint256"
        }
      ],
      "payable": false,
      "stateMutability": "view",
      "type": "function"
    },
    {
      "constant": true,
      "inputs": [],
      "name": "FIRST_DAY_DURATION",
      "outputs": [
        {
          "name": "",
          "type": "uint256"
        }
      ],
      "payable": false,
      "stateMutability": "view",
      "type": "function"
    },
    {
      "constant": false,
      "inputs": [
        {
          "name": "accounts",
          "type": "address[]"
        }
      ],
      "name": "grantKYCAuthorizations",
      "outputs": [],
      "payable": false,
      "stateMutability": "nonpayable",
      "type": "function"
    },
    {
      "constant": false,
      "inputs": [
        {
          "name": "accounts",
          "type": "address[]"
        }
      ],
      "name": "revertKYCAuthorizations",
      "outputs": [],
      "payable": false,
      "stateMutability": "nonpayable",
      "type": "function"
    },
    {
      "constant": true,
      "inputs": [],
      "name": "finalized",
      "outputs": [
        {
          "name": "",
          "type": "bool"
        }
      ],
      "payable": false,
      "stateMutability": "view",
      "type": "function"
    },
    {
      "constant": true,
      "inputs": [],
      "name": "openingTime",
      "outputs": [
        {
          "name": "",
          "type": "uint256"
        }
      ],
      "payable": false,
      "stateMutability": "view",
      "type": "function"
    },
    {
      "constant": false,
      "inputs": [
        {
          "name": "beneficiary",
          "type": "address"
        }
      ],
      "name": "buyTokens",
      "outputs": [],
      "payable": true,
      "stateMutability": "payable",
      "type": "function"
    },
    {
      "constant": true,
      "inputs": [],
      "name": "FIRST_DAY_MINIMUM_CONTRIBUTION",
      "outputs": [
        {
          "name": "",
          "type": "uint256"
        }
      ],
      "payable": false,
      "stateMutability": "view",
      "type": "function"
    },
    {
      "constant": true,
      "inputs": [],
      "name": "token",
      "outputs": [
        {
          "name": "",
          "type": "address"
        }
      ],
      "payable": false,
      "stateMutability": "view",
      "type": "function"
    },
    {
      "inputs": [
        {
          "name": "openingTime",
          "type": "uint256"
        },
        {
          "name": "closingTime",
          "type": "uint256"
        },
        {
          "name": "firstDayRate",
          "type": "uint256"
        },
        {
          "name": "rate",
          "type": "uint256"
        },
        {
          "name": "wallet",
          "type": "address"
        },
        {
          "name": "pool",
          "type": "address"
        },
        {
          "name": "token",
          "type": "address"
        }
      ],
      "payable": false,
      "stateMutability": "nonpayable",
      "type": "constructor"
    },
    {
      "payable": true,
      "stateMutability": "payable",
      "type": "fallback"
    },
    {
      "anonymous": false,
      "inputs": [
        {
          "indexed": true,
          "name": "by",
          "type": "address"
        },
        {
          "indexed": true,
          "name": "account",
          "type": "address"
        }
      ],
      "name": "KYCAuthorizationGranted",
      "type": "event"
    },
    {
      "anonymous": false,
      "inputs": [
        {
          "indexed": true,
          "name": "by",
          "type": "address"
        },
        {
          "indexed": true,
          "name": "account",
          "type": "address"
        }
      ],
      "name": "KYCAuthorizationReverted",
      "type": "event"
    },
    {
      "anonymous": false,
      "inputs": [
        {
          "indexed": true,
          "name": "account",
          "type": "address"
        }
      ],
      "name": "KYCVerifierAdded",
      "type": "event"
    },
    {
      "anonymous": false,
      "inputs": [
        {
          "indexed": true,
          "name": "account",
          "type": "address"
        }
      ],
      "name": "KYCVerifierRemoved",
      "type": "event"
    },
    {
      "anonymous": false,
      "inputs": [
        {
          "indexed": false,
          "name": "account",
          "type": "address"
        }
      ],
      "name": "Paused",
      "type": "event"
    },
    {
      "anonymous": false,
      "inputs": [
        {
          "indexed": false,
          "name": "account",
          "type": "address"
        }
      ],
      "name": "Unpaused",
      "type": "event"
    },
    {
      "anonymous": false,
      "inputs": [
        {
          "indexed": true,
          "name": "account",
          "type": "address"
        }
      ],
      "name": "PauserAdded",
      "type": "event"
    },
    {
      "anonymous": false,
      "inputs": [
        {
          "indexed": true,
          "name": "account",
          "type": "address"
        }
      ],
      "name": "PauserRemoved",
      "type": "event"
    },
    {
      "anonymous": false,
      "inputs": [],
      "name": "CrowdsaleFinalized",
      "type": "event"
    },
    {
      "anonymous": false,
      "inputs": [
        {
          "indexed": true,
          "name": "purchaser",
          "type": "address"
        },
        {
          "indexed": true,
          "name": "beneficiary",
          "type": "address"
        },
        {
          "indexed": false,
          "name": "value",
          "type": "uint256"
        },
        {
          "indexed": false,
          "name": "amount",
          "type": "uint256"
        }
      ],
      "name": "TokensPurchased",
      "type": "event"
    },
    {
      "constant": true,
      "inputs": [],
      "name": "getCurrentRate",
      "outputs": [
        {
          "name": "",
          "type": "uint256"
        }
      ],
      "payable": false,
      "stateMutability": "view",
      "type": "function"
    }
  ],
  "bytecode": "0x60806040523480156200001157600080fd5b5060405160e08062001fdc83398101806040528101908080519060200190929190805190602001909291908051906020019092919080519060200190929190805190602001909291908051906020019092919080519060200190929190505050868685858460016000819055506000831115156200008e57600080fd5b600073ffffffffffffffffffffffffffffffffffffffff168273ffffffffffffffffffffffffffffffffffffffff1614151515620000cb57600080fd5b600073ffffffffffffffffffffffffffffffffffffffff168173ffffffffffffffffffffffffffffffffffffffff16141515156200010857600080fd5b8260038190555081600260006101000a81548173ffffffffffffffffffffffffffffffffffffffff021916908373ffffffffffffffffffffffffffffffffffffffff16021790555080600160006101000a81548173ffffffffffffffffffffffffffffffffffffffff021916908373ffffffffffffffffffffffffffffffffffffffff160217905550505050428210151515620001a457600080fd5b8181111515620001b357600080fd5b816005819055508060068190555050506000600760006101000a81548160ff021916908315150217905550620001f833620003f0640100000000026401000000009004565b6000600960006101000a81548160ff0219169083151502179055506200022d336200045a640100000000026401000000009004565b600085111515620002a6576040517f08c379a000000000000000000000000000000000000000000000000000000000815260040180806020018281038252601e8152602001807f6669727374206461792072617465206d7573742062652061626f76652030000081525060200191505060405180910390fd5b600073ffffffffffffffffffffffffffffffffffffffff168273ffffffffffffffffffffffffffffffffffffffff16141515156200034c576040517f08c379a000000000000000000000000000000000000000000000000000000000815260040180806020018281038252601f8152602001807f706f6f6c2063616e6e6f7420626520746865207a65726f20616464726573730081525060200191505060405180910390fd5b86600c8190555084600d8190555083600e8190555081600f60006101000a81548173ffffffffffffffffffffffffffffffffffffffff021916908373ffffffffffffffffffffffffffffffffffffffff16021790555080601060006101000a81548173ffffffffffffffffffffffffffffffffffffffff021916908373ffffffffffffffffffffffffffffffffffffffff160217905550505050505050506200061c565b62000414816008620004c46401000000000262001794179091906401000000009004565b8073ffffffffffffffffffffffffffffffffffffffff167f6719d08c1888103bea251a4ed56406bd0c3e69723c8a1686e017e7bbe159b6f860405160405180910390a250565b6200047e81600a620004c46401000000000262001794179091906401000000009004565b8073ffffffffffffffffffffffffffffffffffffffff167f5565480284cbd6151ab5813b9bd9e9b3f9e0e7d2a3a8110e0ca9b24ca819dc0160405160405180910390a250565b600073ffffffffffffffffffffffffffffffffffffffff168173ffffffffffffffffffffffffffffffffffffffff16141515156200050157600080fd5b6200051c828262000587640100000000026401000000009004565b1515156200052957600080fd5b60018260000160008373ffffffffffffffffffffffffffffffffffffffff1673ffffffffffffffffffffffffffffffffffffffff16815260200190815260200160002060006101000a81548160ff0219169083151502179055505050565b60008073ffffffffffffffffffffffffffffffffffffffff168273ffffffffffffffffffffffffffffffffffffffff1614151515620005c557600080fd5b8260000160008373ffffffffffffffffffffffffffffffffffffffff1673ffffffffffffffffffffffffffffffffffffffff16815260200190815260200160002060009054906101000a900460ff16905092915050565b6119b0806200062c6000396000f30060806040526004361061015f576000357c0100000000000000000000000000000000000000000000000000000000900463ffffffff1680631515bc2b1461016a57806318e6010f146101995780632c4e722e146101b057806334ce5d2d146101db5780633f4ba83a1461021e5780634042b66f1461023557806342a14d1f1461026057806346fbf68e146102bb57806347535d7b146103165780634b6753bc146103455780634bb278f314610370578063521eb273146103875780635c975abb146103de578063696eee511461040d5780636ef8d66d1461046857806382dc1ec41461047f5780638456cb59146104c25780638d0bba03146104d9578063923f7ce214610504578063b3449bbc1461052f578063b3b5e6ea14610595578063b3f05b97146105fb578063b7a8807c1461062a578063ec8ac4d814610655578063ee5543971461068b578063f7fb07b0146106b6578063fc0c546a146106e1575b61016833610738565b005b34801561017657600080fd5b5061017f61082e565b604051808215151515815260200191505060405180910390f35b3480156101a557600080fd5b506101ae61083a565b005b3480156101bc57600080fd5b506101c5610845565b6040518082815260200191505060405180910390f35b3480156101e757600080fd5b5061021c600480360381019080803573ffffffffffffffffffffffffffffffffffffffff16906020019092919050505061084f565b005b34801561022a57600080fd5b506102336108d8565b005b34801561024157600080fd5b5061024a610987565b6040518082815260200191505060405180910390f35b34801561026c57600080fd5b506102a1600480360381019080803573ffffffffffffffffffffffffffffffffffffffff169060200190929190505050610991565b604051808215151515815260200191505060405180910390f35b3480156102c757600080fd5b506102fc600480360381019080803573ffffffffffffffffffffffffffffffffffffffff1690602001909291905050506109e7565b604051808215151515815260200191505060405180910390f35b34801561032257600080fd5b5061032b610a04565b604051808215151515815260200191505060405180910390f35b34801561035157600080fd5b5061035a610a1f565b6040518082815260200191505060405180910390f35b34801561037c57600080fd5b50610385610a29565b005b34801561039357600080fd5b5061039c610aa9565b604051808273ffffffffffffffffffffffffffffffffffffffff1673ffffffffffffffffffffffffffffffffffffffff16815260200191505060405180910390f35b3480156103ea57600080fd5b506103f3610ad3565b604051808215151515815260200191505060405180910390f35b34801561041957600080fd5b5061044e600480360381019080803573ffffffffffffffffffffffffffffffffffffffff169060200190929190505050610aea565b604051808215151515815260200191505060405180910390f35b34801561047457600080fd5b5061047d610b07565b005b34801561048b57600080fd5b506104c0600480360381019080803573ffffffffffffffffffffffffffffffffffffffff169060200190929190505050610b12565b005b3480156104ce57600080fd5b506104d7610b32565b005b3480156104e557600080fd5b506104ee610be2565b6040518082815260200191505060405180910390f35b34801561051057600080fd5b50610519610bee565b6040518082815260200191505060405180910390f35b34801561053b57600080fd5b5061059360048036038101908080359060200190820180359060200190808060200260200160405190810160405280939291908181526020018383602002808284378201915050505050509192919290505050610bf5565b005b3480156105a157600080fd5b506105f960048036038101908080359060200190820180359060200190808060200260200160405190810160405280939291908181526020018383602002808284378201915050505050509192919290505050610d73565b005b34801561060757600080fd5b50610610610ef1565b604051808215151515815260200191505060405180910390f35b34801561063657600080fd5b5061063f610f08565b6040518082815260200191505060405180910390f35b610689600480360381019080803573ffffffffffffffffffffffffffffffffffffffff169060200190929190505050610738565b005b34801561069757600080fd5b506106a0610f12565b6040518082815260200191505060405180910390f35b3480156106c257600080fd5b506106cb610f1e565b6040518082815260200191505060405180910390f35b3480156106ed57600080fd5b506106f6610f52565b604051808273ffffffffffffffffffffffffffffffffffffffff1673ffffffffffffffffffffffffffffffffffffffff16815260200191505060405180910390f35b600080600060016000808282540192505081905550600054905034925061075f8484610f7c565b61076883611241565b915061077f8360045461126490919063ffffffff16565b60048190555061078f8483611285565b8373ffffffffffffffffffffffffffffffffffffffff163373ffffffffffffffffffffffffffffffffffffffff167f6faf93231a456e552dbc9961f58d9713ee4f2e69d15f1975b050ef0911053a7b8585604051808381526020018281526020019250505060405180910390a36108068484611293565b61080e611297565b6108188484611302565b6000548114151561082857600080fd5b50505050565b60006006544211905090565b61084333611306565b565b6000600354905090565b61085833610aea565b15156108cc576040517f08c379a00000000000000000000000000000000000000000000000000000000081526004018080602001828103825260148152602001807f6d757374206265204b594320766572696669657200000000000000000000000081525060200191505060405180910390fd5b6108d581611360565b50565b6108e1336109e7565b15156108ec57600080fd5b600960009054906101000a900460ff16151561090757600080fd5b6000600960006101000a81548160ff0219169083151502179055507f5db9ee0a495bf2e6ff9c91a7834c1ba4fdd244a5e8aa4e537bd38aeae4b073aa33604051808273ffffffffffffffffffffffffffffffffffffffff1673ffffffffffffffffffffffffffffffffffffffff16815260200191505060405180910390a1565b6000600454905090565b6000600b60008373ffffffffffffffffffffffffffffffffffffffff1673ffffffffffffffffffffffffffffffffffffffff16815260200190815260200160002060009054906101000a900460ff169050919050565b60006109fd8260086113ba90919063ffffffff16565b9050919050565b60006005544210158015610a1a57506006544211155b905090565b6000600654905090565b600760009054906101000a900460ff16151515610a4557600080fd5b610a4d61082e565b1515610a5857600080fd5b6001600760006101000a81548160ff021916908315150217905550610a7b61144e565b7f9270cc390c096600a1c17c44345a1ba689fafd99d97487b10cfccf86cf73183660405160405180910390a1565b6000600260009054906101000a900473ffffffffffffffffffffffffffffffffffffffff16905090565b6000600960009054906101000a900460ff16905090565b6000610b0082600a6113ba90919063ffffffff16565b9050919050565b610b1033611581565b565b610b1b336109e7565b1515610b2657600080fd5b610b2f816115db565b50565b610b3b336109e7565b1515610b4657600080fd5b600960009054906101000a900460ff16151515610b6257600080fd5b6001600960006101000a81548160ff0219169083151502179055507f62e78cea01bee320cd4e420270b5ea74000d11b0c9f74754ebdbfc544b05a25833604051808273ffffffffffffffffffffffffffffffffffffffff1673ffffffffffffffffffffffffffffffffffffffff16815260200191505060405180910390a1565b67016345785d8a000081565b6201518081565b6000610c0033610aea565b1515610c74576040517f08c379a00000000000000000000000000000000000000000000000000000000081526004018080602001828103825260148152602001807f6d757374206265204b594320766572696669657200000000000000000000000081525060200191505060405180910390fd5b600090505b8151811015610d6f576001600b60008484815181101515610c9657fe5b9060200190602002015173ffffffffffffffffffffffffffffffffffffffff1673ffffffffffffffffffffffffffffffffffffffff16815260200190815260200160002060006101000a81548160ff0219169083151502179055508181815181101515610cff57fe5b9060200190602002015173ffffffffffffffffffffffffffffffffffffffff163373ffffffffffffffffffffffffffffffffffffffff167f8c185685ceb03e9a8983900153554b9ec01ee854b55b319ee0563515a01bbdc760405160405180910390a38080600101915050610c79565b5050565b6000610d7e33610aea565b1515610df2576040517f08c379a00000000000000000000000000000000000000000000000000000000081526004018080602001828103825260148152602001807f6d757374206265204b594320766572696669657200000000000000000000000081525060200191505060405180910390fd5b600090505b8151811015610eed576000600b60008484815181101515610e1457fe5b9060200190602002015173ffffffffffffffffffffffffffffffffffffffff1673ffffffffffffffffffffffffffffffffffffffff16815260200190815260200160002060006101000a81548160ff0219169083151502179055508181815181101515610e7d57fe5b9060200190602002015173ffffffffffffffffffffffffffffffffffffffff163373ffffffffffffffffffffffffffffffffffffffff167f020398f502fe64d86a50ec8fc67611cfe4a6a14aeeec2f6bc0962aba5a03af5160405160405180910390a38080600101915050610df7565b5050565b6000600760009054906101000a900460ff16905090565b6000600554905090565b678ac7230489e8000081565b6000610f3862015180600c5461126490919063ffffffff16565b421015610f4957600d549050610f4f565b600e5490505b90565b6000600160009054906101000a900473ffffffffffffffffffffffffffffffffffffffff16905090565b610f868282611635565b610f8e610ad3565b151515611029576040517f08c379a00000000000000000000000000000000000000000000000000000000081526004018080602001828103825260278152602001807f63616e6e6f74207075726368617365207768656e20636f6e747261637420697381526020017f207061757365640000000000000000000000000000000000000000000000000081525060400191505060405180910390fd5b61103282610991565b15156110cc576040517f08c379a00000000000000000000000000000000000000000000000000000000081526004018080602001828103825260228152602001807f62656e6566696369617279206d757374206265204b594320617574686f72697a81526020017f656400000000000000000000000000000000000000000000000000000000000081525060400191505060405180910390fd5b6110e462015180600c5461126490919063ffffffff16565b42101561119657678ac7230489e800003410151515611191576040517f08c379a000000000000000000000000000000000000000000000000000000000815260040180806020018281038252602d8152602001807f636f6e747269627574696f6e206d7573742062652061626f7665206d696e696d81526020017f756d20617574686f72697a65640000000000000000000000000000000000000081525060400191505060405180910390fd5b61123d565b67016345785d8a0000341015151561123c576040517f08c379a000000000000000000000000000000000000000000000000000000000815260040180806020018281038252602d8152602001807f636f6e747269627574696f6e206d7573742062652061626f7665206d696e696d81526020017f756d20617574686f72697a65640000000000000000000000000000000000000081525060400191505060405180910390fd5b5b5050565b600061125d61124e610f1e565b8361165690919063ffffffff16565b9050919050565b600080828401905083811015151561127b57600080fd5b8091505092915050565b61128f8282611694565b5050565b5050565b600260009054906101000a900473ffffffffffffffffffffffffffffffffffffffff1673ffffffffffffffffffffffffffffffffffffffff166108fc349081150290604051600060405180830381858888f193505050501580156112ff573d6000803e3d6000fd5b50565b5050565b61131a81600a6116e590919063ffffffff16565b8073ffffffffffffffffffffffffffffffffffffffff167f84fda749cd5d78392088aeddee30341ef789376b68e94319eff31cb54d561ef060405160405180910390a250565b61137481600a61179490919063ffffffff16565b8073ffffffffffffffffffffffffffffffffffffffff167f5565480284cbd6151ab5813b9bd9e9b3f9e0e7d2a3a8110e0ca9b24ca819dc0160405160405180910390a250565b60008073ffffffffffffffffffffffffffffffffffffffff168273ffffffffffffffffffffffffffffffffffffffff16141515156113f757600080fd5b8260000160008373ffffffffffffffffffffffffffffffffffffffff1673ffffffffffffffffffffffffffffffffffffffff16815260200190815260200160002060009054906101000a900460ff16905092915050565b6000611458611844565b601060009054906101000a900473ffffffffffffffffffffffffffffffffffffffff1673ffffffffffffffffffffffffffffffffffffffff166370a08231306040518263ffffffff167c0100000000000000000000000000000000000000000000000000000000028152600401808273ffffffffffffffffffffffffffffffffffffffff1673ffffffffffffffffffffffffffffffffffffffff168152602001915050602060405180830381600087803b15801561151557600080fd5b505af1158015611529573d6000803e3d6000fd5b505050506040513d602081101561153f57600080fd5b8101908080519060200190929190505050905061157e600f60009054906101000a900473ffffffffffffffffffffffffffffffffffffffff1682611694565b50565b6115958160086116e590919063ffffffff16565b8073ffffffffffffffffffffffffffffffffffffffff167fcd265ebaf09df2871cc7bd4133404a235ba12eff2041bb89d9c714a2621c7c7e60405160405180910390a250565b6115ef81600861179490919063ffffffff16565b8073ffffffffffffffffffffffffffffffffffffffff167f6719d08c1888103bea251a4ed56406bd0c3e69723c8a1686e017e7bbe159b6f860405160405180910390a250565b61163d610a04565b151561164857600080fd5b6116528282611846565b5050565b600080600084141561166b576000915061168d565b828402905082848281151561167c57fe5b0414151561168957600080fd5b8091505b5092915050565b6116e18282600160009054906101000a900473ffffffffffffffffffffffffffffffffffffffff1673ffffffffffffffffffffffffffffffffffffffff166118969092919063ffffffff16565b5050565b600073ffffffffffffffffffffffffffffffffffffffff168173ffffffffffffffffffffffffffffffffffffffff161415151561172157600080fd5b61172b82826113ba565b151561173657600080fd5b60008260000160008373ffffffffffffffffffffffffffffffffffffffff1673ffffffffffffffffffffffffffffffffffffffff16815260200190815260200160002060006101000a81548160ff0219169083151502179055505050565b600073ffffffffffffffffffffffffffffffffffffffff168173ffffffffffffffffffffffffffffffffffffffff16141515156117d057600080fd5b6117da82826113ba565b1515156117e657600080fd5b60018260000160008373ffffffffffffffffffffffffffffffffffffffff1673ffffffffffffffffffffffffffffffffffffffff16815260200190815260200160002060006101000a81548160ff0219169083151502179055505050565b565b600073ffffffffffffffffffffffffffffffffffffffff168273ffffffffffffffffffffffffffffffffffffffff161415151561188257600080fd5b6000811415151561189257600080fd5b5050565b8273ffffffffffffffffffffffffffffffffffffffff1663a9059cbb83836040518363ffffffff167c0100000000000000000000000000000000000000000000000000000000028152600401808373ffffffffffffffffffffffffffffffffffffffff1673ffffffffffffffffffffffffffffffffffffffff16815260200182815260200192505050602060405180830381600087803b15801561193957600080fd5b505af115801561194d573d6000803e3d6000fd5b505050506040513d602081101561196357600080fd5b8101908080519060200190929190505050151561197f57600080fd5b5050505600a165627a7a72305820f2cc93fdef730c497ff42d438a8345c09be946a3937162ebbfedeccc0b71313e0029",
  "source": "/** @title Hey Token Sale\n *  @author Thomas Vanderstraeten - <thomas@get-hey.com>\n *  This smart contract has undertaken X audit and X bounty program.\n *  However, keep in mind that smart contracts still rely on experimental technology.\n */\n\npragma solidity ^0.4.24;\n\nimport \"openzeppelin-solidity/contracts/crowdsale/validation/TimedCrowdsale.sol\";\nimport \"openzeppelin-solidity/contracts/crowdsale/distribution/FinalizableCrowdsale.sol\";\nimport \"openzeppelin-solidity/contracts/lifecycle/Pausable.sol\";\nimport \"openzeppelin-solidity/contracts/token/ERC20/IERC20.sol\";\nimport \"openzeppelin-solidity/contracts/math/SafeMath.sol\";\nimport \"./utils/KYC.sol\";\n\n/**\n *  @title Hey Token Sale\n *  @dev The only deviations from OpenZeppelin's standard Crowdsale example\n *  is a Pausable behaviour to freeze buying of tokens, and a funneling of\n *  unsold tokens to a Pool address when the sale closes.\n *  Note that we are naming this contract 'TokenSale' to not redeclare the parent\n *  Crowdsale contract, from which Sale indirectly inherits.\n */\ncontract TokenSale is TimedCrowdsale, FinalizableCrowdsale, Pausable, KYC {\n\n    /* *** Libraries *** */\n    using SafeMath for uint256;\n\n\n    /* *** Sale Parameters *** */\n    // Constants\n    uint256 public constant FIRST_DAY_DURATION = 24 hours;             // Duration of the first sale day\n    uint256 public constant FIRST_DAY_MINIMUM_CONTRIBUTION = 10 ether; // Minimum ETH contribution for the first day\n    uint256 public constant MINIMUM_CONTRIBUTION = 0.1 ether;          // Minimum ETH contribution after the first day\n    // Initialized at contract deployment\n    uint256 private _openingTime;   // When the sale starts\n    uint256 private _firstDayRate;  // The ETH-to-Token rate for the first day\n    uint256 private _rate;          // The ETH-to-Token rate after the first day\n    address private _pool;          // The address where unsold tokens are sent at finalization\n    IERC20 private _token;          // The token which is sold\n\n\n    /* *** Public Functions *** */\n\n    /** @dev Constructor. First contract set up (tokens will also need to be transferred to the contract afterwards)\n     *  @param openingTime Time the sale will start in seconds since the Unix Epoch\n     *  @param closingTime Time the sale will close in seconds since the Unix Epoch\n     *  @param firstDayRate ETH-to-Token rate for the first day of the sale\n     *  @param rate ETH-to-Token rate after the first day of the sale\n     *  @param wallet The party which will get the funds of the token sale\n     *  @param pool The party which will get the unsold tokens at closing of the sale\n     *  @param token The ERC20 token being sold\n     */\n    constructor(\n        uint256 openingTime,\n        uint256 closingTime,\n        uint256 firstDayRate,\n        uint256 rate,\n        address wallet,\n        address pool,\n        IERC20 token\n    )\n        public\n        Crowdsale(rate, wallet, token)\n        TimedCrowdsale(openingTime, closingTime)\n    {\n        require(firstDayRate > 0, \"first day rate must be above 0\");\n        require(pool != address(0), \"pool cannot be the zero address\");\n\n        _openingTime = openingTime;\n        _firstDayRate = firstDayRate;\n        _rate = rate;\n        _pool = pool;\n        _token = token;\n    }\n\n    /** @dev Called when the sale is finalized - extension of OpenZeppelin's\n     *  standard function. We extend it to have all potentially unsold tokens\n     *  transferred to the Pool (where they will be made redeemable).\n     *  This function is called by the public finalize() function.\n     *  Note interestingly that the caller finalize() public function is callable\n     *  by anyone to avoid having the admin prevent finalization maliciously.\n     */\n    function _finalization()\n        internal\n    {\n        super._finalization();\n        uint256 remainingBalance = _token.balanceOf(address(this));\n        _deliverTokens(_pool, remainingBalance);\n    }\n\n    /** @dev Override of OpenZeppelin's standard function to reflect the\n     *  evolving ETH-to-Token rate.\n     *  @return uint256 The current number of tokens purchasable for the Wei amount\n     */\n    function getCurrentRate()\n        public\n        view\n        returns (uint256)\n    {\n        // solium-disable-next-line security/no-block-members\n        if (block.timestamp < (_openingTime.add(FIRST_DAY_DURATION))) {\n            return _firstDayRate;\n        } else {\n            return _rate;\n        }\n    }\n\n\n    /* *** Internal Functions *** */\n\n    /** @dev Called before any purchase is confirmed - extension of OpenZeppelin's\n     *  standard function to implement the Pausable, MinimumContribution and KYC\n     *  behaviours as requirements.\n     *  Note that OpenZeppelin's implementation choice has been to have this\n     *  function as a view function, although it does not have a return value.\n     *  @param beneficiary The party that wishes to receive tokens\n     *  @param weiAmount The amount sent in exchange for tokens, in Wei\n     */\n    function _preValidatePurchase(\n        address beneficiary,\n        uint256 weiAmount\n    )\n        internal\n        view\n    {\n        super._preValidatePurchase(beneficiary, weiAmount);\n        require(!paused(), \"cannot purchase when contract is paused\");\n        require(kycAuthorized(beneficiary), \"beneficiary must be KYC authorized\");\n\n        if (block.timestamp < (_openingTime.add(FIRST_DAY_DURATION))) {\n            require(msg.value >= FIRST_DAY_MINIMUM_CONTRIBUTION, \"contribution must be above minimum authorized\");\n        } else {\n            require(msg.value >= MINIMUM_CONTRIBUTION, \"contribution must be above minimum authorized\");\n        }\n    }\n\n    /** @dev Override of OpenZeppelin's standard function to reflect the\n     *  evolving ETH-to-Token rate.\n     *  @param weiAmount The amount sent in exchange for tokens, in Wei\n     *  @return uint256 The number of tokens purchasable for the Wei amount\n     */\n    function _getTokenAmount(\n        uint256 weiAmount\n    )\n        internal\n        view\n        returns (uint256)\n    {\n        // Note that the decimals of ETH and Token (both 18) cancel each other\n        return weiAmount.mul(getCurrentRate());\n    }\n}\n",
  "sourcePath": "/Users/thomasvanderstraeten/code/hey/mainchain/contracts/TokenSale.sol",
  "compiler": {
    "name": "solc",
    "version": "0.4.24+commit.e67f0147.Emscripten.clang"
  },
  "schemaVersion": "2.0.1",
  "updatedAt": "2018-11-30T13:21:18.630Z"
}