{
  "contractName": "TokenSale",
  "abi": [
    {
      "constant": true,
      "inputs": [],
      "name": "hasClosed",
      "outputs": [
        {
          "name": "",
          "type": "bool"
        }
      ],
      "payable": false,
      "stateMutability": "view",
      "type": "function"
    },
    {
      "constant": true,
      "inputs": [],
      "name": "rate",
      "outputs": [
        {
          "name": "",
          "type": "uint256"
        }
      ],
      "payable": false,
      "stateMutability": "view",
      "type": "function"
    },
    {
      "constant": false,
      "inputs": [],
      "name": "unpause",
      "outputs": [],
      "payable": false,
      "stateMutability": "nonpayable",
      "type": "function"
    },
    {
      "constant": true,
      "inputs": [],
      "name": "weiRaised",
      "outputs": [
        {
          "name": "",
          "type": "uint256"
        }
      ],
      "payable": false,
      "stateMutability": "view",
      "type": "function"
    },
    {
      "constant": true,
      "inputs": [
        {
          "name": "account",
          "type": "address"
        }
      ],
      "name": "isPauser",
      "outputs": [
        {
          "name": "",
          "type": "bool"
        }
      ],
      "payable": false,
      "stateMutability": "view",
      "type": "function"
    },
    {
      "constant": true,
      "inputs": [],
      "name": "isOpen",
      "outputs": [
        {
          "name": "",
          "type": "bool"
        }
      ],
      "payable": false,
      "stateMutability": "view",
      "type": "function"
    },
    {
      "constant": true,
      "inputs": [],
      "name": "closingTime",
      "outputs": [
        {
          "name": "",
          "type": "uint256"
        }
      ],
      "payable": false,
      "stateMutability": "view",
      "type": "function"
    },
    {
      "constant": false,
      "inputs": [],
      "name": "finalize",
      "outputs": [],
      "payable": false,
      "stateMutability": "nonpayable",
      "type": "function"
    },
    {
      "constant": true,
      "inputs": [],
      "name": "wallet",
      "outputs": [
        {
          "name": "",
          "type": "address"
        }
      ],
      "payable": false,
      "stateMutability": "view",
      "type": "function"
    },
    {
      "constant": true,
      "inputs": [],
      "name": "paused",
      "outputs": [
        {
          "name": "",
          "type": "bool"
        }
      ],
      "payable": false,
      "stateMutability": "view",
      "type": "function"
    },
    {
      "constant": false,
      "inputs": [],
      "name": "renouncePauser",
      "outputs": [],
      "payable": false,
      "stateMutability": "nonpayable",
      "type": "function"
    },
    {
      "constant": false,
      "inputs": [
        {
          "name": "account",
          "type": "address"
        }
      ],
      "name": "addPauser",
      "outputs": [],
      "payable": false,
      "stateMutability": "nonpayable",
      "type": "function"
    },
    {
      "constant": false,
      "inputs": [],
      "name": "pause",
      "outputs": [],
      "payable": false,
      "stateMutability": "nonpayable",
      "type": "function"
    },
    {
      "constant": true,
      "inputs": [],
      "name": "finalized",
      "outputs": [
        {
          "name": "",
          "type": "bool"
        }
      ],
      "payable": false,
      "stateMutability": "view",
      "type": "function"
    },
    {
      "constant": true,
      "inputs": [],
      "name": "openingTime",
      "outputs": [
        {
          "name": "",
          "type": "uint256"
        }
      ],
      "payable": false,
      "stateMutability": "view",
      "type": "function"
    },
    {
      "constant": false,
      "inputs": [
        {
          "name": "beneficiary",
          "type": "address"
        }
      ],
      "name": "buyTokens",
      "outputs": [],
      "payable": true,
      "stateMutability": "payable",
      "type": "function"
    },
    {
      "constant": true,
      "inputs": [],
      "name": "token",
      "outputs": [
        {
          "name": "",
          "type": "address"
        }
      ],
      "payable": false,
      "stateMutability": "view",
      "type": "function"
    },
    {
      "inputs": [
        {
          "name": "openingTime",
          "type": "uint256"
        },
        {
          "name": "closingTime",
          "type": "uint256"
        },
        {
          "name": "firstDayRate",
          "type": "uint256"
        },
        {
          "name": "rate",
          "type": "uint256"
        },
        {
          "name": "wallet",
          "type": "address"
        },
        {
          "name": "pool",
          "type": "address"
        },
        {
          "name": "token",
          "type": "address"
        }
      ],
      "payable": false,
      "stateMutability": "nonpayable",
      "type": "constructor"
    },
    {
      "payable": true,
      "stateMutability": "payable",
      "type": "fallback"
    },
    {
      "anonymous": false,
      "inputs": [
        {
          "indexed": false,
          "name": "account",
          "type": "address"
        }
      ],
      "name": "Paused",
      "type": "event"
    },
    {
      "anonymous": false,
      "inputs": [
        {
          "indexed": false,
          "name": "account",
          "type": "address"
        }
      ],
      "name": "Unpaused",
      "type": "event"
    },
    {
      "anonymous": false,
      "inputs": [
        {
          "indexed": true,
          "name": "account",
          "type": "address"
        }
      ],
      "name": "PauserAdded",
      "type": "event"
    },
    {
      "anonymous": false,
      "inputs": [
        {
          "indexed": true,
          "name": "account",
          "type": "address"
        }
      ],
      "name": "PauserRemoved",
      "type": "event"
    },
    {
      "anonymous": false,
      "inputs": [],
      "name": "CrowdsaleFinalized",
      "type": "event"
    },
    {
      "anonymous": false,
      "inputs": [
        {
          "indexed": true,
          "name": "purchaser",
          "type": "address"
        },
        {
          "indexed": true,
          "name": "beneficiary",
          "type": "address"
        },
        {
          "indexed": false,
          "name": "value",
          "type": "uint256"
        },
        {
          "indexed": false,
          "name": "amount",
          "type": "uint256"
        }
      ],
      "name": "TokensPurchased",
      "type": "event"
    },
    {
      "constant": true,
      "inputs": [],
      "name": "getCurrentRate",
      "outputs": [
        {
          "name": "",
          "type": "uint256"
        }
      ],
      "payable": false,
      "stateMutability": "view",
      "type": "function"
    }
  ],
  "bytecode": "0x60806040523480156200001157600080fd5b5060405160e080620015ae83398101806040528101908080519060200190929190805190602001909291908051906020019092919080519060200190929190805190602001909291908051906020019092919080519060200190929190505050868685858460016000819055506000831115156200008e57600080fd5b600073ffffffffffffffffffffffffffffffffffffffff168273ffffffffffffffffffffffffffffffffffffffff1614151515620000cb57600080fd5b600073ffffffffffffffffffffffffffffffffffffffff168173ffffffffffffffffffffffffffffffffffffffff16141515156200010857600080fd5b8260038190555081600260006101000a81548173ffffffffffffffffffffffffffffffffffffffff021916908373ffffffffffffffffffffffffffffffffffffffff16021790555080600160006101000a81548173ffffffffffffffffffffffffffffffffffffffff021916908373ffffffffffffffffffffffffffffffffffffffff160217905550505050428210151515620001a457600080fd5b8181111515620001b357600080fd5b816005819055508060068190555050506000600760006101000a81548160ff021916908315150217905550620001f833620003d6640100000000026401000000009004565b6000600960006101000a81548160ff0219169083151502179055506000851115156200028c576040517f08c379a000000000000000000000000000000000000000000000000000000000815260040180806020018281038252601e8152602001807f6669727374206461792072617465206d7573742062652061626f76652030000081525060200191505060405180910390fd5b600073ffffffffffffffffffffffffffffffffffffffff168273ffffffffffffffffffffffffffffffffffffffff161415151562000332576040517f08c379a000000000000000000000000000000000000000000000000000000000815260040180806020018281038252601f8152602001807f706f6f6c2063616e6e6f7420626520746865207a65726f20616464726573730081525060200191505060405180910390fd5b86600a8190555084600b8190555083600c8190555081600d60006101000a81548173ffffffffffffffffffffffffffffffffffffffff021916908373ffffffffffffffffffffffffffffffffffffffff16021790555080600960016101000a81548173ffffffffffffffffffffffffffffffffffffffff021916908373ffffffffffffffffffffffffffffffffffffffff1602179055505050505050505062000598565b620003fa816008620004406401000000000262000dec179091906401000000009004565b8073ffffffffffffffffffffffffffffffffffffffff167f6719d08c1888103bea251a4ed56406bd0c3e69723c8a1686e017e7bbe159b6f860405160405180910390a250565b600073ffffffffffffffffffffffffffffffffffffffff168173ffffffffffffffffffffffffffffffffffffffff16141515156200047d57600080fd5b62000498828262000503640100000000026401000000009004565b151515620004a557600080fd5b60018260000160008373ffffffffffffffffffffffffffffffffffffffff1673ffffffffffffffffffffffffffffffffffffffff16815260200190815260200160002060006101000a81548160ff0219169083151502179055505050565b60008073ffffffffffffffffffffffffffffffffffffffff168273ffffffffffffffffffffffffffffffffffffffff16141515156200054157600080fd5b8260000160008373ffffffffffffffffffffffffffffffffffffffff1673ffffffffffffffffffffffffffffffffffffffff16815260200190815260200160002060009054906101000a900460ff16905092915050565b61100680620005a86000396000f3006080604052600436106100fc576000357c0100000000000000000000000000000000000000000000000000000000900463ffffffff1680631515bc2b146101075780632c4e722e146101365780633f4ba83a146101615780634042b66f1461017857806346fbf68e146101a357806347535d7b146101fe5780634b6753bc1461022d5780634bb278f314610258578063521eb2731461026f5780635c975abb146102c65780636ef8d66d146102f557806382dc1ec41461030c5780638456cb591461034f578063b3f05b9714610366578063b7a8807c14610395578063ec8ac4d8146103c0578063f7fb07b0146103f6578063fc0c546a14610421575b61010533610478565b005b34801561011357600080fd5b5061011c61056e565b604051808215151515815260200191505060405180910390f35b34801561014257600080fd5b5061014b61057a565b6040518082815260200191505060405180910390f35b34801561016d57600080fd5b50610176610584565b005b34801561018457600080fd5b5061018d610633565b6040518082815260200191505060405180910390f35b3480156101af57600080fd5b506101e4600480360381019080803573ffffffffffffffffffffffffffffffffffffffff16906020019092919050505061063d565b604051808215151515815260200191505060405180910390f35b34801561020a57600080fd5b5061021361065a565b604051808215151515815260200191505060405180910390f35b34801561023957600080fd5b50610242610675565b6040518082815260200191505060405180910390f35b34801561026457600080fd5b5061026d61067f565b005b34801561027b57600080fd5b506102846106ff565b604051808273ffffffffffffffffffffffffffffffffffffffff1673ffffffffffffffffffffffffffffffffffffffff16815260200191505060405180910390f35b3480156102d257600080fd5b506102db610729565b604051808215151515815260200191505060405180910390f35b34801561030157600080fd5b5061030a610740565b005b34801561031857600080fd5b5061034d600480360381019080803573ffffffffffffffffffffffffffffffffffffffff16906020019092919050505061074b565b005b34801561035b57600080fd5b5061036461076b565b005b34801561037257600080fd5b5061037b61081b565b604051808215151515815260200191505060405180910390f35b3480156103a157600080fd5b506103aa610832565b6040518082815260200191505060405180910390f35b6103f4600480360381019080803573ffffffffffffffffffffffffffffffffffffffff169060200190929190505050610478565b005b34801561040257600080fd5b5061040b61083c565b6040518082815260200191505060405180910390f35b34801561042d57600080fd5b50610436610870565b604051808273ffffffffffffffffffffffffffffffffffffffff1673ffffffffffffffffffffffffffffffffffffffff16815260200191505060405180910390f35b600080600060016000808282540192505081905550600054905034925061049f848461089a565b6104a88361094b565b91506104bf8360045461096e90919063ffffffff16565b6004819055506104cf848361098f565b8373ffffffffffffffffffffffffffffffffffffffff163373ffffffffffffffffffffffffffffffffffffffff167f6faf93231a456e552dbc9961f58d9713ee4f2e69d15f1975b050ef0911053a7b8585604051808381526020018281526020019250505060405180910390a3610546848461099d565b61054e6109a1565b6105588484610a0c565b6000548114151561056857600080fd5b50505050565b60006006544211905090565b6000600354905090565b61058d3361063d565b151561059857600080fd5b600960009054906101000a900460ff1615156105b357600080fd5b6000600960006101000a81548160ff0219169083151502179055507f5db9ee0a495bf2e6ff9c91a7834c1ba4fdd244a5e8aa4e537bd38aeae4b073aa33604051808273ffffffffffffffffffffffffffffffffffffffff1673ffffffffffffffffffffffffffffffffffffffff16815260200191505060405180910390a1565b6000600454905090565b6000610653826008610a1090919063ffffffff16565b9050919050565b6000600554421015801561067057506006544211155b905090565b6000600654905090565b600760009054906101000a900460ff1615151561069b57600080fd5b6106a361056e565b15156106ae57600080fd5b6001600760006101000a81548160ff0219169083151502179055506106d1610aa4565b7f9270cc390c096600a1c17c44345a1ba689fafd99d97487b10cfccf86cf73183660405160405180910390a1565b6000600260009054906101000a900473ffffffffffffffffffffffffffffffffffffffff16905090565b6000600960009054906101000a900460ff16905090565b61074933610bd7565b565b6107543361063d565b151561075f57600080fd5b61076881610c31565b50565b6107743361063d565b151561077f57600080fd5b600960009054906101000a900460ff1615151561079b57600080fd5b6001600960006101000a81548160ff0219169083151502179055507f62e78cea01bee320cd4e420270b5ea74000d11b0c9f74754ebdbfc544b05a25833604051808273ffffffffffffffffffffffffffffffffffffffff1673ffffffffffffffffffffffffffffffffffffffff16815260200191505060405180910390a1565b6000600760009054906101000a900460ff16905090565b6000600554905090565b600061085662015180600a5461096e90919063ffffffff16565b42101561086757600b54905061086d565b600c5490505b90565b6000600160009054906101000a900473ffffffffffffffffffffffffffffffffffffffff16905090565b6108a48282610c8b565b6108ac610729565b151515610947576040517f08c379a00000000000000000000000000000000000000000000000000000000081526004018080602001828103825260278152602001807f63616e6e6f74207075726368617365207768656e20636f6e747261637420697381526020017f207061757365640000000000000000000000000000000000000000000000000081525060400191505060405180910390fd5b5050565b600061096761095861083c565b83610cac90919063ffffffff16565b9050919050565b600080828401905083811015151561098557600080fd5b8091505092915050565b6109998282610cea565b5050565b5050565b600260009054906101000a900473ffffffffffffffffffffffffffffffffffffffff1673ffffffffffffffffffffffffffffffffffffffff166108fc349081150290604051600060405180830381858888f19350505050158015610a09573d6000803e3d6000fd5b50565b5050565b60008073ffffffffffffffffffffffffffffffffffffffff168273ffffffffffffffffffffffffffffffffffffffff1614151515610a4d57600080fd5b8260000160008373ffffffffffffffffffffffffffffffffffffffff1673ffffffffffffffffffffffffffffffffffffffff16815260200190815260200160002060009054906101000a900460ff16905092915050565b6000610aae610d3b565b600960019054906101000a900473ffffffffffffffffffffffffffffffffffffffff1673ffffffffffffffffffffffffffffffffffffffff166370a08231306040518263ffffffff167c0100000000000000000000000000000000000000000000000000000000028152600401808273ffffffffffffffffffffffffffffffffffffffff1673ffffffffffffffffffffffffffffffffffffffff168152602001915050602060405180830381600087803b158015610b6b57600080fd5b505af1158015610b7f573d6000803e3d6000fd5b505050506040513d6020811015610b9557600080fd5b81019080805190602001909291905050509050610bd4600d60009054906101000a900473ffffffffffffffffffffffffffffffffffffffff1682610cea565b50565b610beb816008610d3d90919063ffffffff16565b8073ffffffffffffffffffffffffffffffffffffffff167fcd265ebaf09df2871cc7bd4133404a235ba12eff2041bb89d9c714a2621c7c7e60405160405180910390a250565b610c45816008610dec90919063ffffffff16565b8073ffffffffffffffffffffffffffffffffffffffff167f6719d08c1888103bea251a4ed56406bd0c3e69723c8a1686e017e7bbe159b6f860405160405180910390a250565b610c9361065a565b1515610c9e57600080fd5b610ca88282610e9c565b5050565b6000806000841415610cc15760009150610ce3565b8284029050828482811515610cd257fe5b04141515610cdf57600080fd5b8091505b5092915050565b610d378282600160009054906101000a900473ffffffffffffffffffffffffffffffffffffffff1673ffffffffffffffffffffffffffffffffffffffff16610eec9092919063ffffffff16565b5050565b565b600073ffffffffffffffffffffffffffffffffffffffff168173ffffffffffffffffffffffffffffffffffffffff1614151515610d7957600080fd5b610d838282610a10565b1515610d8e57600080fd5b60008260000160008373ffffffffffffffffffffffffffffffffffffffff1673ffffffffffffffffffffffffffffffffffffffff16815260200190815260200160002060006101000a81548160ff0219169083151502179055505050565b600073ffffffffffffffffffffffffffffffffffffffff168173ffffffffffffffffffffffffffffffffffffffff1614151515610e2857600080fd5b610e328282610a10565b151515610e3e57600080fd5b60018260000160008373ffffffffffffffffffffffffffffffffffffffff1673ffffffffffffffffffffffffffffffffffffffff16815260200190815260200160002060006101000a81548160ff0219169083151502179055505050565b600073ffffffffffffffffffffffffffffffffffffffff168273ffffffffffffffffffffffffffffffffffffffff1614151515610ed857600080fd5b60008114151515610ee857600080fd5b5050565b8273ffffffffffffffffffffffffffffffffffffffff1663a9059cbb83836040518363ffffffff167c0100000000000000000000000000000000000000000000000000000000028152600401808373ffffffffffffffffffffffffffffffffffffffff1673ffffffffffffffffffffffffffffffffffffffff16815260200182815260200192505050602060405180830381600087803b158015610f8f57600080fd5b505af1158015610fa3573d6000803e3d6000fd5b505050506040513d6020811015610fb957600080fd5b81019080805190602001909291905050501515610fd557600080fd5b5050505600a165627a7a7230582088ba223db2c5ec07241192b5484056c2890afe0481191b1081b0cc278b0414440029",
  "source": "pragma solidity ^0.4.24;\n\nimport \"openzeppelin-solidity/contracts/crowdsale/validation/TimedCrowdsale.sol\";\nimport \"openzeppelin-solidity/contracts/crowdsale/distribution/FinalizableCrowdsale.sol\";\nimport \"openzeppelin-solidity/contracts/lifecycle/Pausable.sol\";\nimport \"openzeppelin-solidity/contracts/token/ERC20/IERC20.sol\";\nimport \"openzeppelin-solidity/contracts/math/SafeMath.sol\";\n\n/**\n* @title Hey Crowdsale\n* @dev The only deviations from OpenZeppelin's standard Crowdsale example\n* is a Pausable behaviour to freeze buying of tokens, and a funneling of\n* unsold tokens to a Pool address when the sale closes.\n* Note that we are naming this contract 'TokenSale' to not redeclare the parent\n* Crowdsale contract, from which Sale indirectly inherits.\n*/\ncontract TokenSale is TimedCrowdsale, FinalizableCrowdsale, Pausable {\n\n    // Needed to compute current rate\n    using SafeMath for uint256;\n\n    // The token being sold\n    IERC20 private _token;\n\n    // Needed to compute current rate\n    uint256 private _openingTime;\n\n    // Evolving rates\n    uint256 private _firstDayRate;\n    uint256 private _rate;\n\n    // Address where potentially unsold funds are sent at finalization\n    address private _pool;\n\n    constructor(\n        uint256 openingTime,\n        uint256 closingTime,\n        uint256 firstDayRate,\n        uint256 rate,\n        address wallet,\n        address pool,\n        IERC20 token\n    )\n        public\n        Crowdsale(rate, wallet, token)\n        TimedCrowdsale(openingTime, closingTime)\n    {\n        require(firstDayRate > 0, \"first day rate must be above 0\");\n        require(pool != address(0), \"pool cannot be the zero address\");\n\n        _openingTime = openingTime;\n        _firstDayRate = firstDayRate;\n        _rate = rate;\n        _pool = pool;\n        _token = token;\n    }\n\n    // Note that the default rate() function remains available as it is inherited\n    // from the Crowdsale contract.\n    function getCurrentRate()\n        public\n        view\n        returns (uint256)\n    {\n        // solium-disable-next-line security/no-block-members\n        if (block.timestamp < (_openingTime.add(24 hours))) {\n            return _firstDayRate;\n        } else {\n            return _rate;\n        }\n    }\n\n    // INTERNAL FUNCTIONS\n\n    // Extension of parent function to add Pausable behaviour.\n    function _preValidatePurchase(\n        address beneficiary,\n        uint256 weiAmount\n    )\n        internal\n        view\n    {\n        super._preValidatePurchase(beneficiary, weiAmount);\n        require(!paused(), \"cannot purchase when contract is paused\");\n    }\n\n    // Override of parent function to reflect non-constant rate.\n    function _getTokenAmount(\n        uint256 weiAmount\n    )\n        internal\n        view\n        returns (uint256)\n    {\n        return weiAmount.mul(getCurrentRate());\n    }\n\n    // Extension of parent function. We extend it to have all remaining tokens\n    // transferred to the Pool where they will be made redeemable.\n    // This function is called by the public finalize() function. Note interestingly\n    // that the finalize() public function is callable by anyone to avoid having\n    // the admin prevent finalization maliciously.\n    function _finalization()\n        internal\n    {\n        super._finalization();\n        uint256 remainingBalance = _token.balanceOf(address(this));\n        _deliverTokens(_pool, remainingBalance);\n    }\n}\n",
  "sourcePath": "/Users/thomasvanderstraeten/code/hey/mainchain/contracts/TokenSale.sol",
  "compiler": {
    "name": "solc",
    "version": "0.4.24+commit.e67f0147.Emscripten.clang"
  },
  "schemaVersion": "2.0.1",
  "updatedAt": "2018-11-02T09:56:33.069Z"
}