{
  "contractName": "TokenSale",
  "abi": [
    {
      "constant": true,
      "inputs": [],
      "name": "hasClosed",
      "outputs": [
        {
          "name": "",
          "type": "bool"
        }
      ],
      "payable": false,
      "stateMutability": "view",
      "type": "function"
    },
    {
      "constant": false,
      "inputs": [],
      "name": "renounceKYCVerifier",
      "outputs": [],
      "payable": false,
      "stateMutability": "nonpayable",
      "type": "function"
    },
    {
      "constant": true,
      "inputs": [],
      "name": "rate",
      "outputs": [
        {
          "name": "",
          "type": "uint256"
        }
      ],
      "payable": false,
      "stateMutability": "view",
      "type": "function"
    },
    {
      "constant": false,
      "inputs": [
        {
          "name": "account",
          "type": "address"
        }
      ],
      "name": "addKYCVerifier",
      "outputs": [],
      "payable": false,
      "stateMutability": "nonpayable",
      "type": "function"
    },
    {
      "constant": false,
      "inputs": [],
      "name": "unpause",
      "outputs": [],
      "payable": false,
      "stateMutability": "nonpayable",
      "type": "function"
    },
    {
      "constant": true,
      "inputs": [],
      "name": "weiRaised",
      "outputs": [
        {
          "name": "",
          "type": "uint256"
        }
      ],
      "payable": false,
      "stateMutability": "view",
      "type": "function"
    },
    {
      "constant": true,
      "inputs": [
        {
          "name": "account",
          "type": "address"
        }
      ],
      "name": "kycAuthorized",
      "outputs": [
        {
          "name": "",
          "type": "bool"
        }
      ],
      "payable": false,
      "stateMutability": "view",
      "type": "function"
    },
    {
      "constant": true,
      "inputs": [
        {
          "name": "account",
          "type": "address"
        }
      ],
      "name": "isPauser",
      "outputs": [
        {
          "name": "",
          "type": "bool"
        }
      ],
      "payable": false,
      "stateMutability": "view",
      "type": "function"
    },
    {
      "constant": true,
      "inputs": [],
      "name": "isOpen",
      "outputs": [
        {
          "name": "",
          "type": "bool"
        }
      ],
      "payable": false,
      "stateMutability": "view",
      "type": "function"
    },
    {
      "constant": true,
      "inputs": [],
      "name": "closingTime",
      "outputs": [
        {
          "name": "",
          "type": "uint256"
        }
      ],
      "payable": false,
      "stateMutability": "view",
      "type": "function"
    },
    {
      "constant": false,
      "inputs": [],
      "name": "finalize",
      "outputs": [],
      "payable": false,
      "stateMutability": "nonpayable",
      "type": "function"
    },
    {
      "constant": true,
      "inputs": [],
      "name": "wallet",
      "outputs": [
        {
          "name": "",
          "type": "address"
        }
      ],
      "payable": false,
      "stateMutability": "view",
      "type": "function"
    },
    {
      "constant": true,
      "inputs": [],
      "name": "paused",
      "outputs": [
        {
          "name": "",
          "type": "bool"
        }
      ],
      "payable": false,
      "stateMutability": "view",
      "type": "function"
    },
    {
      "constant": true,
      "inputs": [
        {
          "name": "account",
          "type": "address"
        }
      ],
      "name": "isKYCVerifier",
      "outputs": [
        {
          "name": "",
          "type": "bool"
        }
      ],
      "payable": false,
      "stateMutability": "view",
      "type": "function"
    },
    {
      "constant": false,
      "inputs": [],
      "name": "renouncePauser",
      "outputs": [],
      "payable": false,
      "stateMutability": "nonpayable",
      "type": "function"
    },
    {
      "constant": false,
      "inputs": [
        {
          "name": "account",
          "type": "address"
        }
      ],
      "name": "addPauser",
      "outputs": [],
      "payable": false,
      "stateMutability": "nonpayable",
      "type": "function"
    },
    {
      "constant": false,
      "inputs": [],
      "name": "pause",
      "outputs": [],
      "payable": false,
      "stateMutability": "nonpayable",
      "type": "function"
    },
    {
      "constant": true,
      "inputs": [],
      "name": "MINIMUM_CONTRIBUTION",
      "outputs": [
        {
          "name": "",
          "type": "uint256"
        }
      ],
      "payable": false,
      "stateMutability": "view",
      "type": "function"
    },
    {
      "constant": true,
      "inputs": [],
      "name": "FIRST_DAY_DURATION",
      "outputs": [
        {
          "name": "",
          "type": "uint256"
        }
      ],
      "payable": false,
      "stateMutability": "view",
      "type": "function"
    },
    {
      "constant": false,
      "inputs": [
        {
          "name": "accounts",
          "type": "address[]"
        }
      ],
      "name": "grantKYCAuthorizations",
      "outputs": [],
      "payable": false,
      "stateMutability": "nonpayable",
      "type": "function"
    },
    {
      "constant": false,
      "inputs": [
        {
          "name": "accounts",
          "type": "address[]"
        }
      ],
      "name": "revertKYCAuthorizations",
      "outputs": [],
      "payable": false,
      "stateMutability": "nonpayable",
      "type": "function"
    },
    {
      "constant": true,
      "inputs": [],
      "name": "finalized",
      "outputs": [
        {
          "name": "",
          "type": "bool"
        }
      ],
      "payable": false,
      "stateMutability": "view",
      "type": "function"
    },
    {
      "constant": true,
      "inputs": [],
      "name": "openingTime",
      "outputs": [
        {
          "name": "",
          "type": "uint256"
        }
      ],
      "payable": false,
      "stateMutability": "view",
      "type": "function"
    },
    {
      "constant": false,
      "inputs": [
        {
          "name": "beneficiary",
          "type": "address"
        }
      ],
      "name": "buyTokens",
      "outputs": [],
      "payable": true,
      "stateMutability": "payable",
      "type": "function"
    },
    {
      "constant": true,
      "inputs": [],
      "name": "token",
      "outputs": [
        {
          "name": "",
          "type": "address"
        }
      ],
      "payable": false,
      "stateMutability": "view",
      "type": "function"
    },
    {
      "inputs": [
        {
          "name": "openingTime",
          "type": "uint256"
        },
        {
          "name": "closingTime",
          "type": "uint256"
        },
        {
          "name": "firstDayRate",
          "type": "uint256"
        },
        {
          "name": "rate",
          "type": "uint256"
        },
        {
          "name": "wallet",
          "type": "address"
        },
        {
          "name": "pool",
          "type": "address"
        },
        {
          "name": "token",
          "type": "address"
        }
      ],
      "payable": false,
      "stateMutability": "nonpayable",
      "type": "constructor"
    },
    {
      "payable": true,
      "stateMutability": "payable",
      "type": "fallback"
    },
    {
      "anonymous": false,
      "inputs": [
        {
          "indexed": true,
          "name": "by",
          "type": "address"
        },
        {
          "indexed": true,
          "name": "account",
          "type": "address"
        }
      ],
      "name": "KYCAuthorizationGranted",
      "type": "event"
    },
    {
      "anonymous": false,
      "inputs": [
        {
          "indexed": true,
          "name": "by",
          "type": "address"
        },
        {
          "indexed": true,
          "name": "account",
          "type": "address"
        }
      ],
      "name": "KYCAuthorizationReverted",
      "type": "event"
    },
    {
      "anonymous": false,
      "inputs": [
        {
          "indexed": true,
          "name": "account",
          "type": "address"
        }
      ],
      "name": "KYCVerifierAdded",
      "type": "event"
    },
    {
      "anonymous": false,
      "inputs": [
        {
          "indexed": true,
          "name": "account",
          "type": "address"
        }
      ],
      "name": "KYCVerifierRemoved",
      "type": "event"
    },
    {
      "anonymous": false,
      "inputs": [
        {
          "indexed": false,
          "name": "account",
          "type": "address"
        }
      ],
      "name": "Paused",
      "type": "event"
    },
    {
      "anonymous": false,
      "inputs": [
        {
          "indexed": false,
          "name": "account",
          "type": "address"
        }
      ],
      "name": "Unpaused",
      "type": "event"
    },
    {
      "anonymous": false,
      "inputs": [
        {
          "indexed": true,
          "name": "account",
          "type": "address"
        }
      ],
      "name": "PauserAdded",
      "type": "event"
    },
    {
      "anonymous": false,
      "inputs": [
        {
          "indexed": true,
          "name": "account",
          "type": "address"
        }
      ],
      "name": "PauserRemoved",
      "type": "event"
    },
    {
      "anonymous": false,
      "inputs": [],
      "name": "CrowdsaleFinalized",
      "type": "event"
    },
    {
      "anonymous": false,
      "inputs": [
        {
          "indexed": true,
          "name": "purchaser",
          "type": "address"
        },
        {
          "indexed": true,
          "name": "beneficiary",
          "type": "address"
        },
        {
          "indexed": false,
          "name": "value",
          "type": "uint256"
        },
        {
          "indexed": false,
          "name": "amount",
          "type": "uint256"
        }
      ],
      "name": "TokensPurchased",
      "type": "event"
    },
    {
      "constant": true,
      "inputs": [],
      "name": "getCurrentRate",
      "outputs": [
        {
          "name": "",
          "type": "uint256"
        }
      ],
      "payable": false,
      "stateMutability": "view",
      "type": "function"
    }
  ],
  "bytecode": "0x60806040523480156200001157600080fd5b5060405160e08062001ecf83398101806040528101908080519060200190929190805190602001909291908051906020019092919080519060200190929190805190602001909291908051906020019092919080519060200190929190505050868685858460016000819055506000831115156200008e57600080fd5b600073ffffffffffffffffffffffffffffffffffffffff168273ffffffffffffffffffffffffffffffffffffffff1614151515620000cb57600080fd5b600073ffffffffffffffffffffffffffffffffffffffff168173ffffffffffffffffffffffffffffffffffffffff16141515156200010857600080fd5b8260038190555081600260006101000a81548173ffffffffffffffffffffffffffffffffffffffff021916908373ffffffffffffffffffffffffffffffffffffffff16021790555080600160006101000a81548173ffffffffffffffffffffffffffffffffffffffff021916908373ffffffffffffffffffffffffffffffffffffffff160217905550505050428210151515620001a457600080fd5b8181111515620001b357600080fd5b816005819055508060068190555050506000600760006101000a81548160ff021916908315150217905550620001f833620003f0640100000000026401000000009004565b6000600960006101000a81548160ff0219169083151502179055506200022d336200045a640100000000026401000000009004565b600085111515620002a6576040517f08c379a000000000000000000000000000000000000000000000000000000000815260040180806020018281038252601e8152602001807f6669727374206461792072617465206d7573742062652061626f76652030000081525060200191505060405180910390fd5b600073ffffffffffffffffffffffffffffffffffffffff168273ffffffffffffffffffffffffffffffffffffffff16141515156200034c576040517f08c379a000000000000000000000000000000000000000000000000000000000815260040180806020018281038252601f8152602001807f706f6f6c2063616e6e6f7420626520746865207a65726f20616464726573730081525060200191505060405180910390fd5b86600c8190555084600d8190555083600e8190555081600f60006101000a81548173ffffffffffffffffffffffffffffffffffffffff021916908373ffffffffffffffffffffffffffffffffffffffff16021790555080601060006101000a81548173ffffffffffffffffffffffffffffffffffffffff021916908373ffffffffffffffffffffffffffffffffffffffff160217905550505050505050506200061c565b62000414816008620004c46401000000000262001687179091906401000000009004565b8073ffffffffffffffffffffffffffffffffffffffff167f6719d08c1888103bea251a4ed56406bd0c3e69723c8a1686e017e7bbe159b6f860405160405180910390a250565b6200047e81600a620004c46401000000000262001687179091906401000000009004565b8073ffffffffffffffffffffffffffffffffffffffff167f5565480284cbd6151ab5813b9bd9e9b3f9e0e7d2a3a8110e0ca9b24ca819dc0160405160405180910390a250565b600073ffffffffffffffffffffffffffffffffffffffff168173ffffffffffffffffffffffffffffffffffffffff16141515156200050157600080fd5b6200051c828262000587640100000000026401000000009004565b1515156200052957600080fd5b60018260000160008373ffffffffffffffffffffffffffffffffffffffff1673ffffffffffffffffffffffffffffffffffffffff16815260200190815260200160002060006101000a81548160ff0219169083151502179055505050565b60008073ffffffffffffffffffffffffffffffffffffffff168273ffffffffffffffffffffffffffffffffffffffff1614151515620005c557600080fd5b8260000160008373ffffffffffffffffffffffffffffffffffffffff1673ffffffffffffffffffffffffffffffffffffffff16815260200190815260200160002060009054906101000a900460ff16905092915050565b6118a3806200062c6000396000f300608060405260043610610154576000357c0100000000000000000000000000000000000000000000000000000000900463ffffffff1680631515bc2b1461015f57806318e6010f1461018e5780632c4e722e146101a557806334ce5d2d146101d05780633f4ba83a146102135780634042b66f1461022a57806342a14d1f1461025557806346fbf68e146102b057806347535d7b1461030b5780634b6753bc1461033a5780634bb278f314610365578063521eb2731461037c5780635c975abb146103d3578063696eee51146104025780636ef8d66d1461045d57806382dc1ec4146104745780638456cb59146104b75780638d0bba03146104ce578063923f7ce2146104f9578063b3449bbc14610524578063b3b5e6ea1461058a578063b3f05b97146105f0578063b7a8807c1461061f578063ec8ac4d81461064a578063f7fb07b014610680578063fc0c546a146106ab575b61015d33610702565b005b34801561016b57600080fd5b506101746107f8565b604051808215151515815260200191505060405180910390f35b34801561019a57600080fd5b506101a3610804565b005b3480156101b157600080fd5b506101ba61080f565b6040518082815260200191505060405180910390f35b3480156101dc57600080fd5b50610211600480360381019080803573ffffffffffffffffffffffffffffffffffffffff169060200190929190505050610819565b005b34801561021f57600080fd5b506102286108a2565b005b34801561023657600080fd5b5061023f610951565b6040518082815260200191505060405180910390f35b34801561026157600080fd5b50610296600480360381019080803573ffffffffffffffffffffffffffffffffffffffff16906020019092919050505061095b565b604051808215151515815260200191505060405180910390f35b3480156102bc57600080fd5b506102f1600480360381019080803573ffffffffffffffffffffffffffffffffffffffff1690602001909291905050506109b1565b604051808215151515815260200191505060405180910390f35b34801561031757600080fd5b506103206109ce565b604051808215151515815260200191505060405180910390f35b34801561034657600080fd5b5061034f6109e9565b6040518082815260200191505060405180910390f35b34801561037157600080fd5b5061037a6109f3565b005b34801561038857600080fd5b50610391610a73565b604051808273ffffffffffffffffffffffffffffffffffffffff1673ffffffffffffffffffffffffffffffffffffffff16815260200191505060405180910390f35b3480156103df57600080fd5b506103e8610a9d565b604051808215151515815260200191505060405180910390f35b34801561040e57600080fd5b50610443600480360381019080803573ffffffffffffffffffffffffffffffffffffffff169060200190929190505050610ab4565b604051808215151515815260200191505060405180910390f35b34801561046957600080fd5b50610472610ad1565b005b34801561048057600080fd5b506104b5600480360381019080803573ffffffffffffffffffffffffffffffffffffffff169060200190929190505050610adc565b005b3480156104c357600080fd5b506104cc610afc565b005b3480156104da57600080fd5b506104e3610bac565b6040518082815260200191505060405180910390f35b34801561050557600080fd5b5061050e610bb8565b6040518082815260200191505060405180910390f35b34801561053057600080fd5b5061058860048036038101908080359060200190820180359060200190808060200260200160405190810160405280939291908181526020018383602002808284378201915050505050509192919290505050610bbf565b005b34801561059657600080fd5b506105ee60048036038101908080359060200190820180359060200190808060200260200160405190810160405280939291908181526020018383602002808284378201915050505050509192919290505050610d3d565b005b3480156105fc57600080fd5b50610605610ebb565b604051808215151515815260200191505060405180910390f35b34801561062b57600080fd5b50610634610ed2565b6040518082815260200191505060405180910390f35b61067e600480360381019080803573ffffffffffffffffffffffffffffffffffffffff169060200190929190505050610702565b005b34801561068c57600080fd5b50610695610edc565b6040518082815260200191505060405180910390f35b3480156106b757600080fd5b506106c0610f10565b604051808273ffffffffffffffffffffffffffffffffffffffff1673ffffffffffffffffffffffffffffffffffffffff16815260200191505060405180910390f35b60008060006001600080828254019250508190555060005490503492506107298484610f3a565b61073283611134565b91506107498360045461115790919063ffffffff16565b6004819055506107598483611178565b8373ffffffffffffffffffffffffffffffffffffffff163373ffffffffffffffffffffffffffffffffffffffff167f6faf93231a456e552dbc9961f58d9713ee4f2e69d15f1975b050ef0911053a7b8585604051808381526020018281526020019250505060405180910390a36107d08484611186565b6107d861118a565b6107e284846111f5565b600054811415156107f257600080fd5b50505050565b60006006544211905090565b61080d336111f9565b565b6000600354905090565b61082233610ab4565b1515610896576040517f08c379a00000000000000000000000000000000000000000000000000000000081526004018080602001828103825260148152602001807f6d757374206265204b594320766572696669657200000000000000000000000081525060200191505060405180910390fd5b61089f81611253565b50565b6108ab336109b1565b15156108b657600080fd5b600960009054906101000a900460ff1615156108d157600080fd5b6000600960006101000a81548160ff0219169083151502179055507f5db9ee0a495bf2e6ff9c91a7834c1ba4fdd244a5e8aa4e537bd38aeae4b073aa33604051808273ffffffffffffffffffffffffffffffffffffffff1673ffffffffffffffffffffffffffffffffffffffff16815260200191505060405180910390a1565b6000600454905090565b6000600b60008373ffffffffffffffffffffffffffffffffffffffff1673ffffffffffffffffffffffffffffffffffffffff16815260200190815260200160002060009054906101000a900460ff169050919050565b60006109c78260086112ad90919063ffffffff16565b9050919050565b600060055442101580156109e457506006544211155b905090565b6000600654905090565b600760009054906101000a900460ff16151515610a0f57600080fd5b610a176107f8565b1515610a2257600080fd5b6001600760006101000a81548160ff021916908315150217905550610a45611341565b7f9270cc390c096600a1c17c44345a1ba689fafd99d97487b10cfccf86cf73183660405160405180910390a1565b6000600260009054906101000a900473ffffffffffffffffffffffffffffffffffffffff16905090565b6000600960009054906101000a900460ff16905090565b6000610aca82600a6112ad90919063ffffffff16565b9050919050565b610ada33611474565b565b610ae5336109b1565b1515610af057600080fd5b610af9816114ce565b50565b610b05336109b1565b1515610b1057600080fd5b600960009054906101000a900460ff16151515610b2c57600080fd5b6001600960006101000a81548160ff0219169083151502179055507f62e78cea01bee320cd4e420270b5ea74000d11b0c9f74754ebdbfc544b05a25833604051808273ffffffffffffffffffffffffffffffffffffffff1673ffffffffffffffffffffffffffffffffffffffff16815260200191505060405180910390a1565b67016345785d8a000081565b6201518081565b6000610bca33610ab4565b1515610c3e576040517f08c379a00000000000000000000000000000000000000000000000000000000081526004018080602001828103825260148152602001807f6d757374206265204b594320766572696669657200000000000000000000000081525060200191505060405180910390fd5b600090505b8151811015610d39576001600b60008484815181101515610c6057fe5b9060200190602002015173ffffffffffffffffffffffffffffffffffffffff1673ffffffffffffffffffffffffffffffffffffffff16815260200190815260200160002060006101000a81548160ff0219169083151502179055508181815181101515610cc957fe5b9060200190602002015173ffffffffffffffffffffffffffffffffffffffff163373ffffffffffffffffffffffffffffffffffffffff167f8c185685ceb03e9a8983900153554b9ec01ee854b55b319ee0563515a01bbdc760405160405180910390a38080600101915050610c43565b5050565b6000610d4833610ab4565b1515610dbc576040517f08c379a00000000000000000000000000000000000000000000000000000000081526004018080602001828103825260148152602001807f6d757374206265204b594320766572696669657200000000000000000000000081525060200191505060405180910390fd5b600090505b8151811015610eb7576000600b60008484815181101515610dde57fe5b9060200190602002015173ffffffffffffffffffffffffffffffffffffffff1673ffffffffffffffffffffffffffffffffffffffff16815260200190815260200160002060006101000a81548160ff0219169083151502179055508181815181101515610e4757fe5b9060200190602002015173ffffffffffffffffffffffffffffffffffffffff163373ffffffffffffffffffffffffffffffffffffffff167f020398f502fe64d86a50ec8fc67611cfe4a6a14aeeec2f6bc0962aba5a03af5160405160405180910390a38080600101915050610dc1565b5050565b6000600760009054906101000a900460ff16905090565b6000600554905090565b6000610ef662015180600c5461115790919063ffffffff16565b421015610f0757600d549050610f0d565b600e5490505b90565b6000600160009054906101000a900473ffffffffffffffffffffffffffffffffffffffff16905090565b610f448282611528565b610f4c610a9d565b151515610fe7576040517f08c379a00000000000000000000000000000000000000000000000000000000081526004018080602001828103825260278152602001807f63616e6e6f74207075726368617365207768656e20636f6e747261637420697381526020017f207061757365640000000000000000000000000000000000000000000000000081525060400191505060405180910390fd5b67016345785d8a0000341015151561108d576040517f08c379a000000000000000000000000000000000000000000000000000000000815260040180806020018281038252602c8152602001807f636f6e747269627574696f6e206d7573742062652061626f7665206d696e697581526020017f6d20617574686f72697a6564000000000000000000000000000000000000000081525060400191505060405180910390fd5b6110968261095b565b1515611130576040517f08c379a00000000000000000000000000000000000000000000000000000000081526004018080602001828103825260228152602001807f62656e6566696369617279206d757374206265204b594320617574686f72697a81526020017f656400000000000000000000000000000000000000000000000000000000000081525060400191505060405180910390fd5b5050565b6000611150611141610edc565b8361154990919063ffffffff16565b9050919050565b600080828401905083811015151561116e57600080fd5b8091505092915050565b6111828282611587565b5050565b5050565b600260009054906101000a900473ffffffffffffffffffffffffffffffffffffffff1673ffffffffffffffffffffffffffffffffffffffff166108fc349081150290604051600060405180830381858888f193505050501580156111f2573d6000803e3d6000fd5b50565b5050565b61120d81600a6115d890919063ffffffff16565b8073ffffffffffffffffffffffffffffffffffffffff167f84fda749cd5d78392088aeddee30341ef789376b68e94319eff31cb54d561ef060405160405180910390a250565b61126781600a61168790919063ffffffff16565b8073ffffffffffffffffffffffffffffffffffffffff167f5565480284cbd6151ab5813b9bd9e9b3f9e0e7d2a3a8110e0ca9b24ca819dc0160405160405180910390a250565b60008073ffffffffffffffffffffffffffffffffffffffff168273ffffffffffffffffffffffffffffffffffffffff16141515156112ea57600080fd5b8260000160008373ffffffffffffffffffffffffffffffffffffffff1673ffffffffffffffffffffffffffffffffffffffff16815260200190815260200160002060009054906101000a900460ff16905092915050565b600061134b611737565b601060009054906101000a900473ffffffffffffffffffffffffffffffffffffffff1673ffffffffffffffffffffffffffffffffffffffff166370a08231306040518263ffffffff167c0100000000000000000000000000000000000000000000000000000000028152600401808273ffffffffffffffffffffffffffffffffffffffff1673ffffffffffffffffffffffffffffffffffffffff168152602001915050602060405180830381600087803b15801561140857600080fd5b505af115801561141c573d6000803e3d6000fd5b505050506040513d602081101561143257600080fd5b81019080805190602001909291905050509050611471600f60009054906101000a900473ffffffffffffffffffffffffffffffffffffffff1682611587565b50565b6114888160086115d890919063ffffffff16565b8073ffffffffffffffffffffffffffffffffffffffff167fcd265ebaf09df2871cc7bd4133404a235ba12eff2041bb89d9c714a2621c7c7e60405160405180910390a250565b6114e281600861168790919063ffffffff16565b8073ffffffffffffffffffffffffffffffffffffffff167f6719d08c1888103bea251a4ed56406bd0c3e69723c8a1686e017e7bbe159b6f860405160405180910390a250565b6115306109ce565b151561153b57600080fd5b6115458282611739565b5050565b600080600084141561155e5760009150611580565b828402905082848281151561156f57fe5b0414151561157c57600080fd5b8091505b5092915050565b6115d48282600160009054906101000a900473ffffffffffffffffffffffffffffffffffffffff1673ffffffffffffffffffffffffffffffffffffffff166117899092919063ffffffff16565b5050565b600073ffffffffffffffffffffffffffffffffffffffff168173ffffffffffffffffffffffffffffffffffffffff161415151561161457600080fd5b61161e82826112ad565b151561162957600080fd5b60008260000160008373ffffffffffffffffffffffffffffffffffffffff1673ffffffffffffffffffffffffffffffffffffffff16815260200190815260200160002060006101000a81548160ff0219169083151502179055505050565b600073ffffffffffffffffffffffffffffffffffffffff168173ffffffffffffffffffffffffffffffffffffffff16141515156116c357600080fd5b6116cd82826112ad565b1515156116d957600080fd5b60018260000160008373ffffffffffffffffffffffffffffffffffffffff1673ffffffffffffffffffffffffffffffffffffffff16815260200190815260200160002060006101000a81548160ff0219169083151502179055505050565b565b600073ffffffffffffffffffffffffffffffffffffffff168273ffffffffffffffffffffffffffffffffffffffff161415151561177557600080fd5b6000811415151561178557600080fd5b5050565b8273ffffffffffffffffffffffffffffffffffffffff1663a9059cbb83836040518363ffffffff167c0100000000000000000000000000000000000000000000000000000000028152600401808373ffffffffffffffffffffffffffffffffffffffff1673ffffffffffffffffffffffffffffffffffffffff16815260200182815260200192505050602060405180830381600087803b15801561182c57600080fd5b505af1158015611840573d6000803e3d6000fd5b505050506040513d602081101561185657600080fd5b8101908080519060200190929190505050151561187257600080fd5b5050505600a165627a7a72305820a2fd34cc4ccb03101e6e166c874d848cb2931fc56aea43be95371f6e4783feca0029",
  "source": "/** @title Hey Token Sale\n *  @author Thomas Vanderstraeten - <thomas@get-hey.com>\n *  This smart contract has undertaken X audit and X bounty program.\n *  However, keep in mind that smart contracts still rely on experimental technology.\n */\n\npragma solidity ^0.4.24;\n\nimport \"openzeppelin-solidity/contracts/crowdsale/validation/TimedCrowdsale.sol\";\nimport \"openzeppelin-solidity/contracts/crowdsale/distribution/FinalizableCrowdsale.sol\";\nimport \"openzeppelin-solidity/contracts/lifecycle/Pausable.sol\";\nimport \"openzeppelin-solidity/contracts/token/ERC20/IERC20.sol\";\nimport \"openzeppelin-solidity/contracts/math/SafeMath.sol\";\nimport \"./utils/KYC.sol\";\n\n/**\n *  @title Hey Token Sale\n *  @dev The only deviations from OpenZeppelin's standard Crowdsale example\n *  is a Pausable behaviour to freeze buying of tokens, and a funneling of\n *  unsold tokens to a Pool address when the sale closes.\n *  Note that we are naming this contract 'TokenSale' to not redeclare the parent\n *  Crowdsale contract, from which Sale indirectly inherits.\n */\ncontract TokenSale is TimedCrowdsale, FinalizableCrowdsale, Pausable, KYC {\n\n    /* *** Libraries *** */\n    using SafeMath for uint256;\n\n\n    /* *** Sale Parameters *** */\n    // Constants\n    uint256 public constant MINIMUM_CONTRIBUTION = 0.1 ether; // Minimum contribution\n    uint256 public constant FIRST_DAY_DURATION = 24 hours;    // Duration of the first sale day\n    // Initialized at contract deployment\n    uint256 private _openingTime;   // When the sale starts\n    uint256 private _firstDayRate;  // The ETH-to-Token rate for the first day\n    uint256 private _rate;          // The ETH-to-Token rate after the first day\n    address private _pool;          // The address where unsold tokens are sent at finalization\n    IERC20 private _token;          // The token which is sold\n\n\n    /* *** Public Functions *** */\n\n    /** @dev Constructor. First contract set up (tokens will also need to be transferred to the contract afterwards)\n     *  @param openingTime Time the sale will start in seconds since the Unix Epoch\n     *  @param closingTime Time the sale will close in seconds since the Unix Epoch\n     *  @param firstDayRate ETH-to-Token rate for the first day of the sale\n     *  @param rate ETH-to-Token rate after the first day of the sale\n     *  @param wallet The party which will get the funds of the token sale\n     *  @param pool The party which will get the unsold tokens at closing of the sale\n     *  @param token The ERC20 token being sold\n     */\n    constructor(\n        uint256 openingTime,\n        uint256 closingTime,\n        uint256 firstDayRate,\n        uint256 rate,\n        address wallet,\n        address pool,\n        IERC20 token\n    )\n        public\n        Crowdsale(rate, wallet, token)\n        TimedCrowdsale(openingTime, closingTime)\n    {\n        require(firstDayRate > 0, \"first day rate must be above 0\");\n        require(pool != address(0), \"pool cannot be the zero address\");\n\n        _openingTime = openingTime;\n        _firstDayRate = firstDayRate;\n        _rate = rate;\n        _pool = pool;\n        _token = token;\n    }\n\n    /** @dev Called when the sale is finalized - extension of OpenZeppelin's\n     *  standard function. We extend it to have all potentially unsold tokens\n     *  transferred to the Pool (where they will be made redeemable).\n     *  This function is called by the public finalize() function.\n     *  Note interestingly that the caller finalize() public function is callable\n     *  by anyone to avoid having the admin prevent finalization maliciously.\n     */\n    function _finalization()\n        internal\n    {\n        super._finalization();\n        uint256 remainingBalance = _token.balanceOf(address(this));\n        _deliverTokens(_pool, remainingBalance);\n    }\n\n    /** @dev Override of OpenZeppelin's standard function to reflect the\n     *  evolving ETH-to-Token rate.\n     *  @return uint256 The current number of tokens purchasable for the Wei amount\n     */\n    function getCurrentRate()\n        public\n        view\n        returns (uint256)\n    {\n        // solium-disable-next-line security/no-block-members\n        if (block.timestamp < (_openingTime.add(FIRST_DAY_DURATION))) {\n            return _firstDayRate;\n        } else {\n            return _rate;\n        }\n    }\n\n\n    /* *** Internal Functions *** */\n\n    /** @dev Called before any purchase is confirmed - extension of OpenZeppelin's\n     *  standard function to implement the Pausable, MinimumContribution and KYC\n     *  behaviours as requirements.\n     *  Note that OpenZeppelin's implementation choice has been to have this\n     *  function as a view function, although it does not have a return value.\n     *  @param beneficiary The party that wishes to receive tokens\n     *  @param weiAmount The amount sent in exchange for tokens, in Wei\n     */\n    function _preValidatePurchase(\n        address beneficiary,\n        uint256 weiAmount\n    )\n        internal\n        view\n    {\n        super._preValidatePurchase(beneficiary, weiAmount);\n        require(!paused(), \"cannot purchase when contract is paused\");\n        require(msg.value >= MINIMUM_CONTRIBUTION, \"contribution must be above minium authorized\");\n        require(kycAuthorized(beneficiary), \"beneficiary must be KYC authorized\");\n    }\n\n    /** @dev Override of OpenZeppelin's standard function to reflect the\n     *  evolving ETH-to-Token rate.\n     *  @param weiAmount The amount sent in exchange for tokens, in Wei\n     *  @return uint256 The number of tokens purchasable for the Wei amount\n     */\n    function _getTokenAmount(\n        uint256 weiAmount\n    )\n        internal\n        view\n        returns (uint256)\n    {\n        // Note that the decimals of ETH and Token (both 18) cancel each other\n        return weiAmount.mul(getCurrentRate());\n    }\n}\n",
  "sourcePath": "/Users/thomasvanderstraeten/code/hey/mainchain/contracts/TokenSale.sol",
  "compiler": {
    "name": "solc",
    "version": "0.4.24+commit.e67f0147.Emscripten.clang"
  },
  "schemaVersion": "2.0.1",
  "updatedAt": "2018-11-22T16:21:38.047Z"
}