{
  "contractName": "VestingTrustee",
  "abi": [
    {
      "constant": false,
      "inputs": [],
      "name": "renounceOwnership",
      "outputs": [],
      "payable": false,
      "stateMutability": "nonpayable",
      "type": "function"
    },
    {
      "constant": true,
      "inputs": [],
      "name": "totalVesting",
      "outputs": [
        {
          "name": "",
          "type": "uint256"
        }
      ],
      "payable": false,
      "stateMutability": "view",
      "type": "function"
    },
    {
      "constant": true,
      "inputs": [],
      "name": "owner",
      "outputs": [
        {
          "name": "",
          "type": "address"
        }
      ],
      "payable": false,
      "stateMutability": "view",
      "type": "function"
    },
    {
      "constant": true,
      "inputs": [],
      "name": "isOwner",
      "outputs": [
        {
          "name": "",
          "type": "bool"
        }
      ],
      "payable": false,
      "stateMutability": "view",
      "type": "function"
    },
    {
      "constant": true,
      "inputs": [
        {
          "name": "",
          "type": "address"
        }
      ],
      "name": "grants",
      "outputs": [
        {
          "name": "value",
          "type": "uint256"
        },
        {
          "name": "start",
          "type": "uint256"
        },
        {
          "name": "cliff",
          "type": "uint256"
        },
        {
          "name": "end",
          "type": "uint256"
        },
        {
          "name": "transferred",
          "type": "uint256"
        },
        {
          "name": "revokable",
          "type": "bool"
        }
      ],
      "payable": false,
      "stateMutability": "view",
      "type": "function"
    },
    {
      "constant": false,
      "inputs": [
        {
          "name": "newOwner",
          "type": "address"
        }
      ],
      "name": "transferOwnership",
      "outputs": [],
      "payable": false,
      "stateMutability": "nonpayable",
      "type": "function"
    },
    {
      "constant": true,
      "inputs": [],
      "name": "token",
      "outputs": [
        {
          "name": "",
          "type": "address"
        }
      ],
      "payable": false,
      "stateMutability": "view",
      "type": "function"
    },
    {
      "inputs": [
        {
          "name": "_token",
          "type": "address"
        }
      ],
      "payable": false,
      "stateMutability": "nonpayable",
      "type": "constructor"
    },
    {
      "anonymous": false,
      "inputs": [
        {
          "indexed": true,
          "name": "_from",
          "type": "address"
        },
        {
          "indexed": true,
          "name": "_to",
          "type": "address"
        },
        {
          "indexed": false,
          "name": "_value",
          "type": "uint256"
        }
      ],
      "name": "NewGrant",
      "type": "event"
    },
    {
      "anonymous": false,
      "inputs": [
        {
          "indexed": true,
          "name": "_holder",
          "type": "address"
        },
        {
          "indexed": false,
          "name": "_value",
          "type": "uint256"
        }
      ],
      "name": "UnlockGrant",
      "type": "event"
    },
    {
      "anonymous": false,
      "inputs": [
        {
          "indexed": true,
          "name": "_holder",
          "type": "address"
        },
        {
          "indexed": false,
          "name": "_refund",
          "type": "uint256"
        }
      ],
      "name": "RevokeGrant",
      "type": "event"
    },
    {
      "anonymous": false,
      "inputs": [
        {
          "indexed": true,
          "name": "previousOwner",
          "type": "address"
        },
        {
          "indexed": true,
          "name": "newOwner",
          "type": "address"
        }
      ],
      "name": "OwnershipTransferred",
      "type": "event"
    },
    {
      "constant": false,
      "inputs": [
        {
          "name": "_to",
          "type": "address"
        },
        {
          "name": "_value",
          "type": "uint256"
        },
        {
          "name": "_start",
          "type": "uint256"
        },
        {
          "name": "_cliff",
          "type": "uint256"
        },
        {
          "name": "_end",
          "type": "uint256"
        },
        {
          "name": "_revokable",
          "type": "bool"
        }
      ],
      "name": "createGrant",
      "outputs": [],
      "payable": false,
      "stateMutability": "nonpayable",
      "type": "function"
    },
    {
      "constant": false,
      "inputs": [
        {
          "name": "_holder",
          "type": "address"
        }
      ],
      "name": "revoke",
      "outputs": [],
      "payable": false,
      "stateMutability": "nonpayable",
      "type": "function"
    },
    {
      "constant": true,
      "inputs": [
        {
          "name": "_holder",
          "type": "address"
        },
        {
          "name": "_time",
          "type": "uint256"
        }
      ],
      "name": "vestedTokens",
      "outputs": [
        {
          "name": "",
          "type": "uint256"
        }
      ],
      "payable": false,
      "stateMutability": "view",
      "type": "function"
    },
    {
      "constant": false,
      "inputs": [],
      "name": "unlockVestedTokens",
      "outputs": [],
      "payable": false,
      "stateMutability": "nonpayable",
      "type": "function"
    }
  ],
  "bytecode": "0x608060405234801561001057600080fd5b5060405160208061128383398101806040528101908080519060200190929190505050336000806101000a81548173ffffffffffffffffffffffffffffffffffffffff021916908373ffffffffffffffffffffffffffffffffffffffff1602179055506000809054906101000a900473ffffffffffffffffffffffffffffffffffffffff1673ffffffffffffffffffffffffffffffffffffffff16600073ffffffffffffffffffffffffffffffffffffffff167f8be0079c531659141344cd1fd0a4f28419497f9722a3daafe3b4186f6b6457e060405160405180910390a3600073ffffffffffffffffffffffffffffffffffffffff168173ffffffffffffffffffffffffffffffffffffffff161415151561012b57600080fd5b80600160006101000a81548173ffffffffffffffffffffffffffffffffffffffff021916908373ffffffffffffffffffffffffffffffffffffffff160217905550506111078061017c6000396000f3006080604052600436106100af576000357c0100000000000000000000000000000000000000000000000000000000900463ffffffff1680631a64adae146100b4578063715018a61461011557806374a8f1031461012c5780637c17357d1461016f57806383fcf9731461019a5780638da5cb5b146101b15780638f32d59b14610208578063b869cea314610237578063f2fde38b146102b5578063fbd05ce5146102f8578063fc0c546a1461036f575b600080fd5b3480156100c057600080fd5b506100ff600480360381019080803573ffffffffffffffffffffffffffffffffffffffff169060200190929190803590602001909291905050506103c6565b6040518082815260200191505060405180910390f35b34801561012157600080fd5b5061012a61048d565b005b34801561013857600080fd5b5061016d600480360381019080803573ffffffffffffffffffffffffffffffffffffffff16906020019092919050505061055f565b005b34801561017b57600080fd5b506101846107dd565b6040518082815260200191505060405180910390f35b3480156101a657600080fd5b506101af6107e3565b005b3480156101bd57600080fd5b506101c6610a66565b604051808273ffffffffffffffffffffffffffffffffffffffff1673ffffffffffffffffffffffffffffffffffffffff16815260200191505060405180910390f35b34801561021457600080fd5b5061021d610a8f565b604051808215151515815260200191505060405180910390f35b34801561024357600080fd5b50610278600480360381019080803573ffffffffffffffffffffffffffffffffffffffff169060200190929190505050610ae6565b6040518087815260200186815260200185815260200184815260200183815260200182151515158152602001965050505050505060405180910390f35b3480156102c157600080fd5b506102f6600480360381019080803573ffffffffffffffffffffffffffffffffffffffff169060200190929190505050610b2f565b005b34801561030457600080fd5b5061036d600480360381019080803573ffffffffffffffffffffffffffffffffffffffff16906020019092919080359060200190929190803590602001909291908035906020019092919080359060200190929190803515159060200190929190505050610b4e565b005b34801561037b57600080fd5b50610384610e7f565b604051808273ffffffffffffffffffffffffffffffffffffffff1673ffffffffffffffffffffffffffffffffffffffff16815260200191505060405180910390f35b600080600260008573ffffffffffffffffffffffffffffffffffffffff1673ffffffffffffffffffffffffffffffffffffffff16815260200190815260200160002090506000816000015414156104205760009150610486565b6104838160c0604051908101604052908160008201548152602001600182015481526020016002820154815260200160038201548152602001600482015481526020016005820160009054906101000a900460ff16151515158152505084610ea5565b91505b5092915050565b610495610a8f565b15156104a057600080fd5b600073ffffffffffffffffffffffffffffffffffffffff166000809054906101000a900473ffffffffffffffffffffffffffffffffffffffff1673ffffffffffffffffffffffffffffffffffffffff167f8be0079c531659141344cd1fd0a4f28419497f9722a3daafe3b4186f6b6457e060405160405180910390a360008060006101000a81548173ffffffffffffffffffffffffffffffffffffffff021916908373ffffffffffffffffffffffffffffffffffffffff160217905550565b60008061056a610a8f565b151561057557600080fd5b600260008473ffffffffffffffffffffffffffffffffffffffff1673ffffffffffffffffffffffffffffffffffffffff16815260200190815260200160002091508160050160009054906101000a900460ff1615156105d357600080fd5b6105ee82600401548360000154610f3790919063ffffffff16565b9050600260008473ffffffffffffffffffffffffffffffffffffffff1673ffffffffffffffffffffffffffffffffffffffff16815260200190815260200160002060008082016000905560018201600090556002820160009055600382016000905560048201600090556005820160006101000a81549060ff0219169055505061068381600354610f3790919063ffffffff16565b600381905550600160009054906101000a900473ffffffffffffffffffffffffffffffffffffffff1673ffffffffffffffffffffffffffffffffffffffff1663a9059cbb33836040518363ffffffff167c0100000000000000000000000000000000000000000000000000000000028152600401808373ffffffffffffffffffffffffffffffffffffffff1673ffffffffffffffffffffffffffffffffffffffff16815260200182815260200192505050602060405180830381600087803b15801561074e57600080fd5b505af1158015610762573d6000803e3d6000fd5b505050506040513d602081101561077857600080fd5b8101908080519060200190929190505050508273ffffffffffffffffffffffffffffffffffffffff167fe25d8515ad21a65f901eaac99e62ae923aa01c8eb5812dce069abd9ea2785b57826040518082815260200191505060405180910390a2505050565b60035481565b6000806000600260003373ffffffffffffffffffffffffffffffffffffffff1673ffffffffffffffffffffffffffffffffffffffff1681526020019081526020016000209250600083600001541415151561083d57600080fd5b6108a08360c0604051908101604052908160008201548152602001600182015481526020016002820154815260200160038201548152602001600482015481526020016005820160009054906101000a900460ff16151515158152505042610ea5565b915060008214156108b057610a61565b6108c7836004015483610f3790919063ffffffff16565b905060008114156108d757610a61565b6108ee818460040154610f5890919063ffffffff16565b836004018190555061090b81600354610f3790919063ffffffff16565b600381905550600160009054906101000a900473ffffffffffffffffffffffffffffffffffffffff1673ffffffffffffffffffffffffffffffffffffffff1663a9059cbb33836040518363ffffffff167c0100000000000000000000000000000000000000000000000000000000028152600401808373ffffffffffffffffffffffffffffffffffffffff1673ffffffffffffffffffffffffffffffffffffffff16815260200182815260200192505050602060405180830381600087803b1580156109d657600080fd5b505af11580156109ea573d6000803e3d6000fd5b505050506040513d6020811015610a0057600080fd5b8101908080519060200190929190505050503373ffffffffffffffffffffffffffffffffffffffff167f18a0e773189b1ed3c86000a786f0a897168a9b8b2a805c482c91e69ca25e4b3c826040518082815260200191505060405180910390a25b505050565b60008060009054906101000a900473ffffffffffffffffffffffffffffffffffffffff16905090565b60008060009054906101000a900473ffffffffffffffffffffffffffffffffffffffff1673ffffffffffffffffffffffffffffffffffffffff163373ffffffffffffffffffffffffffffffffffffffff1614905090565b60026020528060005260406000206000915090508060000154908060010154908060020154908060030154908060040154908060050160009054906101000a900460ff16905086565b610b37610a8f565b1515610b4257600080fd5b610b4b81610f79565b50565b610b56610a8f565b1515610b6157600080fd5b600073ffffffffffffffffffffffffffffffffffffffff168673ffffffffffffffffffffffffffffffffffffffff1614151515610b9d57600080fd5b600085111515610bac57600080fd5b6000600260008873ffffffffffffffffffffffffffffffffffffffff1673ffffffffffffffffffffffffffffffffffffffff16815260200190815260200160002060000154141515610bfd57600080fd5b828411158015610c0d5750818311155b1515610c1857600080fd5b600160009054906101000a900473ffffffffffffffffffffffffffffffffffffffff1673ffffffffffffffffffffffffffffffffffffffff166370a08231306040518263ffffffff167c0100000000000000000000000000000000000000000000000000000000028152600401808273ffffffffffffffffffffffffffffffffffffffff1673ffffffffffffffffffffffffffffffffffffffff168152602001915050602060405180830381600087803b158015610cd557600080fd5b505af1158015610ce9573d6000803e3d6000fd5b505050506040513d6020811015610cff57600080fd5b8101908080519060200190929190505050610d2586600354610f5890919063ffffffff16565b11151515610d3257600080fd5b60c06040519081016040528086815260200185815260200184815260200183815260200160008152602001821515815250600260008873ffffffffffffffffffffffffffffffffffffffff1673ffffffffffffffffffffffffffffffffffffffff168152602001908152602001600020600082015181600001556020820151816001015560408201518160020155606082015181600301556080820151816004015560a08201518160050160006101000a81548160ff021916908315150217905550905050610e0c85600354610f5890919063ffffffff16565b6003819055508573ffffffffffffffffffffffffffffffffffffffff163373ffffffffffffffffffffffffffffffffffffffff167ffabf00c3717e5e33d6fcc433d4d70ef919a4101fb7d5c444fe349927034eaa45876040518082815260200191505060405180910390a3505050505050565b600160009054906101000a900473ffffffffffffffffffffffffffffffffffffffff1681565b60008260400151821015610ebc5760009050610f31565b826060015182101515610ed55782600001519050610f31565b610f2e610ef384602001518560600151610f3790919063ffffffff16565b610f20610f0d866020015186610f3790919063ffffffff16565b866000015161107390919063ffffffff16565b6110b190919063ffffffff16565b90505b92915050565b600080838311151515610f4957600080fd5b82840390508091505092915050565b6000808284019050838110151515610f6f57600080fd5b8091505092915050565b600073ffffffffffffffffffffffffffffffffffffffff168173ffffffffffffffffffffffffffffffffffffffff1614151515610fb557600080fd5b8073ffffffffffffffffffffffffffffffffffffffff166000809054906101000a900473ffffffffffffffffffffffffffffffffffffffff1673ffffffffffffffffffffffffffffffffffffffff167f8be0079c531659141344cd1fd0a4f28419497f9722a3daafe3b4186f6b6457e060405160405180910390a3806000806101000a81548173ffffffffffffffffffffffffffffffffffffffff021916908373ffffffffffffffffffffffffffffffffffffffff16021790555050565b600080600084141561108857600091506110aa565b828402905082848281151561109957fe5b041415156110a657600080fd5b8091505b5092915050565b6000806000831115156110c357600080fd5b82848115156110ce57fe5b04905080915050929150505600a165627a7a72305820991291a3be354270e5a92e9efefdd9a15a73bf8f2fb2b244e48fa8f5ae926a2b0029",
  "source": "pragma solidity ^0.4.24;\n\nimport \"openzeppelin-solidity/contracts/token/ERC20/IERC20.sol\";\nimport \"openzeppelin-solidity/contracts/ownership/Ownable.sol\";\nimport \"openzeppelin-solidity/contracts/math/SafeMath.sol\";\n\n/**\n * @title VestingTrustee\n * @dev Lends very heavily from SirinLab and Stox's own VestingTrustee contracts\n */\ncontract VestingTrustee is Ownable {\n    using SafeMath for uint256;\n\n    // The address of the ERC20 token to vest.\n    IERC20 public token;\n\n    struct Grant {\n        uint256 value;\n        uint256 start;\n        uint256 cliff;\n        uint256 end;\n        uint256 transferred;\n        bool revokable;\n    }\n\n    // Grants holder.\n    mapping (address => Grant) public grants;\n\n    // Total tokens available for vesting.\n    uint256 public totalVesting;\n\n    event NewGrant(address indexed _from, address indexed _to, uint256 _value);\n    event UnlockGrant(address indexed _holder, uint256 _value);\n    event RevokeGrant(address indexed _holder, uint256 _refund);\n\n    /// @dev Constructor that initializes the address of the ERC20 contract.\n    /// @param _token IERC20 The address of the previously deployed ERC20 smart contract.\n    constructor(\n        IERC20 _token\n    )\n        public\n    {\n        require(_token != address(0));\n\n        token = _token;\n    }\n\n    /// @dev Grant tokens to a specified address.\n    /// @param _to address The address to grant tokens to.\n    /// @param _value uint256 The amount of tokens to be granted.\n    /// @param _start uint256 The beginning of the vesting period.\n    /// @param _cliff uint256 Duration of the cliff period.\n    /// @param _end uint256 The end of the vesting period.\n    /// @param _revokable bool Whether the grant is revokable or not.\n    function createGrant(\n        address _to,\n        uint256 _value,\n        uint256 _start,\n        uint256 _cliff,\n        uint256 _end,\n        bool _revokable\n    )\n        public\n        onlyOwner\n    {\n        require(_to != address(0));\n        require(_value > 0);\n\n        // Make sure that a single address can be granted tokens only once.\n        require(grants[_to].value == 0);\n\n        // Check for date inconsistencies that may cause unexpected behavior.\n        require(_start <= _cliff && _cliff <= _end);\n\n        // Check that this grant doesn't exceed the total amount of tokens currently available for vesting.\n        require(totalVesting.add(_value) <= token.balanceOf(address(this)));\n\n        // Assign a new grant.\n        grants[_to] = Grant({\n            value: _value,\n            start: _start,\n            cliff: _cliff,\n            end: _end,\n            transferred: 0,\n            revokable: _revokable\n        });\n\n        // Tokens granted, increase the total amount vested.\n        totalVesting = totalVesting.add(_value);\n\n        emit NewGrant(msg.sender, _to, _value);\n    }\n\n    /// @dev Revoke the grant of tokens of a specifed address.\n    /// @param _holder The address which will have its tokens revoked.\n    function revoke(\n        address _holder\n    )\n        public\n        onlyOwner\n    {\n        Grant storage grant = grants[_holder];\n\n        require(grant.revokable);\n\n        // Send the remaining ERC20 back to the owner.\n        uint256 refund = grant.value.sub(grant.transferred);\n\n        // Remove the grant.\n        delete grants[_holder];\n\n        totalVesting = totalVesting.sub(refund);\n        token.transfer(msg.sender, refund);\n\n        emit RevokeGrant(_holder, refund);\n    }\n\n    /// @dev Calculate the total amount of vested tokens of a holder at a given time.\n    /// @param _holder address The address of the holder.\n    /// @param _time uint256 The specific time.\n    /// @return a uint256 representing a holder's total amount of vested tokens.\n    function vestedTokens(\n        address _holder,\n        uint256 _time\n    )\n        public\n        view\n        returns (uint256)\n    {\n        Grant storage grant = grants[_holder];\n        if (grant.value == 0) {\n            return 0;\n        }\n\n        return calculateVestedTokens(grant, _time);\n    }\n\n    /// @dev Calculate amount of vested tokens at a specifc time.\n    /// @param _grant Grant The vesting grant.\n    /// @param _time uint256 The time to be checked\n    /// @return An uint256 representing the amount of vested tokens of a specific grant.\n    ///   |                         _/--------   vestedTokens rect\n    ///   |                       _/\n    ///   |                     _/\n    ///   |                   _/\n    ///   |                 _/\n    ///   |                /\n    ///   |              .|\n    ///   |            .  |\n    ///   |          .    |\n    ///   |        .      |\n    ///   |      .        |\n    ///   |    .          |\n    ///   +===+===========+---------+----------> time\n    ///     Start       Cliff      End\n    function calculateVestedTokens(\n        Grant _grant,\n        uint256 _time\n    )\n        private\n        pure\n        returns (uint256)\n    {\n        // If we're before the cliff, then nothing is vested.\n        if (_time < _grant.cliff) {\n            return 0;\n        }\n\n        // If we're after the end of the vesting period - everything is vested;\n        if (_time >= _grant.end) {\n            return _grant.value;\n        }\n\n        // Interpolate all vested tokens: vestedTokens = tokens/// (time - start) / (end - start)\n        return _grant.value.mul(_time.sub(_grant.start)).div(_grant.end.sub(_grant.start));\n    }\n\n    /// @dev Unlock vested tokens and transfer them to their holder.\n    /// @return a uint256 representing the amount of vested tokens transferred to their holder.\n    function unlockVestedTokens()\n        public\n    {\n        Grant storage grant = grants[msg.sender];\n        require(grant.value != 0);\n\n        // Get the total amount of vested tokens, acccording to grant.\n        uint256 vested = calculateVestedTokens(grant, now);\n        if (vested == 0) {\n            return;\n        }\n\n        // Make sure the holder doesn't transfer more than what he already has.\n        uint256 transferable = vested.sub(grant.transferred);\n        if (transferable == 0) {\n            return;\n        }\n\n        grant.transferred = grant.transferred.add(transferable);\n        totalVesting = totalVesting.sub(transferable);\n        token.transfer(msg.sender, transferable);\n\n        emit UnlockGrant(msg.sender, transferable);\n    }\n}\n",
  "sourcePath": "/Users/thomasvanderstraeten/code/hey/mainchain/contracts/VestingTrustee.sol",
  "compiler": {
    "name": "solc",
    "version": "0.4.24+commit.e67f0147.Emscripten.clang"
  },
  "schemaVersion": "2.0.1",
  "updatedAt": "2018-11-01T14:28:59.633Z"
}