{
  "contractName": "VestingTrustee",
  "abi": [
    {
      "constant": false,
      "inputs": [],
      "name": "renounceOwnership",
      "outputs": [],
      "payable": false,
      "stateMutability": "nonpayable",
      "type": "function"
    },
    {
      "constant": true,
      "inputs": [],
      "name": "totalVesting",
      "outputs": [
        {
          "name": "",
          "type": "uint256"
        }
      ],
      "payable": false,
      "stateMutability": "view",
      "type": "function"
    },
    {
      "constant": true,
      "inputs": [],
      "name": "owner",
      "outputs": [
        {
          "name": "",
          "type": "address"
        }
      ],
      "payable": false,
      "stateMutability": "view",
      "type": "function"
    },
    {
      "constant": true,
      "inputs": [
        {
          "name": "",
          "type": "address"
        }
      ],
      "name": "grants",
      "outputs": [
        {
          "name": "value",
          "type": "uint256"
        },
        {
          "name": "start",
          "type": "uint256"
        },
        {
          "name": "cliff",
          "type": "uint256"
        },
        {
          "name": "end",
          "type": "uint256"
        },
        {
          "name": "transferred",
          "type": "uint256"
        },
        {
          "name": "revokable",
          "type": "bool"
        }
      ],
      "payable": false,
      "stateMutability": "view",
      "type": "function"
    },
    {
      "constant": false,
      "inputs": [
        {
          "name": "newOwner",
          "type": "address"
        }
      ],
      "name": "transferOwnership",
      "outputs": [],
      "payable": false,
      "stateMutability": "nonpayable",
      "type": "function"
    },
    {
      "constant": true,
      "inputs": [],
      "name": "token",
      "outputs": [
        {
          "name": "",
          "type": "address"
        }
      ],
      "payable": false,
      "stateMutability": "view",
      "type": "function"
    },
    {
      "inputs": [
        {
          "name": "_token",
          "type": "address"
        }
      ],
      "payable": false,
      "stateMutability": "nonpayable",
      "type": "constructor"
    },
    {
      "anonymous": false,
      "inputs": [
        {
          "indexed": true,
          "name": "_from",
          "type": "address"
        },
        {
          "indexed": true,
          "name": "_to",
          "type": "address"
        },
        {
          "indexed": false,
          "name": "_value",
          "type": "uint256"
        }
      ],
      "name": "NewGrant",
      "type": "event"
    },
    {
      "anonymous": false,
      "inputs": [
        {
          "indexed": true,
          "name": "_holder",
          "type": "address"
        },
        {
          "indexed": false,
          "name": "_value",
          "type": "uint256"
        }
      ],
      "name": "UnlockGrant",
      "type": "event"
    },
    {
      "anonymous": false,
      "inputs": [
        {
          "indexed": true,
          "name": "_holder",
          "type": "address"
        },
        {
          "indexed": false,
          "name": "_refund",
          "type": "uint256"
        }
      ],
      "name": "RevokeGrant",
      "type": "event"
    },
    {
      "anonymous": false,
      "inputs": [
        {
          "indexed": true,
          "name": "previousOwner",
          "type": "address"
        }
      ],
      "name": "OwnershipRenounced",
      "type": "event"
    },
    {
      "anonymous": false,
      "inputs": [
        {
          "indexed": true,
          "name": "previousOwner",
          "type": "address"
        },
        {
          "indexed": true,
          "name": "newOwner",
          "type": "address"
        }
      ],
      "name": "OwnershipTransferred",
      "type": "event"
    },
    {
      "constant": false,
      "inputs": [
        {
          "name": "_to",
          "type": "address"
        },
        {
          "name": "_value",
          "type": "uint256"
        },
        {
          "name": "_start",
          "type": "uint256"
        },
        {
          "name": "_cliff",
          "type": "uint256"
        },
        {
          "name": "_end",
          "type": "uint256"
        },
        {
          "name": "_revokable",
          "type": "bool"
        }
      ],
      "name": "createGrant",
      "outputs": [],
      "payable": false,
      "stateMutability": "nonpayable",
      "type": "function"
    },
    {
      "constant": false,
      "inputs": [
        {
          "name": "_holder",
          "type": "address"
        }
      ],
      "name": "revoke",
      "outputs": [],
      "payable": false,
      "stateMutability": "nonpayable",
      "type": "function"
    },
    {
      "constant": true,
      "inputs": [
        {
          "name": "_holder",
          "type": "address"
        },
        {
          "name": "_time",
          "type": "uint256"
        }
      ],
      "name": "vestedTokens",
      "outputs": [
        {
          "name": "",
          "type": "uint256"
        }
      ],
      "payable": false,
      "stateMutability": "view",
      "type": "function"
    },
    {
      "constant": false,
      "inputs": [],
      "name": "unlockVestedTokens",
      "outputs": [],
      "payable": false,
      "stateMutability": "nonpayable",
      "type": "function"
    }
  ],
  "bytecode": "0x608060405234801561001057600080fd5b5060405160208061126e83398101806040528101908080519060200190929190505050336000806101000a81548173ffffffffffffffffffffffffffffffffffffffff021916908373ffffffffffffffffffffffffffffffffffffffff160217905550600073ffffffffffffffffffffffffffffffffffffffff168173ffffffffffffffffffffffffffffffffffffffff16141515156100af57600080fd5b80600160006101000a81548173ffffffffffffffffffffffffffffffffffffffff021916908373ffffffffffffffffffffffffffffffffffffffff1602179055505061116e806101006000396000f3006080604052600436106100a4576000357c0100000000000000000000000000000000000000000000000000000000900463ffffffff1680631a64adae146100a9578063715018a61461010a57806374a8f103146101215780637c17357d1461016457806383fcf9731461018f5780638da5cb5b146101a6578063b869cea3146101fd578063f2fde38b1461027b578063fbd05ce5146102be578063fc0c546a14610335575b600080fd5b3480156100b557600080fd5b506100f4600480360381019080803573ffffffffffffffffffffffffffffffffffffffff1690602001909291908035906020019092919050505061038c565b6040518082815260200191505060405180910390f35b34801561011657600080fd5b5061011f610453565b005b34801561012d57600080fd5b50610162600480360381019080803573ffffffffffffffffffffffffffffffffffffffff169060200190929190505050610555565b005b34801561017057600080fd5b5061017961081b565b6040518082815260200191505060405180910390f35b34801561019b57600080fd5b506101a4610821565b005b3480156101b257600080fd5b506101bb610aa4565b604051808273ffffffffffffffffffffffffffffffffffffffff1673ffffffffffffffffffffffffffffffffffffffff16815260200191505060405180910390f35b34801561020957600080fd5b5061023e600480360381019080803573ffffffffffffffffffffffffffffffffffffffff169060200190929190505050610ac9565b6040518087815260200186815260200185815260200184815260200183815260200182151515158152602001965050505050505060405180910390f35b34801561028757600080fd5b506102bc600480360381019080803573ffffffffffffffffffffffffffffffffffffffff169060200190929190505050610b12565b005b3480156102ca57600080fd5b50610333600480360381019080803573ffffffffffffffffffffffffffffffffffffffff16906020019092919080359060200190929190803590602001909291908035906020019092919080359060200190929190803515159060200190929190505050610c67565b005b34801561034157600080fd5b5061034a610fe0565b604051808273ffffffffffffffffffffffffffffffffffffffff1673ffffffffffffffffffffffffffffffffffffffff16815260200191505060405180910390f35b600080600260008573ffffffffffffffffffffffffffffffffffffffff1673ffffffffffffffffffffffffffffffffffffffff16815260200190815260200160002090506000816000015414156103e6576000915061044c565b6104498160c0604051908101604052908160008201548152602001600182015481526020016002820154815260200160038201548152602001600482015481526020016005820160009054906101000a900460ff16151515158152505084611006565b91505b5092915050565b6000809054906101000a900473ffffffffffffffffffffffffffffffffffffffff1673ffffffffffffffffffffffffffffffffffffffff163373ffffffffffffffffffffffffffffffffffffffff161415156104ae57600080fd5b6000809054906101000a900473ffffffffffffffffffffffffffffffffffffffff1673ffffffffffffffffffffffffffffffffffffffff167ff8df31144d9c2f0f6b59d69b8b98abd5459d07f2742c4df920b25aae33c6482060405160405180910390a260008060006101000a81548173ffffffffffffffffffffffffffffffffffffffff021916908373ffffffffffffffffffffffffffffffffffffffff160217905550565b6000806000809054906101000a900473ffffffffffffffffffffffffffffffffffffffff1673ffffffffffffffffffffffffffffffffffffffff163373ffffffffffffffffffffffffffffffffffffffff161415156105b357600080fd5b600260008473ffffffffffffffffffffffffffffffffffffffff1673ffffffffffffffffffffffffffffffffffffffff16815260200190815260200160002091508160050160009054906101000a900460ff16151561061157600080fd5b61062c8260040154836000015461109890919063ffffffff16565b9050600260008473ffffffffffffffffffffffffffffffffffffffff1673ffffffffffffffffffffffffffffffffffffffff16815260200190815260200160002060008082016000905560018201600090556002820160009055600382016000905560048201600090556005820160006101000a81549060ff021916905550506106c18160035461109890919063ffffffff16565b600381905550600160009054906101000a900473ffffffffffffffffffffffffffffffffffffffff1673ffffffffffffffffffffffffffffffffffffffff1663a9059cbb33836040518363ffffffff167c0100000000000000000000000000000000000000000000000000000000028152600401808373ffffffffffffffffffffffffffffffffffffffff1673ffffffffffffffffffffffffffffffffffffffff16815260200182815260200192505050602060405180830381600087803b15801561078c57600080fd5b505af11580156107a0573d6000803e3d6000fd5b505050506040513d60208110156107b657600080fd5b8101908080519060200190929190505050508273ffffffffffffffffffffffffffffffffffffffff167fe25d8515ad21a65f901eaac99e62ae923aa01c8eb5812dce069abd9ea2785b57826040518082815260200191505060405180910390a2505050565b60035481565b6000806000600260003373ffffffffffffffffffffffffffffffffffffffff1673ffffffffffffffffffffffffffffffffffffffff1681526020019081526020016000209250600083600001541415151561087b57600080fd5b6108de8360c0604051908101604052908160008201548152602001600182015481526020016002820154815260200160038201548152602001600482015481526020016005820160009054906101000a900460ff16151515158152505042611006565b915060008214156108ee57610a9f565b61090583600401548361109890919063ffffffff16565b9050600081141561091557610a9f565b61092c8184600401546110b990919063ffffffff16565b83600401819055506109498160035461109890919063ffffffff16565b600381905550600160009054906101000a900473ffffffffffffffffffffffffffffffffffffffff1673ffffffffffffffffffffffffffffffffffffffff1663a9059cbb33836040518363ffffffff167c0100000000000000000000000000000000000000000000000000000000028152600401808373ffffffffffffffffffffffffffffffffffffffff1673ffffffffffffffffffffffffffffffffffffffff16815260200182815260200192505050602060405180830381600087803b158015610a1457600080fd5b505af1158015610a28573d6000803e3d6000fd5b505050506040513d6020811015610a3e57600080fd5b8101908080519060200190929190505050503373ffffffffffffffffffffffffffffffffffffffff167f18a0e773189b1ed3c86000a786f0a897168a9b8b2a805c482c91e69ca25e4b3c826040518082815260200191505060405180910390a25b505050565b6000809054906101000a900473ffffffffffffffffffffffffffffffffffffffff1681565b60026020528060005260406000206000915090508060000154908060010154908060020154908060030154908060040154908060050160009054906101000a900460ff16905086565b6000809054906101000a900473ffffffffffffffffffffffffffffffffffffffff1673ffffffffffffffffffffffffffffffffffffffff163373ffffffffffffffffffffffffffffffffffffffff16141515610b6d57600080fd5b600073ffffffffffffffffffffffffffffffffffffffff168173ffffffffffffffffffffffffffffffffffffffff1614151515610ba957600080fd5b8073ffffffffffffffffffffffffffffffffffffffff166000809054906101000a900473ffffffffffffffffffffffffffffffffffffffff1673ffffffffffffffffffffffffffffffffffffffff167f8be0079c531659141344cd1fd0a4f28419497f9722a3daafe3b4186f6b6457e060405160405180910390a3806000806101000a81548173ffffffffffffffffffffffffffffffffffffffff021916908373ffffffffffffffffffffffffffffffffffffffff16021790555050565b6000809054906101000a900473ffffffffffffffffffffffffffffffffffffffff1673ffffffffffffffffffffffffffffffffffffffff163373ffffffffffffffffffffffffffffffffffffffff16141515610cc257600080fd5b600073ffffffffffffffffffffffffffffffffffffffff168673ffffffffffffffffffffffffffffffffffffffff1614151515610cfe57600080fd5b600085111515610d0d57600080fd5b6000600260008873ffffffffffffffffffffffffffffffffffffffff1673ffffffffffffffffffffffffffffffffffffffff16815260200190815260200160002060000154141515610d5e57600080fd5b828411158015610d6e5750818311155b1515610d7957600080fd5b600160009054906101000a900473ffffffffffffffffffffffffffffffffffffffff1673ffffffffffffffffffffffffffffffffffffffff166370a08231306040518263ffffffff167c0100000000000000000000000000000000000000000000000000000000028152600401808273ffffffffffffffffffffffffffffffffffffffff1673ffffffffffffffffffffffffffffffffffffffff168152602001915050602060405180830381600087803b158015610e3657600080fd5b505af1158015610e4a573d6000803e3d6000fd5b505050506040513d6020811015610e6057600080fd5b8101908080519060200190929190505050610e86866003546110b990919063ffffffff16565b11151515610e9357600080fd5b60c06040519081016040528086815260200185815260200184815260200183815260200160008152602001821515815250600260008873ffffffffffffffffffffffffffffffffffffffff1673ffffffffffffffffffffffffffffffffffffffff168152602001908152602001600020600082015181600001556020820151816001015560408201518160020155606082015181600301556080820151816004015560a08201518160050160006101000a81548160ff021916908315150217905550905050610f6d856003546110b990919063ffffffff16565b6003819055508573ffffffffffffffffffffffffffffffffffffffff163373ffffffffffffffffffffffffffffffffffffffff167ffabf00c3717e5e33d6fcc433d4d70ef919a4101fb7d5c444fe349927034eaa45876040518082815260200191505060405180910390a3505050505050565b600160009054906101000a900473ffffffffffffffffffffffffffffffffffffffff1681565b6000826040015182101561101d5760009050611092565b8260600151821015156110365782600001519050611092565b61108f6110548460200151856060015161109890919063ffffffff16565b61108161106e86602001518661109890919063ffffffff16565b86600001516110da90919063ffffffff16565b61111890919063ffffffff16565b90505b92915050565b6000808383111515156110aa57600080fd5b82840390508091505092915050565b60008082840190508381101515156110d057600080fd5b8091505092915050565b60008060008414156110ef5760009150611111565b828402905082848281151561110057fe5b0414151561110d57600080fd5b8091505b5092915050565b60008060008311151561112a57600080fd5b828481151561113557fe5b04905080915050929150505600a165627a7a723058205f0f36fb7df205d7ef5409fda3e82b3100f5bf22a46799611cf9c9b7a4c684de0029",
  "source": "pragma solidity ^0.4.24;\n\nimport './math/SafeMath.sol';\nimport './ownership/Ownable.sol';\nimport './token/IERC20.sol';\n\n/**\n * @title VestingTrustee\n * @dev Lends very heavily from SirinLab and Stox's own VestingTrustee contracts\n */\ncontract VestingTrustee is Ownable {\n    using SafeMath for uint256;\n\n    // The address of the ERC20 token to vest.\n    IERC20 public token;\n\n    struct Grant {\n        uint256 value;\n        uint256 start;\n        uint256 cliff;\n        uint256 end;\n        uint256 transferred;\n        bool revokable;\n    }\n\n    // Grants holder.\n    mapping (address => Grant) public grants;\n\n    // Total tokens available for vesting.\n    uint256 public totalVesting;\n\n    event NewGrant(address indexed _from, address indexed _to, uint256 _value);\n    event UnlockGrant(address indexed _holder, uint256 _value);\n    event RevokeGrant(address indexed _holder, uint256 _refund);\n\n    /// @dev Constructor that initializes the address of the ERC20 contract.\n    /// @param _token IERC20 The address of the previously deployed ERC20 smart contract.\n    constructor(IERC20 _token) public {\n        require(_token != address(0));\n\n        token = _token;\n    }\n\n    /// @dev Grant tokens to a specified address.\n    /// @param _to address The address to grant tokens to.\n    /// @param _value uint256 The amount of tokens to be granted.\n    /// @param _start uint256 The beginning of the vesting period.\n    /// @param _cliff uint256 Duration of the cliff period.\n    /// @param _end uint256 The end of the vesting period.\n    /// @param _revokable bool Whether the grant is revokable or not.\n    function createGrant(\n      address _to,\n      uint256 _value,\n      uint256 _start,\n      uint256 _cliff,\n      uint256 _end,\n      bool _revokable\n    ) public onlyOwner\n    {\n        require(_to != address(0));\n        require(_value > 0);\n\n        // Make sure that a single address can be granted tokens only once.\n        require(grants[_to].value == 0);\n\n        // Check for date inconsistencies that may cause unexpected behavior.\n        require(_start <= _cliff && _cliff <= _end);\n\n        // Check that this grant doesn't exceed the total amount of tokens currently available for vesting.\n        require(totalVesting.add(_value) <= token.balanceOf(address(this)));\n\n        // Assign a new grant.\n        grants[_to] = Grant({\n            value: _value,\n            start: _start,\n            cliff: _cliff,\n            end: _end,\n            transferred: 0,\n            revokable: _revokable\n        });\n\n        // Tokens granted, increase the total amount vested.\n        totalVesting = totalVesting.add(_value);\n\n        emit NewGrant(msg.sender, _to, _value);\n    }\n\n    /// @dev Revoke the grant of tokens of a specifed address.\n    /// @param _holder The address which will have its tokens revoked.\n    function revoke(address _holder) public onlyOwner {\n        Grant storage grant = grants[_holder];\n\n        require(grant.revokable);\n\n        // Send the remaining ERC20 back to the owner.\n        uint256 refund = grant.value.sub(grant.transferred);\n\n        // Remove the grant.\n        delete grants[_holder];\n\n        totalVesting = totalVesting.sub(refund);\n        token.transfer(msg.sender, refund);\n\n        emit RevokeGrant(_holder, refund);\n    }\n\n    /// @dev Calculate the total amount of vested tokens of a holder at a given time.\n    /// @param _holder address The address of the holder.\n    /// @param _time uint256 The specific time.\n    /// @return a uint256 representing a holder's total amount of vested tokens.\n    function vestedTokens(address _holder, uint256 _time) public constant returns (uint256) {\n        Grant storage grant = grants[_holder];\n        if (grant.value == 0) {\n            return 0;\n        }\n\n        return calculateVestedTokens(grant, _time);\n    }\n\n    /// @dev Calculate amount of vested tokens at a specifc time.\n    /// @param _grant Grant The vesting grant.\n    /// @param _time uint256 The time to be checked\n    /// @return An uint256 representing the amount of vested tokens of a specific grant.\n    ///   |                         _/--------   vestedTokens rect\n    ///   |                       _/\n    ///   |                     _/\n    ///   |                   _/\n    ///   |                 _/\n    ///   |                /\n    ///   |              .|\n    ///   |            .  |\n    ///   |          .    |\n    ///   |        .      |\n    ///   |      .        |\n    ///   |    .          |\n    ///   +===+===========+---------+----------> time\n    ///     Start       Cliff      End\n    function calculateVestedTokens(Grant _grant, uint256 _time) private pure returns (uint256) {\n        // If we're before the cliff, then nothing is vested.\n        if (_time < _grant.cliff) {\n            return 0;\n        }\n\n        // If we're after the end of the vesting period - everything is vested;\n        if (_time >= _grant.end) {\n            return _grant.value;\n        }\n\n        // Interpolate all vested tokens: vestedTokens = tokens/// (time - start) / (end - start)\n        return _grant.value.mul(_time.sub(_grant.start)).div(_grant.end.sub(_grant.start));\n    }\n\n    /// @dev Unlock vested tokens and transfer them to their holder.\n    /// @return a uint256 representing the amount of vested tokens transferred to their holder.\n    function unlockVestedTokens() public {\n        Grant storage grant = grants[msg.sender];\n        require(grant.value != 0);\n\n        // Get the total amount of vested tokens, acccording to grant.\n        uint256 vested = calculateVestedTokens(grant, now);\n        if (vested == 0) {\n            return;\n        }\n\n        // Make sure the holder doesn't transfer more than what he already has.\n        uint256 transferable = vested.sub(grant.transferred);\n        if (transferable == 0) {\n            return;\n        }\n\n        grant.transferred = grant.transferred.add(transferable);\n        totalVesting = totalVesting.sub(transferable);\n        token.transfer(msg.sender, transferable);\n\n        emit UnlockGrant(msg.sender, transferable);\n    }\n}\n",
  "sourcePath": "/Users/thomasvanderstraeten/code/hey/mainchain/contracts/VestingTrustee.sol",
  "compiler": {
    "name": "solc",
    "version": "0.4.24+commit.e67f0147.Emscripten.clang"
  },
  "schemaVersion": "2.0.1",
  "updatedAt": "2018-10-31T21:38:10.481Z"
}