{
  "contractName": "VestingTrustee",
  "abi": [
    {
      "constant": false,
      "inputs": [],
      "name": "renounceOwnership",
      "outputs": [],
      "payable": false,
      "stateMutability": "nonpayable",
      "type": "function"
    },
    {
      "constant": true,
      "inputs": [],
      "name": "owner",
      "outputs": [
        {
          "name": "",
          "type": "address"
        }
      ],
      "payable": false,
      "stateMutability": "view",
      "type": "function"
    },
    {
      "constant": true,
      "inputs": [],
      "name": "isOwner",
      "outputs": [
        {
          "name": "",
          "type": "bool"
        }
      ],
      "payable": false,
      "stateMutability": "view",
      "type": "function"
    },
    {
      "constant": true,
      "inputs": [
        {
          "name": "",
          "type": "address"
        }
      ],
      "name": "grants",
      "outputs": [
        {
          "name": "value",
          "type": "uint256"
        },
        {
          "name": "start",
          "type": "uint256"
        },
        {
          "name": "cliff",
          "type": "uint256"
        },
        {
          "name": "end",
          "type": "uint256"
        },
        {
          "name": "transferred",
          "type": "uint256"
        },
        {
          "name": "revokable",
          "type": "bool"
        }
      ],
      "payable": false,
      "stateMutability": "view",
      "type": "function"
    },
    {
      "constant": false,
      "inputs": [
        {
          "name": "newOwner",
          "type": "address"
        }
      ],
      "name": "transferOwnership",
      "outputs": [],
      "payable": false,
      "stateMutability": "nonpayable",
      "type": "function"
    },
    {
      "inputs": [
        {
          "name": "token",
          "type": "address"
        }
      ],
      "payable": false,
      "stateMutability": "nonpayable",
      "type": "constructor"
    },
    {
      "anonymous": false,
      "inputs": [
        {
          "indexed": true,
          "name": "from",
          "type": "address"
        },
        {
          "indexed": true,
          "name": "to",
          "type": "address"
        },
        {
          "indexed": false,
          "name": "value",
          "type": "uint256"
        }
      ],
      "name": "GrantCreated",
      "type": "event"
    },
    {
      "anonymous": false,
      "inputs": [
        {
          "indexed": true,
          "name": "holder",
          "type": "address"
        },
        {
          "indexed": false,
          "name": "value",
          "type": "uint256"
        }
      ],
      "name": "GrantClaimed",
      "type": "event"
    },
    {
      "anonymous": false,
      "inputs": [
        {
          "indexed": true,
          "name": "holder",
          "type": "address"
        },
        {
          "indexed": false,
          "name": "refund",
          "type": "uint256"
        }
      ],
      "name": "GrantRevoked",
      "type": "event"
    },
    {
      "anonymous": false,
      "inputs": [
        {
          "indexed": true,
          "name": "previousOwner",
          "type": "address"
        },
        {
          "indexed": true,
          "name": "newOwner",
          "type": "address"
        }
      ],
      "name": "OwnershipTransferred",
      "type": "event"
    },
    {
      "constant": false,
      "inputs": [
        {
          "name": "to",
          "type": "address"
        },
        {
          "name": "value",
          "type": "uint256"
        },
        {
          "name": "start",
          "type": "uint256"
        },
        {
          "name": "cliff",
          "type": "uint256"
        },
        {
          "name": "end",
          "type": "uint256"
        },
        {
          "name": "revokable",
          "type": "bool"
        }
      ],
      "name": "createGrant",
      "outputs": [],
      "payable": false,
      "stateMutability": "nonpayable",
      "type": "function"
    },
    {
      "constant": false,
      "inputs": [
        {
          "name": "holder",
          "type": "address"
        }
      ],
      "name": "revokeGrant",
      "outputs": [],
      "payable": false,
      "stateMutability": "nonpayable",
      "type": "function"
    },
    {
      "constant": false,
      "inputs": [],
      "name": "claimTokens",
      "outputs": [],
      "payable": false,
      "stateMutability": "nonpayable",
      "type": "function"
    },
    {
      "constant": true,
      "inputs": [
        {
          "name": "holder",
          "type": "address"
        },
        {
          "name": "time",
          "type": "uint256"
        }
      ],
      "name": "claimableTokens",
      "outputs": [
        {
          "name": "",
          "type": "uint256"
        }
      ],
      "payable": false,
      "stateMutability": "view",
      "type": "function"
    },
    {
      "constant": true,
      "inputs": [],
      "name": "token",
      "outputs": [
        {
          "name": "",
          "type": "address"
        }
      ],
      "payable": false,
      "stateMutability": "view",
      "type": "function"
    },
    {
      "constant": true,
      "inputs": [],
      "name": "totalVesting",
      "outputs": [
        {
          "name": "",
          "type": "uint256"
        }
      ],
      "payable": false,
      "stateMutability": "view",
      "type": "function"
    }
  ],
  "bytecode": "0x608060405234801561001057600080fd5b5060405160208061161e83398101806040528101908080519060200190929190505050336000806101000a81548173ffffffffffffffffffffffffffffffffffffffff021916908373ffffffffffffffffffffffffffffffffffffffff1602179055506000809054906101000a900473ffffffffffffffffffffffffffffffffffffffff1673ffffffffffffffffffffffffffffffffffffffff16600073ffffffffffffffffffffffffffffffffffffffff167f8be0079c531659141344cd1fd0a4f28419497f9722a3daafe3b4186f6b6457e060405160405180910390a3600073ffffffffffffffffffffffffffffffffffffffff168173ffffffffffffffffffffffffffffffffffffffff1614151515610194576040517f08c379a000000000000000000000000000000000000000000000000000000000815260040180806020018281038252601c8152602001807f746f6b656e2063616e6e6f74206265207a65726f20616464726573730000000081525060200191505060405180910390fd5b80600260006101000a81548173ffffffffffffffffffffffffffffffffffffffff021916908373ffffffffffffffffffffffffffffffffffffffff16021790555050611439806101e56000396000f3006080604052600436106100af576000357c0100000000000000000000000000000000000000000000000000000000900463ffffffff1680631817c5a7146100b457806348c54b9d146100f7578063715018a61461010e5780637c17357d146101255780638da5cb5b146101505780638f32d59b146101a7578063b869cea3146101d6578063f2fde38b14610254578063f53215c314610297578063fbd05ce5146102f8578063fc0c546a1461036f575b600080fd5b3480156100c057600080fd5b506100f5600480360381019080803573ffffffffffffffffffffffffffffffffffffffff1690602001909291905050506103c6565b005b34801561010357600080fd5b5061010c6106ad565b005b34801561011a57600080fd5b506101236109be565b005b34801561013157600080fd5b5061013a610a90565b6040518082815260200191505060405180910390f35b34801561015c57600080fd5b50610165610a9a565b604051808273ffffffffffffffffffffffffffffffffffffffff1673ffffffffffffffffffffffffffffffffffffffff16815260200191505060405180910390f35b3480156101b357600080fd5b506101bc610ac3565b604051808215151515815260200191505060405180910390f35b3480156101e257600080fd5b50610217600480360381019080803573ffffffffffffffffffffffffffffffffffffffff169060200190929190505050610b1a565b6040518087815260200186815260200185815260200184815260200183815260200182151515158152602001965050505050505060405180910390f35b34801561026057600080fd5b50610295600480360381019080803573ffffffffffffffffffffffffffffffffffffffff169060200190929190505050610b63565b005b3480156102a357600080fd5b506102e2600480360381019080803573ffffffffffffffffffffffffffffffffffffffff16906020019092919080359060200190929190505050610b82565b6040518082815260200191505060405180910390f35b34801561030457600080fd5b5061036d600480360381019080803573ffffffffffffffffffffffffffffffffffffffff16906020019092919080359060200190929190803590602001909291908035906020019092919080359060200190929190803515159060200190929190505050610c49565b005b34801561037b57600080fd5b506103846111ad565b604051808273ffffffffffffffffffffffffffffffffffffffff1673ffffffffffffffffffffffffffffffffffffffff16815260200191505060405180910390f35b6000806103d1610ac3565b15156103dc57600080fd5b600160008473ffffffffffffffffffffffffffffffffffffffff1673ffffffffffffffffffffffffffffffffffffffff16815260200190815260200160002091508160050160009054906101000a900460ff1615156104a3576040517f08c379a00000000000000000000000000000000000000000000000000000000081526004018080602001828103825260178152602001807f6772616e74206d757374206265207265766f6b61626c6500000000000000000081525060200191505060405180910390fd5b6104be826004015483600001546111d790919063ffffffff16565b90506104d5816003546111d790919063ffffffff16565b600381905550600160008473ffffffffffffffffffffffffffffffffffffffff1673ffffffffffffffffffffffffffffffffffffffff16815260200190815260200160002060008082016000905560018201600090556002820160009055600382016000905560048201600090556005820160006101000a81549060ff02191690555050600260009054906101000a900473ffffffffffffffffffffffffffffffffffffffff1673ffffffffffffffffffffffffffffffffffffffff1663a9059cbb33836040518363ffffffff167c0100000000000000000000000000000000000000000000000000000000028152600401808373ffffffffffffffffffffffffffffffffffffffff1673ffffffffffffffffffffffffffffffffffffffff16815260200182815260200192505050602060405180830381600087803b15801561061e57600080fd5b505af1158015610632573d6000803e3d6000fd5b505050506040513d602081101561064857600080fd5b8101908080519060200190929190505050508273ffffffffffffffffffffffffffffffffffffffff167f740528a7c317c81f0923adc30df75db3f448298c78cdaf548adfcfdb3c84ff6f826040518082815260200191505060405180910390a2505050565b60008060006106bc3342610b82565b925060008314151515610737576040517f08c379a000000000000000000000000000000000000000000000000000000000815260040180806020018281038252601d8152602001807f6e6f20746f6b656e7320636c61696d61626c652063757272656e746c7900000081525060200191505060405180910390fd5b600160003373ffffffffffffffffffffffffffffffffffffffff1673ffffffffffffffffffffffffffffffffffffffff168152602001908152602001600020915061078f8260040154846111d790919063ffffffff16565b905060008114151515610830576040517f08c379a00000000000000000000000000000000000000000000000000000000081526004018080602001828103825260248152602001807f636c61696d61626c6520616d6f756e7420616c7265616479207472616e73666581526020017f727265640000000000000000000000000000000000000000000000000000000081525060400191505060405180910390fd5b6108478183600401546111f890919063ffffffff16565b8260040181905550610864816003546111d790919063ffffffff16565b600381905550600260009054906101000a900473ffffffffffffffffffffffffffffffffffffffff1673ffffffffffffffffffffffffffffffffffffffff1663a9059cbb33836040518363ffffffff167c0100000000000000000000000000000000000000000000000000000000028152600401808373ffffffffffffffffffffffffffffffffffffffff1673ffffffffffffffffffffffffffffffffffffffff16815260200182815260200192505050602060405180830381600087803b15801561092f57600080fd5b505af1158015610943573d6000803e3d6000fd5b505050506040513d602081101561095957600080fd5b8101908080519060200190929190505050503373ffffffffffffffffffffffffffffffffffffffff167f2aa1d398fac8a867531b04feb1273747a6f1ec3d4700f40a2901dce75363edc0826040518082815260200191505060405180910390a2505050565b6109c6610ac3565b15156109d157600080fd5b600073ffffffffffffffffffffffffffffffffffffffff166000809054906101000a900473ffffffffffffffffffffffffffffffffffffffff1673ffffffffffffffffffffffffffffffffffffffff167f8be0079c531659141344cd1fd0a4f28419497f9722a3daafe3b4186f6b6457e060405160405180910390a360008060006101000a81548173ffffffffffffffffffffffffffffffffffffffff021916908373ffffffffffffffffffffffffffffffffffffffff160217905550565b6000600354905090565b60008060009054906101000a900473ffffffffffffffffffffffffffffffffffffffff16905090565b60008060009054906101000a900473ffffffffffffffffffffffffffffffffffffffff1673ffffffffffffffffffffffffffffffffffffffff163373ffffffffffffffffffffffffffffffffffffffff1614905090565b60016020528060005260406000206000915090508060000154908060010154908060020154908060030154908060040154908060050160009054906101000a900460ff16905086565b610b6b610ac3565b1515610b7657600080fd5b610b7f81611219565b50565b600080600160008573ffffffffffffffffffffffffffffffffffffffff1673ffffffffffffffffffffffffffffffffffffffff1681526020019081526020016000209050600081600001541415610bdc5760009150610c42565b610c3f8160c0604051908101604052908160008201548152602001600182015481526020016002820154815260200160038201548152602001600482015481526020016005820160009054906101000a900460ff16151515158152505084611313565b91505b5092915050565b610c51610ac3565b1515610c5c57600080fd5b600073ffffffffffffffffffffffffffffffffffffffff168673ffffffffffffffffffffffffffffffffffffffff1614151515610d01576040517f08c379a00000000000000000000000000000000000000000000000000000000081526004018080602001828103825260198152602001807f746f2063616e6e6f74206265207a65726f20616464726573730000000000000081525060200191505060405180910390fd5b600085111515610d79576040517f08c379a00000000000000000000000000000000000000000000000000000000081526004018080602001828103825260158152602001807f76616c7565206d7573742062652061626f76652030000000000000000000000081525060200191505060405180910390fd5b6000600160008873ffffffffffffffffffffffffffffffffffffffff1673ffffffffffffffffffffffffffffffffffffffff16815260200190815260200160002060000154141515610e33576040517f08c379a000000000000000000000000000000000000000000000000000000000815260040180806020018281038252601a8152602001807f6f6e6c79206f6e65206772616e7420706572206164647265737300000000000081525060200191505060405180910390fd5b828411158015610e435750818311155b1515610eb7576040517f08c379a00000000000000000000000000000000000000000000000000000000081526004018080602001828103825260208152602001807f76657374696e67206461746573206d75737420626520636f6e73697374656e7481525060200191505060405180910390fd5b600260009054906101000a900473ffffffffffffffffffffffffffffffffffffffff1673ffffffffffffffffffffffffffffffffffffffff166370a08231306040518263ffffffff167c0100000000000000000000000000000000000000000000000000000000028152600401808273ffffffffffffffffffffffffffffffffffffffff1673ffffffffffffffffffffffffffffffffffffffff168152602001915050602060405180830381600087803b158015610f7457600080fd5b505af1158015610f88573d6000803e3d6000fd5b505050506040513d6020811015610f9e57600080fd5b8101908080519060200190929190505050610fc4866003546111f890919063ffffffff16565b11151515611060576040517f08c379a00000000000000000000000000000000000000000000000000000000081526004018080602001828103825260348152602001807f6772616e742063616e6e6f742065786365656420746f74616c20616d6f756e7481526020017f206f6620746f6b656e7320617661696c61626c6500000000000000000000000081525060400191505060405180910390fd5b60c06040519081016040528086815260200185815260200184815260200183815260200160008152602001821515815250600160008873ffffffffffffffffffffffffffffffffffffffff1673ffffffffffffffffffffffffffffffffffffffff168152602001908152602001600020600082015181600001556020820151816001015560408201518160020155606082015181600301556080820151816004015560a08201518160050160006101000a81548160ff02191690831515021790555090505061113a856003546111f890919063ffffffff16565b6003819055508573ffffffffffffffffffffffffffffffffffffffff163373ffffffffffffffffffffffffffffffffffffffff167fe59554161f63f82606fec58f135843633f78733cf852ac15d6cb86ff84f5a05c876040518082815260200191505060405180910390a3505050505050565b6000600260009054906101000a900473ffffffffffffffffffffffffffffffffffffffff16905090565b6000808383111515156111e957600080fd5b82840390508091505092915050565b600080828401905083811015151561120f57600080fd5b8091505092915050565b600073ffffffffffffffffffffffffffffffffffffffff168173ffffffffffffffffffffffffffffffffffffffff161415151561125557600080fd5b8073ffffffffffffffffffffffffffffffffffffffff166000809054906101000a900473ffffffffffffffffffffffffffffffffffffffff1673ffffffffffffffffffffffffffffffffffffffff167f8be0079c531659141344cd1fd0a4f28419497f9722a3daafe3b4186f6b6457e060405160405180910390a3806000806101000a81548173ffffffffffffffffffffffffffffffffffffffff021916908373ffffffffffffffffffffffffffffffffffffffff16021790555050565b6000826040015182101561132a576000905061139f565b826060015182101515611343578260000151905061139f565b61139c611361846020015185606001516111d790919063ffffffff16565b61138e61137b8660200151866111d790919063ffffffff16565b86600001516113a590919063ffffffff16565b6113e390919063ffffffff16565b90505b92915050565b60008060008414156113ba57600091506113dc565b82840290508284828115156113cb57fe5b041415156113d857600080fd5b8091505b5092915050565b6000806000831115156113f557600080fd5b828481151561140057fe5b04905080915050929150505600a165627a7a72305820ff828eef391468858736cf2a0e855057cee82be6b6415497ab1cd5b3596bf8c00029",
  "source": "/** @title Hey Token Sale\n *  @author Thomas Vanderstraeten - <thomas@get-hey.com>\n *  This smart contract has undertaken X audit and X bounty program.\n *  However, keep in mind that smart contracts still rely on experimental technology.\n */\n\npragma solidity ^0.4.24;\n\nimport \"openzeppelin-solidity/contracts/token/ERC20/IERC20.sol\";\nimport \"openzeppelin-solidity/contracts/ownership/Ownable.sol\";\nimport \"openzeppelin-solidity/contracts/math/SafeMath.sol\";\n\n/** @title VestingTrustee\n * @dev Lends very heavily from SirinLab and Stox's own VestingTrustee contracts.\n */\ncontract VestingTrustee is Ownable {\n\n    /* *** Libraries *** */\n    using SafeMath for uint256;\n\n\n    /* *** Data Structures *** */\n    struct Grant {\n        uint256 value;\n        uint256 start;\n        uint256 cliff;\n        uint256 end;\n        uint256 transferred;\n        bool revokable;\n    }\n\n\n    /* *** Variables *** */\n    mapping (address => Grant) public grants; // Grants by holder address\n    IERC20 private _token;                    // The address of the ERC20 token to vest\n    uint256 private _totalVesting;            // Total tokens available for vesting\n\n\n    /* *** Events *** */\n    event GrantCreated(address indexed from, address indexed to, uint256 value);\n    event GrantClaimed(address indexed holder, uint256 value);\n    event GrantRevoked(address indexed holder, uint256 refund);\n\n\n    /* *** Public Functions *** */\n\n    /** @dev Constructor. Initializes the ERC20 token linked to the grants.\n     *  @param token IERC20 The address of the previously deployed ERC20 smart contract\n     */\n    constructor(\n        IERC20 token\n    )\n        public\n    {\n        require(token != address(0), \"token cannot be zero address\");\n\n        _token = token;\n    }\n\n    /** @dev Grant tokens to a specified address.\n     *  @param to address The address to grant tokens to\n     *  @param value uint256 The amount of tokens to be granted\n     *  @param start uint256 The start of the vesting period in seconds since the Unix Epoch\n     *  @param cliff uint256 The date at which the cliff occurs in seconds since the Unix Epoch\n     *  @param end uint256 The end of the vesting period in seconds since the Unix Epoch\n     *  @param revokable bool Whether the grant is revokable or not\n     */\n    function createGrant(\n        address to,\n        uint256 value,\n        uint256 start,\n        uint256 cliff,\n        uint256 end,\n        bool revokable\n    )\n        public\n        onlyOwner\n    {\n        require(to != address(0), \"to cannot be zero address\");\n        require(value > 0, \"value must be above 0\");\n\n        // Check that no grant has previously been assigned to this address\n        require(grants[to].value == 0, \"only one grant per address\");\n\n        // Check for date inconsistencies that may cause unexpected behavior.\n        require(start <= cliff && cliff <= end, \"vesting dates must be consistent\");\n\n        // Check that this grant doesn't exceed the total amount of tokens currently available for vesting.\n        require(_totalVesting.add(value) <= _token.balanceOf(address(this)), \"grant cannot exceed total amount of tokens available\");\n\n        // Assign a new grant.\n        grants[to] = Grant({\n            value: value,\n            start: start,\n            cliff: cliff,\n            end: end,\n            transferred: 0,\n            revokable: revokable\n        });\n\n        // Tokens granted, increase the total amount vested.\n        _totalVesting = _totalVesting.add(value);\n\n        emit GrantCreated(msg.sender, to, value);\n    }\n\n    /** @dev Revoke the grant of tokens of a specifed address and returns tokens\n     *  to the grant contract owner.\n     *  @param holder address The address which will have its grant revoked.\n     */\n    function revokeGrant(\n        address holder\n    )\n        public\n        onlyOwner\n    {\n        Grant storage grant = grants[holder];\n\n        require(grant.revokable, \"grant must be revokable\");\n\n        uint256 refund = grant.value.sub(grant.transferred);\n        _totalVesting = _totalVesting.sub(refund);\n        delete grants[holder];\n\n        // Send the revoked grant tokens back to the contract owner.\n        _token.transfer(msg.sender, refund);\n\n        emit GrantRevoked(holder, refund);\n    }\n\n    /** @dev Claim vested tokens and transfer them to their holder. Note that\n     *  this function has to be called by the grant holder themselves.\n     */\n    function claimTokens()\n        public\n    {\n        // Get the total amount of claimable tokens, acccording to grant.\n        // solium-disable-next-line security/no-block-members\n        uint256 claimable = claimableTokens(msg.sender, block.timestamp);\n        require(claimable != 0, \"no tokens claimable currently\");\n\n        Grant storage grant = grants[msg.sender];\n\n        // Make sure the holder doesn't transfer more than what he already has.\n        // Note that claimable will always be greater than or equal to\n        // transferred by definition, so this is just an extra check.\n        uint256 transferable = claimable.sub(grant.transferred);\n        require(transferable != 0, \"claimable amount already transferred\");\n\n        grant.transferred = grant.transferred.add(transferable);\n        _totalVesting = _totalVesting.sub(transferable);\n        _token.transfer(msg.sender, transferable);\n\n        emit GrantClaimed(msg.sender, transferable);\n    }\n\n    /** @dev Calculate the total amount of tokens that a holder can claim at a\n     *  given time, from the total amount vested for this holder. This function\n     *  does the precheck of making sure that there is actually a grant for this\n     *  owner, before delegating to the private _calculateClaimableTokens()\n     *  function to derive the claimable amount at the given time.\n     *  @param holder address The address of the holder\n     *  @param time uint256 The specific time\n     *  @return a uint256 representing a holder's total amount of vested tokens\n     */\n    function claimableTokens(\n        address holder,\n        uint256 time\n    )\n        public\n        view\n        returns (uint256)\n    {\n        Grant storage grant = grants[holder];\n        if (grant.value == 0) {\n            return 0;\n        }\n\n        return _calculateClaimableTokens(grant, time);\n    }\n\n    /**\n      * @return The address of the vested token\n      */\n    function token()\n        public\n        view\n        returns (address)\n    {\n        return address(_token);\n    }\n\n    /**\n      * @return The total amount of tokens currently vested\n      */\n    function totalVesting()\n        public\n        view\n        returns (uint256)\n    {\n        return _totalVesting;\n    }\n\n\n    /* *** Private Functions *** */\n\n    /** @dev Calculate amount of vested tokens at a given time for a given grant.\n     *  Note that this function does not take into account any previously claimed\n     *  tokens - it is the responsibility of the caller function to ensure that\n     *  the grant holder does not claim the same value multiple times.\n     *  @param grant Grant The vesting grant\n     *  @param time uint256 The time to be checked\n     *  @return An uint256 representing the amount of claimable tokens\n     *\n     *   |                         ____________ total value\n     *   |                       _/\n     *   |                     _/\n     *   |                   _/\n     *   |                 _/\n     *   |                /\n     *   |              .|\n     *   |            .  |\n     *   |          .    |\n     *   |        .      |\n     *   |      .        |\n     *   |    .          |\n     *   +===+===========+---------+----------> time\n     *     Start       Cliff      End\n     */\n    function _calculateClaimableTokens(\n        Grant grant,\n        uint256 time\n    )\n        private\n        pure\n        returns (uint256)\n    {\n        // If we're before the cliff, then everything is still vested and nothing can be claimed.\n        if (time < grant.cliff) {\n            return 0;\n        }\n\n        // If we're after the end of the vesting period, the full value is claimable;\n        if (time >= grant.end) {\n            return grant.value;\n        }\n\n        // If we're between the cliff and the end time, interpolate linearly using\n        // the formula: claimableTokens = total * (time - start) / (end - start)\n        return grant.value.mul(time.sub(grant.start)).div(grant.end.sub(grant.start));\n    }\n}\n",
  "sourcePath": "/Users/thomasvanderstraeten/code/hey/mainchain/contracts/VestingTrustee.sol",
  "compiler": {
    "name": "solc",
    "version": "0.4.24+commit.e67f0147.Emscripten.clang"
  },
  "schemaVersion": "2.0.1",
  "updatedAt": "2018-11-24T10:28:35.773Z"
}